{
  "contractName": "Campain",
  "abi": [
    {
      "inputs": [
        {
          "internalType": "address payable",
          "name": "creator_",
          "type": "address"
        },
        {
          "internalType": "uint256",
          "name": "campain_id_",
          "type": "uint256"
        },
        {
          "internalType": "uint256",
          "name": "goal_",
          "type": "uint256"
        },
        {
          "internalType": "uint256",
          "name": "startTimestamp_",
          "type": "uint256"
        },
        {
          "internalType": "uint256",
          "name": "endTimestamp_",
          "type": "uint256"
        },
        {
          "internalType": "bool",
          "name": "partialGoal_",
          "type": "bool"
        },
        {
          "internalType": "uint256",
          "name": "nbTiers_",
          "type": "uint256"
        },
        {
          "internalType": "uint256[]",
          "name": "tiers_",
          "type": "uint256[]"
        }
      ],
      "stateMutability": "nonpayable",
      "type": "constructor"
    },
    {
      "anonymous": false,
      "inputs": [
        {
          "indexed": false,
          "internalType": "address",
          "name": "creator",
          "type": "address"
        },
        {
          "indexed": false,
          "internalType": "uint256",
          "name": "timestamp",
          "type": "uint256"
        },
        {
          "indexed": false,
          "internalType": "uint256",
          "name": "goal",
          "type": "uint256"
        }
      ],
      "name": "CampainCreated",
      "type": "event"
    },
    {
      "anonymous": false,
      "inputs": [
        {
          "indexed": false,
          "internalType": "address",
          "name": "creator",
          "type": "address"
        },
        {
          "indexed": false,
          "internalType": "uint256",
          "name": "total_amount",
          "type": "uint256"
        }
      ],
      "name": "CreatorPaid",
      "type": "event"
    },
    {
      "anonymous": false,
      "inputs": [
        {
          "indexed": false,
          "internalType": "address",
          "name": "from",
          "type": "address"
        },
        {
          "indexed": false,
          "internalType": "uint256",
          "name": "campain_id",
          "type": "uint256"
        },
        {
          "indexed": false,
          "internalType": "uint256",
          "name": "amount",
          "type": "uint256"
        },
        {
          "indexed": false,
          "internalType": "uint256",
          "name": "balance",
          "type": "uint256"
        }
      ],
      "name": "Participation",
      "type": "event"
    },
    {
      "anonymous": false,
      "inputs": [
        {
          "indexed": false,
          "internalType": "address",
          "name": "from",
          "type": "address"
        },
        {
          "indexed": false,
          "internalType": "uint256",
          "name": "refundAmount",
          "type": "uint256"
        }
      ],
      "name": "Refund",
      "type": "event"
    },
    {
      "inputs": [],
      "name": "balance",
      "outputs": [
        {
          "internalType": "uint256",
          "name": "",
          "type": "uint256"
        }
      ],
      "stateMutability": "view",
      "type": "function",
      "constant": true
    },
    {
      "inputs": [],
      "name": "campain_id",
      "outputs": [
        {
          "internalType": "uint256",
          "name": "",
          "type": "uint256"
        }
      ],
      "stateMutability": "view",
      "type": "function",
      "constant": true
    },
    {
      "inputs": [
        {
          "internalType": "address",
          "name": "",
          "type": "address"
        }
      ],
      "name": "contributions",
      "outputs": [
        {
          "internalType": "uint256",
          "name": "",
          "type": "uint256"
        }
      ],
      "stateMutability": "view",
      "type": "function",
      "constant": true
    },
    {
      "inputs": [
        {
          "internalType": "address",
          "name": "",
          "type": "address"
        }
      ],
      "name": "contributionsTiers",
      "outputs": [
        {
          "internalType": "uint256",
          "name": "",
          "type": "uint256"
        }
      ],
      "stateMutability": "view",
      "type": "function",
      "constant": true
    },
    {
      "inputs": [],
      "name": "creator",
      "outputs": [
        {
          "internalType": "address payable",
          "name": "",
          "type": "address"
        }
      ],
      "stateMutability": "view",
      "type": "function",
      "constant": true
    },
    {
      "inputs": [],
      "name": "endTimestamp",
      "outputs": [
        {
          "internalType": "uint256",
          "name": "",
          "type": "uint256"
        }
      ],
      "stateMutability": "view",
      "type": "function",
      "constant": true
    },
    {
      "inputs": [],
      "name": "goal",
      "outputs": [
        {
          "internalType": "uint256",
          "name": "",
          "type": "uint256"
        }
      ],
      "stateMutability": "view",
      "type": "function",
      "constant": true
    },
    {
      "inputs": [],
      "name": "owner",
      "outputs": [
        {
          "internalType": "address",
          "name": "",
          "type": "address"
        }
      ],
      "stateMutability": "view",
      "type": "function",
      "constant": true
    },
    {
      "inputs": [],
      "name": "partialGoal",
      "outputs": [
        {
          "internalType": "bool",
          "name": "",
          "type": "bool"
        }
      ],
      "stateMutability": "view",
      "type": "function",
      "constant": true
    },
    {
      "inputs": [],
      "name": "startTimestamp",
      "outputs": [
        {
          "internalType": "uint256",
          "name": "",
          "type": "uint256"
        }
      ],
      "stateMutability": "view",
      "type": "function",
      "constant": true
    },
    {
      "inputs": [],
      "name": "state",
      "outputs": [
        {
          "internalType": "enum Campain.State",
          "name": "",
          "type": "uint8"
        }
      ],
      "stateMutability": "view",
      "type": "function",
      "constant": true
    },
    {
      "stateMutability": "payable",
      "type": "receive",
      "payable": true
    },
    {
      "inputs": [],
      "name": "payCreator",
      "outputs": [],
      "stateMutability": "nonpayable",
      "type": "function"
    },
    {
      "inputs": [],
      "name": "participate",
      "outputs": [
        {
          "internalType": "bool",
          "name": "success",
          "type": "bool"
        }
      ],
      "stateMutability": "payable",
      "type": "function",
      "payable": true
    },
    {
      "inputs": [],
      "name": "getRefund",
      "outputs": [],
      "stateMutability": "nonpayable",
      "type": "function"
    }
  ],
  "bytecode": "0x60806040523480156200001157600080fd5b5060405162001b3238038062001b32833981810160405281019062000037919062000398565b87600160006101000a81548173ffffffffffffffffffffffffffffffffffffffff021916908373ffffffffffffffffffffffffffffffffffffffff160217905550866000819055508560028190555084600581905550836006819055506000600460006101000a81548160ff02191690836002811115620000e1577f4e487b7100000000000000000000000000000000000000000000000000000000600052602160045260246000fd5b0217905550600160009054906101000a900473ffffffffffffffffffffffffffffffffffffffff16600460016101000a81548173ffffffffffffffffffffffffffffffffffffffff021916908373ffffffffffffffffffffffffffffffffffffffff160217905550600060038190555082600460156101000a81548160ff02191690831515021790555081815114620001b1576040517f08c379a0000000000000000000000000000000000000000000000000000000008152600401620001a8906200053b565b60405180910390fd5b816007819055508060089080519060200190620001d092919062000240565b507f93510d686774a542d9f88b394bd353add185c1d850dea9dc79a3f8db46703b68600160009054906101000a900473ffffffffffffffffffffffffffffffffffffffff16426002546040516200022a93929190620004fe565b60405180910390a15050505050505050620006d4565b8280548282559060005260206000209081019282156200027f579160200282015b828111156200027e57825182559160200191906001019062000261565b5b5090506200028e919062000292565b5090565b5b80821115620002ad57600081600090555060010162000293565b5090565b6000620002c8620002c28462000591565b6200055d565b90508083825260208201905082856020860282011115620002e857600080fd5b60005b858110156200031c578162000301888262000381565b845260208401935060208301925050600181019050620002eb565b5050509392505050565b600081519050620003378162000686565b92915050565b600082601f8301126200034f57600080fd5b815162000361848260208601620002b1565b91505092915050565b6000815190506200037b81620006a0565b92915050565b6000815190506200039281620006ba565b92915050565b600080600080600080600080610100898b031215620003b657600080fd5b6000620003c68b828c0162000326565b9850506020620003d98b828c0162000381565b9750506040620003ec8b828c0162000381565b9650506060620003ff8b828c0162000381565b9550506080620004128b828c0162000381565b94505060a0620004258b828c016200036a565b93505060c0620004388b828c0162000381565b92505060e089015167ffffffffffffffff8111156200045657600080fd5b620004648b828c016200033d565b9150509295985092959890939650565b6200047f816200061b565b82525050565b600062000494602a83620005c0565b91507f4e756d62657273206f6620746965727320646f6e74206d61746368207468652060008301527f7469657273206c697374000000000000000000000000000000000000000000006020830152604082019050919050565b620004f88162000611565b82525050565b600060608201905062000515600083018662000474565b620005246020830185620004ed565b620005336040830184620004ed565b949350505050565b60006020820190508181036000830152620005568162000485565b9050919050565b6000604051905081810181811067ffffffffffffffff8211171562000587576200058662000657565b5b8060405250919050565b600067ffffffffffffffff821115620005af57620005ae62000657565b5b602082029050602081019050919050565b600082825260208201905092915050565b6000620005de82620005f1565b9050919050565b60008115159050919050565b600073ffffffffffffffffffffffffffffffffffffffff82169050919050565b6000819050919050565b600062000628826200062f565b9050919050565b60006200063c8262000643565b9050919050565b60006200065082620005f1565b9050919050565b7f4e487b7100000000000000000000000000000000000000000000000000000000600052604160045260246000fd5b6200069181620005d1565b81146200069d57600080fd5b50565b620006ab81620005e5565b8114620006b757600080fd5b50565b620006c58162000611565b8114620006d157600080fd5b50565b61144e80620006e46000396000f3fe6080604052600436106100e15760003560e01c8063ad1a84491161007f578063c19d93fb11610059578063c19d93fb146102b4578063d11711a2146102df578063e00824bb146102fd578063e6fd48bc14610314576100f1565b8063ad1a844914610235578063b2d5ae4414610272578063b69ef8a814610289576100f1565b806342e94c90116100bb57806342e94c90146101775780638da5cb5b146101b45780639992477b146101df578063a85adeab1461020a576100f1565b806302d05d3f146100f65780632fe3f6ed14610121578063401938831461014c576100f1565b366100f1576100ee61033f565b50005b600080fd5b34801561010257600080fd5b5061010b6106b0565b6040516101189190611065565b60405180910390f35b34801561012d57600080fd5b506101366106d6565b60405161014391906110ee565b60405180910390f35b34801561015857600080fd5b506101616106e9565b60405161016e9190611264565b60405180910390f35b34801561018357600080fd5b5061019e60048036038101906101999190610cbe565b6106ef565b6040516101ab9190611264565b60405180910390f35b3480156101c057600080fd5b506101c9610707565b6040516101d6919061104a565b60405180910390f35b3480156101eb57600080fd5b506101f461072d565b6040516102019190611264565b60405180910390f35b34801561021657600080fd5b5061021f610733565b60405161022c9190611264565b60405180910390f35b34801561024157600080fd5b5061025c60048036038101906102579190610cbe565b610739565b6040516102699190611264565b60405180910390f35b34801561027e57600080fd5b50610287610751565b005b34801561029557600080fd5b5061029e610a28565b6040516102ab9190611264565b60405180910390f35b3480156102c057600080fd5b506102c9610a2e565b6040516102d69190611109565b60405180910390f35b6102e761033f565b6040516102f491906110ee565b60405180910390f35b34801561030957600080fd5b50610312610a41565b005b34801561032057600080fd5b50610329610bea565b6040516103369190611264565b60405180910390f35b60008080600281111561037b577f4e487b7100000000000000000000000000000000000000000000000000000000600052602160045260246000fd5b600460009054906101000a900460ff1660028111156103c3577f4e487b7100000000000000000000000000000000000000000000000000000000600052602160045260246000fd5b14610403576040517f08c379a00000000000000000000000000000000000000000000000000000000081526004016103fa90611124565b60405180910390fd5b33600073ffffffffffffffffffffffffffffffffffffffff168173ffffffffffffffffffffffffffffffffffffffff161415610474576040517f08c379a000000000000000000000000000000000000000000000000000000000815260040161046b90611144565b60405180910390fd5b600160009054906101000a900473ffffffffffffffffffffffffffffffffffffffff1673ffffffffffffffffffffffffffffffffffffffff163373ffffffffffffffffffffffffffffffffffffffff161415610505576040517f08c379a00000000000000000000000000000000000000000000000000000000081526004016104fc906111e4565b60405180910390fd5b60055442101561054a576040517f08c379a0000000000000000000000000000000000000000000000000000000008152600401610541906111c4565b60405180910390fd5b6000341161058d576040517f08c379a000000000000000000000000000000000000000000000000000000000815260040161058490611204565b60405180910390fd5b6006544211156105ed576002600460006101000a81548160ff021916908360028111156105e3577f4e487b7100000000000000000000000000000000000000000000000000000000600052602160045260246000fd5b0217905550600080fd5b34600360008282546105ff9190611290565b9250508190555034600960003373ffffffffffffffffffffffffffffffffffffffff1673ffffffffffffffffffffffffffffffffffffffff16815260200190815260200160002060008282546106559190611290565b925050819055506106663334610bf0565b7f861dabf52ad90ff59a8e6619b769cf37da3f0414d3dccb0649f4b853779c20a8336000543460035460405161069f94939291906110a9565b60405180910390a160019250505090565b600160009054906101000a900473ffffffffffffffffffffffffffffffffffffffff1681565b600460159054906101000a900460ff1681565b60025481565b60096020528060005260406000206000915090505481565b600460019054906101000a900473ffffffffffffffffffffffffffffffffffffffff1681565b60005481565b60065481565b600a6020528060005260406000206000915090505481565b600280600281111561078c577f4e487b7100000000000000000000000000000000000000000000000000000000600052602160045260246000fd5b600460009054906101000a900460ff1660028111156107d4577f4e487b7100000000000000000000000000000000000000000000000000000000600052602160045260246000fd5b14610814576040517f08c379a000000000000000000000000000000000000000000000000000000000815260040161080b90611124565b60405180910390fd5b600160009054906101000a900473ffffffffffffffffffffffffffffffffffffffff1673ffffffffffffffffffffffffffffffffffffffff163373ffffffffffffffffffffffffffffffffffffffff1614156108a5576040517f08c379a000000000000000000000000000000000000000000000000000000000815260040161089c906111a4565b60405180910390fd5b6000600960003373ffffffffffffffffffffffffffffffffffffffff1673ffffffffffffffffffffffffffffffffffffffff1681526020019081526020016000205411610927576040517f08c379a000000000000000000000000000000000000000000000000000000000815260040161091e90611184565b60405180910390fd5b3373ffffffffffffffffffffffffffffffffffffffff166108fc600960003373ffffffffffffffffffffffffffffffffffffffff1673ffffffffffffffffffffffffffffffffffffffff168152602001908152602001600020549081150290604051600060405180830381858888f193505050501580156109ac573d6000803e3d6000fd5b507fbb28353e4598c3b9199101a66e0989549b659a59a54d2c27fbb183f1932c8e6d33600960003373ffffffffffffffffffffffffffffffffffffffff1673ffffffffffffffffffffffffffffffffffffffff16815260200190815260200160002054604051610a1d929190611080565b60405180910390a150565b60035481565b600460009054906101000a900460ff1681565b338073ffffffffffffffffffffffffffffffffffffffff163373ffffffffffffffffffffffffffffffffffffffff1614610ab0576040517f08c379a0000000000000000000000000000000000000000000000000000000008152600401610aa790611244565b60405180910390fd5b6006544211610af4576040517f08c379a0000000000000000000000000000000000000000000000000000000008152600401610aeb90611224565b60405180910390fd5b600060035411610b39576040517f08c379a0000000000000000000000000000000000000000000000000000000008152600401610b3090611164565b60405180910390fd5b600160009054906101000a900473ffffffffffffffffffffffffffffffffffffffff1673ffffffffffffffffffffffffffffffffffffffff166108fc6003549081150290604051600060405180830381858888f19350505050158015610ba3573d6000803e3d6000fd5b5060006003819055507f14f433c13badc2239830ab3bb19e75dec63d39f851363844cc4e4650d0c9b60133600354604051610bdf929190611080565b60405180910390a150565b60055481565b600060075490505b6000811115610ca45760088181548110610c3b577f4e487b7100000000000000000000000000000000000000000000000000000000600052603260045260246000fd5b90600052602060002001548210610c915780600a60008573ffffffffffffffffffffffffffffffffffffffff1673ffffffffffffffffffffffffffffffffffffffff168152602001908152602001600020819055505b8080610c9c90611365565b915050610bf8565b505050565b600081359050610cb881611401565b92915050565b600060208284031215610cd057600080fd5b6000610cde84828501610ca9565b91505092915050565b610cf0816112f8565b82525050565b610cff816112e6565b82525050565b610d0e8161130a565b82525050565b610d1d81611353565b82525050565b6000610d3060168361127f565b91507f5374617465206d757374206265207468652073616d65000000000000000000006000830152602082019050919050565b6000610d7060188361127f565b91507f43616e6e6f7420626520746865206164647265737328302900000000000000006000830152602082019050919050565b6000610db060178361127f565b91507f42616c616e63652063616e6e6f7420626520656d7074790000000000000000006000830152602082019050919050565b6000610df060288361127f565b91507f596f752068617665206e6f742070617274696369706174656420696e2074686560008301527f2063616d7061696e0000000000000000000000000000000000000000000000006020830152604082019050919050565b6000610e5660198361127f565b91507f4e6f20726566756e6420666f72207468652063726561746f72000000000000006000830152602082019050919050565b6000610e96601f8361127f565b91507f5468652063616d7061696e20686173206e6f74207374617274656420796574006000830152602082019050919050565b6000610ed660388361127f565b91507f5b464f5242494444454e5d205468652063726561746f722063616e6e6f74206660008301527f756e64726169736520686973206f776e2063616d7061696e00000000000000006020830152604082019050919050565b6000610f3c60268361127f565b91507f416d6f756e742063616e6e6f74206265206c657373206f7220657175616c207460008301527f6f207a65726f00000000000000000000000000000000000000000000000000006020830152604082019050919050565b6000610fa2601d8361127f565b91507f5468652063616d7061696e20686173206e6f7420656e646564207965740000006000830152602082019050919050565b6000610fe260308361127f565b91507f5b464f5242494444454e5d20596f7520617265206e6f7420746865206f776e6560008301527f72206f66207468652063616d7061696e000000000000000000000000000000006020830152604082019050919050565b61104481611349565b82525050565b600060208201905061105f6000830184610cf6565b92915050565b600060208201905061107a6000830184610ce7565b92915050565b60006040820190506110956000830185610cf6565b6110a2602083018461103b565b9392505050565b60006080820190506110be6000830187610cf6565b6110cb602083018661103b565b6110d8604083018561103b565b6110e5606083018461103b565b95945050505050565b60006020820190506111036000830184610d05565b92915050565b600060208201905061111e6000830184610d14565b92915050565b6000602082019050818103600083015261113d81610d23565b9050919050565b6000602082019050818103600083015261115d81610d63565b9050919050565b6000602082019050818103600083015261117d81610da3565b9050919050565b6000602082019050818103600083015261119d81610de3565b9050919050565b600060208201905081810360008301526111bd81610e49565b9050919050565b600060208201905081810360008301526111dd81610e89565b9050919050565b600060208201905081810360008301526111fd81610ec9565b9050919050565b6000602082019050818103600083015261121d81610f2f565b9050919050565b6000602082019050818103600083015261123d81610f95565b9050919050565b6000602082019050818103600083015261125d81610fd5565b9050919050565b6000602082019050611279600083018461103b565b92915050565b600082825260208201905092915050565b600061129b82611349565b91506112a683611349565b9250827fffffffffffffffffffffffffffffffffffffffffffffffffffffffffffffffff038211156112db576112da61138f565b5b828201905092915050565b60006112f182611329565b9050919050565b600061130382611329565b9050919050565b60008115159050919050565b6000819050611324826113ed565b919050565b600073ffffffffffffffffffffffffffffffffffffffff82169050919050565b6000819050919050565b600061135e82611316565b9050919050565b600061137082611349565b915060008214156113845761138361138f565b5b600182039050919050565b7f4e487b7100000000000000000000000000000000000000000000000000000000600052601160045260246000fd5b7f4e487b7100000000000000000000000000000000000000000000000000000000600052602160045260246000fd5b600381106113fe576113fd6113be565b5b50565b61140a816112e6565b811461141557600080fd5b5056fea2646970667358221220591e0392c76c7b8695a40abd732c5a4a8e1239a3589f6944d17ba770d4c397f164736f6c63430008000033",
  "immutableReferences": {},
  "source": "pragma solidity ^0.8.0;\r\n\r\nimport '@openzeppelin/contracts/utils/math/SafeMath.sol';\r\n\r\ncontract Campain {\r\n\r\n    using SafeMath for uint256;\r\n\r\n    enum State {\r\n        Fundraising,\r\n        Successfull,\r\n        Expired\r\n    }\r\n\r\n    // General information about the campain\r\n    uint public campain_id;\r\n    address payable public creator;\r\n    uint public goal;\r\n    uint256 public balance;\r\n    State public state;\r\n    address public owner;\r\n    bool public partialGoal;\r\n\r\n    // Starting and ending date for the campain\r\n    uint public startTimestamp;\r\n    uint public endTimestamp;\r\n\r\n    // Tiers\r\n    uint nbTiers;\r\n    uint[] tiers;\r\n\r\n    mapping(address => uint) public contributions;\r\n    mapping(address => uint) public contributionsTiers;\r\n\r\n    // **************************** //\r\n    // *         Events           * //\r\n    // **************************** //\r\n    event CampainCreated(address creator, uint timestamp, uint goal);\r\n\r\n    // Participation from an address\r\n    event Participation(address from, uint campain_id, uint amount, uint balance);\r\n\r\n    // Event triggered when the creator has been paid\r\n    event CreatorPaid(address creator, uint total_amount);\r\n\r\n    event Refund(address from, uint refundAmount);\r\n\r\n    // **************************** //\r\n    // *         Modifiers        * //\r\n    // **************************** //\r\n\r\n    modifier changeState(State state_) {\r\n        require(state != state_, 'State must be different');\r\n        state = state_;\r\n        _;\r\n    }\r\n\r\n    modifier verifyState(State state_) {\r\n        require(state == state_, 'State must be the same');\r\n        _;\r\n    }\r\n\r\n    modifier validAddress(address from) {\r\n        require(from != address(0), 'Cannot be the address(0)');\r\n        _;\r\n    }\r\n\r\n    modifier validAmount(uint amount_) {\r\n        require(amount_ > 0, 'Amount cannot be equal or less than 0');\r\n        _;\r\n    }\r\n\r\n    modifier verifyOwner(address owner_) {\r\n        require(msg.sender == owner_, '[FORBIDDEN] You are not the owner of the campain');\r\n        _;\r\n    }\r\n\r\n    constructor(\r\n        address payable creator_,\r\n        uint campain_id_,\r\n        uint goal_,\r\n        uint startTimestamp_,\r\n        uint endTimestamp_,\r\n        bool partialGoal_,\r\n        uint nbTiers_,\r\n        uint[] memory tiers_\r\n        ) {\r\n            creator = creator_;\r\n            campain_id = campain_id_;\r\n            goal = goal_;\r\n            startTimestamp = startTimestamp_;\r\n            endTimestamp = endTimestamp_;\r\n            state = State.Fundraising;\r\n            owner = creator;\r\n            balance = 0;\r\n            partialGoal = partialGoal_;\r\n            require(tiers_.length == nbTiers_, 'Numbers of tiers dont match the tiers list');\r\n            nbTiers = nbTiers_;\r\n            tiers = tiers_;\r\n            emit CampainCreated(creator, block.timestamp, goal);\r\n    }\r\n\r\n    function payCreator() public verifyOwner(msg.sender) {\r\n        require(block.timestamp > endTimestamp, 'The campain has not ended yet');\r\n        require(balance > 0, 'Balance cannot be empty');\r\n        creator.transfer(balance);\r\n        balance = 0;\r\n        emit CreatorPaid(msg.sender, balance);\r\n    }\r\n\r\n    function participate() payable public verifyState(State.Fundraising) validAddress(msg.sender) returns(bool success) {\r\n        require(msg.sender != creator, '[FORBIDDEN] The creator cannot fundraise his own campain');\r\n        require(block.timestamp >= startTimestamp, 'The campain has not started yet');\r\n        require(msg.value > 0, 'Amount cannot be less or equal to zero');\r\n        if (block.timestamp > endTimestamp) {\r\n            state = State.Expired;\r\n            revert();\r\n        }\r\n\r\n        //  adding the transaction value to the balance\r\n        balance += msg.value;\r\n        contributions[msg.sender] += msg.value;\r\n        \r\n        // setting up the tiers for the transaction\r\n        setTiers(msg.sender, msg.value);\r\n        \r\n        emit Participation(msg.sender, campain_id, msg.value, balance);\r\n        return true;\r\n    }\r\n\r\n    function getRefund() public verifyState(State.Expired) {\r\n        require(msg.sender != creator, 'No refund for the creator');\r\n        require(contributions[msg.sender] > 0, 'You have not participated in the campain');\r\n        payable(msg.sender).transfer(contributions[msg.sender]);\r\n        emit Refund(msg.sender, contributions[msg.sender]);\r\n    }\r\n\r\n    // Send ether to the contract\r\n    receive() external payable {\r\n        participate();\r\n    }\r\n\r\n    /**\r\n        Internal function\r\n     */\r\n\r\n    function setTiers(address from, uint amount) internal {\r\n        for (uint i = nbTiers; i > 0; i--) {\r\n            if (amount >= tiers[i]) {\r\n                contributionsTiers[from] = i;\r\n            }\r\n        }\r\n    }\r\n    \r\n\r\n}",
  "sourcePath": "C:\\Users\\Hugo\\Desktop\\dev\\crowdfunding\\contracts\\Campain.sol",
  "compiler": {
    "name": "solc",
    "version": "0.8.0+commit.c7dfd78e.Emscripten.clang"
  },
  "schemaVersion": "3.3.4",
  "updatedAt": "2021-04-22T18:08:02.750Z",
  "networkType": "ethereum",
  "devdoc": {
    "kind": "dev",
    "methods": {},
    "version": 1
  },
  "userdoc": {
    "kind": "user",
    "methods": {},
    "version": 1
  }
}