{
  "contractName": "Campaign",
  "abi": [
    {
      "inputs": [
        {
          "internalType": "address payable",
          "name": "creator_",
          "type": "address"
        },
        {
          "internalType": "uint256",
          "name": "campaign_id_",
          "type": "uint256"
        },
        {
          "internalType": "uint256",
          "name": "goal_",
          "type": "uint256"
        },
        {
          "internalType": "uint256",
          "name": "startTimestamp_",
          "type": "uint256"
        },
        {
          "internalType": "uint256",
          "name": "endTimestamp_",
          "type": "uint256"
        },
        {
          "internalType": "bool",
          "name": "partialGoal_",
          "type": "bool"
        },
        {
          "internalType": "contract IERC20",
          "name": "token_",
          "type": "address"
        },
        {
          "internalType": "uint256",
          "name": "nbTiers_",
          "type": "uint256"
        },
        {
          "internalType": "uint256[]",
          "name": "tiers_",
          "type": "uint256[]"
        }
      ],
      "stateMutability": "nonpayable",
      "type": "constructor"
    },
    {
      "anonymous": false,
      "inputs": [
        {
          "indexed": false,
          "internalType": "address",
          "name": "creator",
          "type": "address"
        },
        {
          "indexed": false,
          "internalType": "uint256",
          "name": "timestamp",
          "type": "uint256"
        },
        {
          "indexed": false,
          "internalType": "uint256",
          "name": "goal",
          "type": "uint256"
        },
        {
          "indexed": false,
          "internalType": "contract IERC20",
          "name": "token",
          "type": "address"
        }
      ],
      "name": "CampaignCreated",
      "type": "event"
    },
    {
      "anonymous": false,
      "inputs": [
        {
          "indexed": false,
          "internalType": "address",
          "name": "creator",
          "type": "address"
        },
        {
          "indexed": false,
          "internalType": "uint256",
          "name": "total_amount",
          "type": "uint256"
        }
      ],
      "name": "CreatorPaid",
      "type": "event"
    },
    {
      "anonymous": false,
      "inputs": [
        {
          "indexed": false,
          "internalType": "address",
          "name": "from",
          "type": "address"
        },
        {
          "indexed": false,
          "internalType": "uint256",
          "name": "campaign_id",
          "type": "uint256"
        },
        {
          "indexed": false,
          "internalType": "uint256",
          "name": "amount",
          "type": "uint256"
        },
        {
          "indexed": false,
          "internalType": "uint256",
          "name": "totalBalance",
          "type": "uint256"
        }
      ],
      "name": "Participation",
      "type": "event"
    },
    {
      "anonymous": false,
      "inputs": [
        {
          "indexed": false,
          "internalType": "address",
          "name": "from",
          "type": "address"
        },
        {
          "indexed": false,
          "internalType": "uint256",
          "name": "refundAmount",
          "type": "uint256"
        }
      ],
      "name": "Refund",
      "type": "event"
    },
    {
      "inputs": [],
      "name": "campaign_address",
      "outputs": [
        {
          "internalType": "address",
          "name": "",
          "type": "address"
        }
      ],
      "stateMutability": "view",
      "type": "function"
    },
    {
      "inputs": [],
      "name": "campaign_id",
      "outputs": [
        {
          "internalType": "uint256",
          "name": "",
          "type": "uint256"
        }
      ],
      "stateMutability": "view",
      "type": "function"
    },
    {
      "inputs": [
        {
          "internalType": "address",
          "name": "",
          "type": "address"
        }
      ],
      "name": "contributions",
      "outputs": [
        {
          "internalType": "uint256",
          "name": "",
          "type": "uint256"
        }
      ],
      "stateMutability": "view",
      "type": "function"
    },
    {
      "inputs": [
        {
          "internalType": "address",
          "name": "",
          "type": "address"
        }
      ],
      "name": "contributionsTiers",
      "outputs": [
        {
          "internalType": "uint256",
          "name": "",
          "type": "uint256"
        }
      ],
      "stateMutability": "view",
      "type": "function"
    },
    {
      "inputs": [],
      "name": "creator",
      "outputs": [
        {
          "internalType": "address payable",
          "name": "",
          "type": "address"
        }
      ],
      "stateMutability": "view",
      "type": "function"
    },
    {
      "inputs": [],
      "name": "endTimestamp",
      "outputs": [
        {
          "internalType": "uint256",
          "name": "",
          "type": "uint256"
        }
      ],
      "stateMutability": "view",
      "type": "function"
    },
    {
      "inputs": [],
      "name": "goal",
      "outputs": [
        {
          "internalType": "uint256",
          "name": "",
          "type": "uint256"
        }
      ],
      "stateMutability": "view",
      "type": "function"
    },
    {
      "inputs": [],
      "name": "owner",
      "outputs": [
        {
          "internalType": "address",
          "name": "",
          "type": "address"
        }
      ],
      "stateMutability": "view",
      "type": "function"
    },
    {
      "inputs": [],
      "name": "partialGoal",
      "outputs": [
        {
          "internalType": "bool",
          "name": "",
          "type": "bool"
        }
      ],
      "stateMutability": "view",
      "type": "function"
    },
    {
      "inputs": [],
      "name": "startTimestamp",
      "outputs": [
        {
          "internalType": "uint256",
          "name": "",
          "type": "uint256"
        }
      ],
      "stateMutability": "view",
      "type": "function"
    },
    {
      "inputs": [],
      "name": "state",
      "outputs": [
        {
          "internalType": "enum Campaign.State",
          "name": "",
          "type": "uint8"
        }
      ],
      "stateMutability": "view",
      "type": "function"
    },
    {
      "inputs": [
        {
          "internalType": "uint256",
          "name": "",
          "type": "uint256"
        }
      ],
      "name": "tiersList",
      "outputs": [
        {
          "internalType": "uint256",
          "name": "index",
          "type": "uint256"
        },
        {
          "internalType": "uint256",
          "name": "price",
          "type": "uint256"
        },
        {
          "internalType": "uint256",
          "name": "quantity",
          "type": "uint256"
        }
      ],
      "stateMutability": "view",
      "type": "function"
    },
    {
      "inputs": [],
      "name": "totalBalance",
      "outputs": [
        {
          "internalType": "uint256",
          "name": "",
          "type": "uint256"
        }
      ],
      "stateMutability": "view",
      "type": "function"
    },
    {
      "stateMutability": "payable",
      "type": "receive"
    },
    {
      "inputs": [],
      "name": "approveCrowdfunding",
      "outputs": [
        {
          "internalType": "bool",
          "name": "",
          "type": "bool"
        }
      ],
      "stateMutability": "nonpayable",
      "type": "function"
    },
    {
      "inputs": [
        {
          "internalType": "uint256",
          "name": "index",
          "type": "uint256"
        },
        {
          "internalType": "uint256",
          "name": "price",
          "type": "uint256"
        },
        {
          "internalType": "uint256",
          "name": "quantity",
          "type": "uint256"
        }
      ],
      "name": "addTiers",
      "outputs": [],
      "stateMutability": "nonpayable",
      "type": "function"
    },
    {
      "inputs": [],
      "name": "payCreator",
      "outputs": [],
      "stateMutability": "nonpayable",
      "type": "function"
    },
    {
      "inputs": [],
      "name": "participateInETH",
      "outputs": [
        {
          "internalType": "bool",
          "name": "success",
          "type": "bool"
        }
      ],
      "stateMutability": "payable",
      "type": "function"
    },
    {
      "inputs": [
        {
          "internalType": "uint256",
          "name": "amount",
          "type": "uint256"
        }
      ],
      "name": "participateInERC20",
      "outputs": [
        {
          "internalType": "bool",
          "name": "success",
          "type": "bool"
        }
      ],
      "stateMutability": "payable",
      "type": "function"
    },
    {
      "inputs": [],
      "name": "refund",
      "outputs": [],
      "stateMutability": "nonpayable",
      "type": "function"
    }
  ],
  "bytecode": "0x60806040523480156200001157600080fd5b506040516200301d3803806200301d83398181016040528101906200003791906200061e565b88600160006101000a81548173ffffffffffffffffffffffffffffffffffffffff021916908373ffffffffffffffffffffffffffffffffffffffff160217905550876000819055508660028190555085600881905550846009819055506001600460006101000a81548160ff02191690836004811115620000e1577f4e487b7100000000000000000000000000000000000000000000000000000000600052602160045260246000fd5b0217905550600160009054906101000a900473ffffffffffffffffffffffffffffffffffffffff16600460016101000a81548173ffffffffffffffffffffffffffffffffffffffff021916908373ffffffffffffffffffffffffffffffffffffffff160217905550600060038190555083600560146101000a81548160ff02191690831515021790555080518214620001b1576040517f08c379a0000000000000000000000000000000000000000000000000000000008152600401620001a8906200083a565b60405180910390fd5b81600781905550620001c981620002df60201b60201c565b82600660006101000a81548173ffffffffffffffffffffffffffffffffffffffff021916908373ffffffffffffffffffffffffffffffffffffffff16021790555030600560006101000a81548173ffffffffffffffffffffffffffffffffffffffff021916908373ffffffffffffffffffffffffffffffffffffffff1602179055507fcf0012d18af395c887296a469375feab5555a551ccf50f70e50f70ba5b625e86600160009054906101000a900473ffffffffffffffffffffffffffffffffffffffff1642600254600660009054906101000a900473ffffffffffffffffffffffffffffffffffffffff16604051620002c89493929190620007ed565b60405180910390a150505050505050505062000b43565b600080600080600090505b6007548110156200043557600060038262000306919062000a16565b1415620003525784818151811062000347577f4e487b7100000000000000000000000000000000000000000000000000000000600052603260045260246000fd5b602002602001015193505b600160038262000363919062000a16565b1415620003af57848181518110620003a4577f4e487b7100000000000000000000000000000000000000000000000000000000600052603260045260246000fd5b602002602001015192505b6002600382620003c0919062000a16565b14156200041f5784818151811062000401577f4e487b7100000000000000000000000000000000000000000000000000000000600052603260045260246000fd5b602002602001015191506200041e8484846200043c60201b60201c565b5b80806200042c90620009c8565b915050620002ea565b5050505050565b338073ffffffffffffffffffffffffffffffffffffffff163373ffffffffffffffffffffffffffffffffffffffff1614620004ae576040517f08c379a0000000000000000000000000000000000000000000000000000000008152600401620004a5906200085c565b60405180910390fd5b60006040518060600160405280868152602001858152602001848152509050600a81908060018154018082558091505060019003906000526020600020906003020160009091909190915060008201518160000155602082015181600101556040820151816002015550505050505050565b6000620005376200053184620008b2565b6200087e565b905080838252602082019050828560208602820111156200055757600080fd5b60005b858110156200058b578162000570888262000607565b8452602084019350602083019250506001810190506200055a565b5050509392505050565b600081519050620005a68162000adb565b92915050565b600082601f830112620005be57600080fd5b8151620005d084826020860162000520565b91505092915050565b600081519050620005ea8162000af5565b92915050565b600081519050620006018162000b0f565b92915050565b600081519050620006188162000b29565b92915050565b60008060008060008060008060006101208a8c0312156200063e57600080fd5b60006200064e8c828d0162000595565b9950506020620006618c828d0162000607565b9850506040620006748c828d0162000607565b9750506060620006878c828d0162000607565b96505060806200069a8c828d0162000607565b95505060a0620006ad8c828d01620005d9565b94505060c0620006c08c828d01620005f0565b93505060e0620006d38c828d0162000607565b9250506101008a015167ffffffffffffffff811115620006f257600080fd5b620007008c828d01620005ac565b9150509295985092959850929598565b6200071b8162000964565b82525050565b6200072c8162000978565b82525050565b600062000741600e83620008e1565b91507f4e6f7420636f6d70617469626c650000000000000000000000000000000000006000830152602082019050919050565b600062000783603183620008e1565b91507f5b464f5242494444454e5d20596f7520617265206e6f7420746865206f776e6560008301527f72206f66207468652063616d706169676e0000000000000000000000000000006020830152604082019050919050565b620007e7816200095a565b82525050565b600060808201905062000804600083018762000710565b620008136020830186620007dc565b620008226040830185620007dc565b62000831606083018462000721565b95945050505050565b60006020820190508181036000830152620008558162000732565b9050919050565b60006020820190508181036000830152620008778162000774565b9050919050565b6000604051905081810181811067ffffffffffffffff82111715620008a857620008a762000aac565b5b8060405250919050565b600067ffffffffffffffff821115620008d057620008cf62000aac565b5b602082029050602081019050919050565b600082825260208201905092915050565b6000620008ff826200093a565b9050919050565b600062000913826200093a565b9050919050565b60008115159050919050565b60006200093382620008f2565b9050919050565b600073ffffffffffffffffffffffffffffffffffffffff82169050919050565b6000819050919050565b60006200097182620009a0565b9050919050565b600062000985826200098c565b9050919050565b600062000999826200093a565b9050919050565b6000620009ad82620009b4565b9050919050565b6000620009c1826200093a565b9050919050565b6000620009d5826200095a565b91507fffffffffffffffffffffffffffffffffffffffffffffffffffffffffffffffff82141562000a0b5762000a0a62000a4e565b5b600182019050919050565b600062000a23826200095a565b915062000a30836200095a565b92508262000a435762000a4262000a7d565b5b828206905092915050565b7f4e487b7100000000000000000000000000000000000000000000000000000000600052601160045260246000fd5b7f4e487b7100000000000000000000000000000000000000000000000000000000600052601260045260246000fd5b7f4e487b7100000000000000000000000000000000000000000000000000000000600052604160045260246000fd5b62000ae68162000906565b811462000af257600080fd5b50565b62000b00816200091a565b811462000b0c57600080fd5b50565b62000b1a8162000926565b811462000b2657600080fd5b50565b62000b34816200095a565b811462000b4057600080fd5b50565b6124ca8062000b536000396000f3fe6080604052600436106101185760003560e01c806390b20e0d116100a0578063d1bf217811610064578063d1bf2178146103ae578063dd27c3da146103d9578063e00824bb14610404578063e6fd48bc1461041b578063fd3a7dcd1461044657610128565b806390b20e0d146102c0578063a85adeab146102f0578063ad1a84491461031b578063ad7a672f14610358578063c19d93fb1461038357610128565b80634a34bb0c116100e75780634a34bb0c146101eb578063590e1ae3146102145780637416d1ba1461022b5780638da5cb5b146102565780638fa24faf1461028157610128565b806302d05d3f1461012d5780632fe3f6ed14610158578063401938831461018357806342e94c90146101ae57610128565b3661012857610125610464565b50005b600080fd5b34801561013957600080fd5b506101426108ed565b60405161014f9190611f72565b60405180910390f35b34801561016457600080fd5b5061016d610913565b60405161017a9190612032565b60405180910390f35b34801561018f57600080fd5b50610198610926565b6040516101a59190612228565b60405180910390f35b3480156101ba57600080fd5b506101d560048036038101906101d09190611943565b61092c565b6040516101e29190612228565b60405180910390f35b3480156101f757600080fd5b50610212600480360381019061020d91906119e7565b610944565b005b34801561022057600080fd5b50610229610a25565b005b34801561023757600080fd5b50610240610d47565b60405161024d9190612032565b60405180910390f35b34801561026257600080fd5b5061026b610e96565b6040516102789190611f57565b60405180910390f35b34801561028d57600080fd5b506102a860048036038101906102a39190611995565b610ebc565b6040516102b793929190612243565b60405180910390f35b6102da60048036038101906102d59190611995565b610ef6565b6040516102e79190612032565b60405180910390f35b3480156102fc57600080fd5b506103056115b3565b6040516103129190612228565b60405180910390f35b34801561032757600080fd5b50610342600480360381019061033d9190611943565b6115b9565b60405161034f9190612228565b60405180910390f35b34801561036457600080fd5b5061036d6115d1565b60405161037a9190612228565b60405180910390f35b34801561038f57600080fd5b506103986115d7565b6040516103a5919061204d565b60405180910390f35b3480156103ba57600080fd5b506103c36115ea565b6040516103d09190611f57565b60405180910390f35b3480156103e557600080fd5b506103ee611610565b6040516103fb9190612228565b60405180910390f35b34801561041057600080fd5b50610419611616565b005b34801561042757600080fd5b506104306117bf565b60405161043d9190612228565b60405180910390f35b61044e610464565b60405161045b9190612032565b60405180910390f35b60008073ffffffffffffffffffffffffffffffffffffffff16600660009054906101000a900473ffffffffffffffffffffffffffffffffffffffff1673ffffffffffffffffffffffffffffffffffffffff16146104f6576040517f08c379a00000000000000000000000000000000000000000000000000000000081526004016104ed906121c8565b60405180910390fd5b6001806004811115610531577f4e487b7100000000000000000000000000000000000000000000000000000000600052602160045260246000fd5b600460009054906101000a900460ff166004811115610579577f4e487b7100000000000000000000000000000000000000000000000000000000600052602160045260246000fd5b146105b9576040517f08c379a00000000000000000000000000000000000000000000000000000000081526004016105b090612068565b60405180910390fd5b33600073ffffffffffffffffffffffffffffffffffffffff168173ffffffffffffffffffffffffffffffffffffffff16141561062a576040517f08c379a000000000000000000000000000000000000000000000000000000000815260040161062190612088565b60405180910390fd5b600160009054906101000a900473ffffffffffffffffffffffffffffffffffffffff1673ffffffffffffffffffffffffffffffffffffffff163373ffffffffffffffffffffffffffffffffffffffff1614156106bb576040517f08c379a00000000000000000000000000000000000000000000000000000000081526004016106b2906121a8565b60405180910390fd5b600854421015610700576040517f08c379a00000000000000000000000000000000000000000000000000000000081526004016106f790612208565b60405180910390fd5b60003411610743576040517f08c379a000000000000000000000000000000000000000000000000000000000815260040161073a90612188565b60405180910390fd5b600954421180156107575750600354600254105b156107b6576002600460006101000a81548160ff021916908360048111156107a8577f4e487b7100000000000000000000000000000000000000000000000000000000600052602160045260246000fd5b0217905550600092506108e8565b600954421180156107ca5750600354600254115b15610829576002600460006101000a81548160ff0219169083600481111561081b577f4e487b7100000000000000000000000000000000000000000000000000000000600052602160045260246000fd5b0217905550600092506108e8565b346003600082825461083b919061228b565b9250508190555034600b60003373ffffffffffffffffffffffffffffffffffffffff1673ffffffffffffffffffffffffffffffffffffffff1681526020019081526020016000206000828254610891919061228b565b925050819055506108a233346117c5565b7f861dabf52ad90ff59a8e6619b769cf37da3f0414d3dccb0649f4b853779c20a833600054346003546040516108db9493929190611fed565b60405180910390a1600192505b505090565b600160009054906101000a900473ffffffffffffffffffffffffffffffffffffffff1681565b600560149054906101000a900460ff1681565b60025481565b600b6020528060005260406000206000915090505481565b338073ffffffffffffffffffffffffffffffffffffffff163373ffffffffffffffffffffffffffffffffffffffff16146109b3576040517f08c379a00000000000000000000000000000000000000000000000000000000081526004016109aa90612128565b60405180910390fd5b60006040518060600160405280868152602001858152602001848152509050600a81908060018154018082558091505060019003906000526020600020906003020160009091909190915060008201518160000155602082015181600101556040820151816002015550505050505050565b6003806004811115610a60577f4e487b7100000000000000000000000000000000000000000000000000000000600052602160045260246000fd5b600460009054906101000a900460ff166004811115610aa8577f4e487b7100000000000000000000000000000000000000000000000000000000600052602160045260246000fd5b14610ae8576040517f08c379a0000000000000000000000000000000000000000000000000000000008152600401610adf90612068565b60405180910390fd5b600160009054906101000a900473ffffffffffffffffffffffffffffffffffffffff1673ffffffffffffffffffffffffffffffffffffffff163373ffffffffffffffffffffffffffffffffffffffff161415610b79576040517f08c379a0000000000000000000000000000000000000000000000000000000008152600401610b7090612148565b60405180910390fd5b6000600b60003373ffffffffffffffffffffffffffffffffffffffff1673ffffffffffffffffffffffffffffffffffffffff1681526020019081526020016000205411610bfb576040517f08c379a0000000000000000000000000000000000000000000000000000000008152600401610bf2906120a8565b60405180910390fd5b6000600b60003373ffffffffffffffffffffffffffffffffffffffff1673ffffffffffffffffffffffffffffffffffffffff1681526020019081526020016000205490506000600b60003373ffffffffffffffffffffffffffffffffffffffff1673ffffffffffffffffffffffffffffffffffffffff168152602001908152602001600020819055503373ffffffffffffffffffffffffffffffffffffffff166108fc829081150290604051600060405180830381858888f19350505050158015610cca573d6000803e3d6000fd5b507fbb28353e4598c3b9199101a66e0989549b659a59a54d2c27fbb183f1932c8e6d33600b60003373ffffffffffffffffffffffffffffffffffffffff1673ffffffffffffffffffffffffffffffffffffffff16815260200190815260200160002054604051610d3b929190611fc4565b60405180910390a15050565b600080600660009054906101000a900473ffffffffffffffffffffffffffffffffffffffff16905060008173ffffffffffffffffffffffffffffffffffffffff166370a08231336040518263ffffffff1660e01b8152600401610daa9190611f57565b60206040518083038186803b158015610dc257600080fd5b505afa158015610dd6573d6000803e3d6000fd5b505050506040513d601f19601f82011682018060405250810190610dfa91906119be565b905060008273ffffffffffffffffffffffffffffffffffffffff1663095ea7b333846040518363ffffffff1660e01b8152600401610e39929190611fc4565b602060405180830381600087803b158015610e5357600080fd5b505af1158015610e67573d6000803e3d6000fd5b505050506040513d601f19601f82011682018060405250810190610e8b919061196c565b905080935050505090565b600460019054906101000a900473ffffffffffffffffffffffffffffffffffffffff1681565b600a8181548110610ecc57600080fd5b90600052602060002090600302016000915090508060000154908060010154908060020154905083565b60008073ffffffffffffffffffffffffffffffffffffffff16600660009054906101000a900473ffffffffffffffffffffffffffffffffffffffff1673ffffffffffffffffffffffffffffffffffffffff161415610f89576040517f08c379a0000000000000000000000000000000000000000000000000000000008152600401610f80906120c8565b60405180910390fd5b6001806004811115610fc4577f4e487b7100000000000000000000000000000000000000000000000000000000600052602160045260246000fd5b600460009054906101000a900460ff16600481111561100c577f4e487b7100000000000000000000000000000000000000000000000000000000600052602160045260246000fd5b1461104c576040517f08c379a000000000000000000000000000000000000000000000000000000000815260040161104390612068565b60405180910390fd5b33600073ffffffffffffffffffffffffffffffffffffffff168173ffffffffffffffffffffffffffffffffffffffff1614156110bd576040517f08c379a00000000000000000000000000000000000000000000000000000000081526004016110b490612088565b60405180910390fd5b600073ffffffffffffffffffffffffffffffffffffffff16600660009054906101000a900473ffffffffffffffffffffffffffffffffffffffff1673ffffffffffffffffffffffffffffffffffffffff16141561114f576040517f08c379a0000000000000000000000000000000000000000000000000000000008152600401611146906121e8565b60405180910390fd5b600160009054906101000a900473ffffffffffffffffffffffffffffffffffffffff1673ffffffffffffffffffffffffffffffffffffffff163373ffffffffffffffffffffffffffffffffffffffff1614156111e0576040517f08c379a00000000000000000000000000000000000000000000000000000000081526004016111d7906121a8565b60405180910390fd5b600854421015611225576040517f08c379a000000000000000000000000000000000000000000000000000000000815260040161121c90612208565b60405180910390fd5b60008411611268576040517f08c379a000000000000000000000000000000000000000000000000000000000815260040161125f90612188565b60405180910390fd5b6009544211801561127c5750600354600254105b156112db576003600460006101000a81548160ff021916908360048111156112cd577f4e487b7100000000000000000000000000000000000000000000000000000000600052602160045260246000fd5b0217905550600092506115ac565b600954421180156112ef5750600354600254115b1561134e576002600460006101000a81548160ff02191690836004811115611340577f4e487b7100000000000000000000000000000000000000000000000000000000600052602160045260246000fd5b0217905550600092506115ac565b83600660009054906101000a900473ffffffffffffffffffffffffffffffffffffffff1673ffffffffffffffffffffffffffffffffffffffff166370a08231336040518263ffffffff1660e01b81526004016113aa9190611f57565b60206040518083038186803b1580156113c257600080fd5b505afa1580156113d6573d6000803e3d6000fd5b505050506040513d601f19601f820116820180604052508101906113fa91906119be565b101561143b576040517f08c379a000000000000000000000000000000000000000000000000000000000815260040161143290612168565b60405180910390fd5b600660009054906101000a900473ffffffffffffffffffffffffffffffffffffffff1673ffffffffffffffffffffffffffffffffffffffff166323b872dd3330876040518463ffffffff1660e01b815260040161149a93929190611f8d565b602060405180830381600087803b1580156114b457600080fd5b505af11580156114c8573d6000803e3d6000fd5b505050506040513d601f19601f820116820180604052508101906114ec919061196c565b5083600360008282546114ff919061228b565b9250508190555083600b60003373ffffffffffffffffffffffffffffffffffffffff1673ffffffffffffffffffffffffffffffffffffffff1681526020019081526020016000206000828254611555919061228b565b9250508190555061156633856117c5565b7f861dabf52ad90ff59a8e6619b769cf37da3f0414d3dccb0649f4b853779c20a8336000548660035460405161159f9493929190611fed565b60405180910390a1600192505b5050919050565b60095481565b600c6020528060005260406000206000915090505481565b60035481565b600460009054906101000a900460ff1681565b600560009054906101000a900473ffffffffffffffffffffffffffffffffffffffff1681565b60005481565b338073ffffffffffffffffffffffffffffffffffffffff163373ffffffffffffffffffffffffffffffffffffffff1614611685576040517f08c379a000000000000000000000000000000000000000000000000000000000815260040161167c90612128565b60405180910390fd5b60095442116116c9576040517f08c379a00000000000000000000000000000000000000000000000000000000081526004016116c090612108565b60405180910390fd5b60006003541161170e576040517f08c379a0000000000000000000000000000000000000000000000000000000008152600401611705906120e8565b60405180910390fd5b600160009054906101000a900473ffffffffffffffffffffffffffffffffffffffff1673ffffffffffffffffffffffffffffffffffffffff166108fc6003549081150290604051600060405180830381858888f19350505050158015611778573d6000803e3d6000fd5b5060006003819055507f14f433c13badc2239830ab3bb19e75dec63d39f851363844cc4e4650d0c9b601336003546040516117b4929190611fc4565b60405180910390a150565b60085481565b60005b6007548110156118d457600a818154811061180c577f4e487b7100000000000000000000000000000000000000000000000000000000600052603260045260246000fd5b9060005260206000209060030201600101548214156118c15780600c60008573ffffffffffffffffffffffffffffffffffffffff1673ffffffffffffffffffffffffffffffffffffffff168152602001908152602001600020819055506118bf600a82815481106118a6577f4e487b7100000000000000000000000000000000000000000000000000000000600052603260045260246000fd5b90600052602060002090600302016002015460016118d9565b505b80806118cc90612394565b9150506117c8565b505050565b600081836118e791906122e1565b905092915050565b6000813590506118fe8161244f565b92915050565b60008151905061191381612466565b92915050565b6000813590506119288161247d565b92915050565b60008151905061193d8161247d565b92915050565b60006020828403121561195557600080fd5b6000611963848285016118ef565b91505092915050565b60006020828403121561197e57600080fd5b600061198c84828501611904565b91505092915050565b6000602082840312156119a757600080fd5b60006119b584828501611919565b91505092915050565b6000602082840312156119d057600080fd5b60006119de8482850161192e565b91505092915050565b6000806000606084860312156119fc57600080fd5b6000611a0a86828701611919565b9350506020611a1b86828701611919565b9250506040611a2c86828701611919565b9150509250925092565b611a3f81612327565b82525050565b611a4e81612315565b82525050565b611a5d81612339565b82525050565b611a6c81612382565b82525050565b6000611a7f60168361227a565b91507f5374617465206d757374206265207468652073616d65000000000000000000006000830152602082019050919050565b6000611abf60188361227a565b91507f43616e6e6f7420626520746865206164647265737328302900000000000000006000830152602082019050919050565b6000611aff60298361227a565b91507f596f752068617665206e6f742070617274696369706174656420696e2074686560008301527f2063616d706169676e00000000000000000000000000000000000000000000006020830152604082019050919050565b6000611b65602b8361227a565b91507f5b5741524e494e475d20546869732063616d706169676e206f6e6c792072656360008301527f65697665732045524332300000000000000000000000000000000000000000006020830152604082019050919050565b6000611bcb601c8361227a565b91507f746f74616c42616c616e63652063616e6e6f7420626520656d707479000000006000830152602082019050919050565b6000611c0b601e8361227a565b91507f5468652063616d706169676e20686173206e6f7420656e6465642079657400006000830152602082019050919050565b6000611c4b60318361227a565b91507f5b464f5242494444454e5d20596f7520617265206e6f7420746865206f776e6560008301527f72206f66207468652063616d706169676e0000000000000000000000000000006020830152604082019050919050565b6000611cb160198361227a565b91507f4e6f20726566756e6420666f72207468652063726561746f72000000000000006000830152602082019050919050565b6000611cf160398361227a565b91507f5b464f5242494444454e5d20596f7520646f6e2774206861766520746865206660008301527f756e647320666f722074686973207472616e73616374696f6e000000000000006020830152604082019050919050565b6000611d5760268361227a565b91507f416d6f756e742063616e6e6f74206265206c657373206f7220657175616c207460008301527f6f207a65726f00000000000000000000000000000000000000000000000000006020830152604082019050919050565b6000611dbd60398361227a565b91507f5b464f5242494444454e5d205468652063726561746f722063616e6e6f74206660008301527f756e64726169736520686973206f776e2063616d706169676e000000000000006020830152604082019050919050565b6000611e2360298361227a565b91507f5b5741524e494e475d20546869732063616d706169676e206f6e6c792072656360008301527f65697665732045544800000000000000000000000000000000000000000000006020830152604082019050919050565b6000611e8960488361227a565b91507f5b554e415554484f52495a45445d20546869732063616d706169676e2063616e60008301527f206f6e6c792062652066756e646564207573696e672074686520636f7272656360208301527f74204945524332300000000000000000000000000000000000000000000000006040830152606082019050919050565b6000611f1560208361227a565b91507f5468652063616d706169676e20686173206e6f742073746172746564207965746000830152602082019050919050565b611f5181612378565b82525050565b6000602082019050611f6c6000830184611a45565b92915050565b6000602082019050611f876000830184611a36565b92915050565b6000606082019050611fa26000830186611a45565b611faf6020830185611a45565b611fbc6040830184611f48565b949350505050565b6000604082019050611fd96000830185611a45565b611fe66020830184611f48565b9392505050565b60006080820190506120026000830187611a45565b61200f6020830186611f48565b61201c6040830185611f48565b6120296060830184611f48565b95945050505050565b60006020820190506120476000830184611a54565b92915050565b60006020820190506120626000830184611a63565b92915050565b6000602082019050818103600083015261208181611a72565b9050919050565b600060208201905081810360008301526120a181611ab2565b9050919050565b600060208201905081810360008301526120c181611af2565b9050919050565b600060208201905081810360008301526120e181611b58565b9050919050565b6000602082019050818103600083015261210181611bbe565b9050919050565b6000602082019050818103600083015261212181611bfe565b9050919050565b6000602082019050818103600083015261214181611c3e565b9050919050565b6000602082019050818103600083015261216181611ca4565b9050919050565b6000602082019050818103600083015261218181611ce4565b9050919050565b600060208201905081810360008301526121a181611d4a565b9050919050565b600060208201905081810360008301526121c181611db0565b9050919050565b600060208201905081810360008301526121e181611e16565b9050919050565b6000602082019050818103600083015261220181611e7c565b9050919050565b6000602082019050818103600083015261222181611f08565b9050919050565b600060208201905061223d6000830184611f48565b92915050565b60006060820190506122586000830186611f48565b6122656020830185611f48565b6122726040830184611f48565b949350505050565b600082825260208201905092915050565b600061229682612378565b91506122a183612378565b9250827fffffffffffffffffffffffffffffffffffffffffffffffffffffffffffffffff038211156122d6576122d56123dd565b5b828201905092915050565b60006122ec82612378565b91506122f783612378565b92508282101561230a576123096123dd565b5b828203905092915050565b600061232082612358565b9050919050565b600061233282612358565b9050919050565b60008115159050919050565b60008190506123538261243b565b919050565b600073ffffffffffffffffffffffffffffffffffffffff82169050919050565b6000819050919050565b600061238d82612345565b9050919050565b600061239f82612378565b91507fffffffffffffffffffffffffffffffffffffffffffffffffffffffffffffffff8214156123d2576123d16123dd565b5b600182019050919050565b7f4e487b7100000000000000000000000000000000000000000000000000000000600052601160045260246000fd5b7f4e487b7100000000000000000000000000000000000000000000000000000000600052602160045260246000fd5b6005811061244c5761244b61240c565b5b50565b61245881612315565b811461246357600080fd5b50565b61246f81612339565b811461247a57600080fd5b50565b61248681612378565b811461249157600080fd5b5056fea26469706673582212205ff030cee5936a613cacefc459680a82400183368b51a3c88555de4c271a305164736f6c63430008000033",
  "immutableReferences": {},
  "source": "pragma solidity ^0.8.0;\n\nimport \"@openzeppelin/contracts/utils/math/SafeMath.sol\";\nimport \"@openzeppelin/contracts/token/ERC20/utils/SafeERC20.sol\";\n\n\ncontract Campaign {\n\n    using SafeMath for uint256;\n    using SafeERC20 for IERC20;\n    \n    enum State {\n        NotStarted,\n        Fundraising,\n        Successfull,\n        Refund,\n        Canceled\n    }\n\n    \n\n    // General information about the campaign\n    uint public campaign_id;\n    address payable public creator;\n    uint public goal;\n    uint256 public totalBalance;\n    State public state;\n    address public owner;\n    address public campaign_address;\n    bool public partialGoal;\n    IERC20 private token;\n    uint nbTiers;\n\n    // Starting and ending date for the campaign\n    uint public startTimestamp;\n    uint public endTimestamp;\n\n    // Tiers\n    struct Tiers {\n        uint index;\n        uint price;\n        uint quantity;\n    }\n    Tiers[] public tiersList;\n\n    mapping(address => uint) public contributions;\n    mapping(address => uint) public contributionsTiers;\n\n    // **************************** //\n    // *         Events           * //\n    // **************************** //\n    event CampaignCreated(address creator, uint timestamp, uint goal, IERC20 token);\n\n    // Participation from an address\n    event Participation(address from, uint campaign_id, uint amount, uint totalBalance);\n\n    // Event triggered when the creator has been paid\n    event CreatorPaid(address creator, uint total_amount);\n\n    event Refund(address from, uint refundAmount);\n    \n\n    // **************************** //\n    // *         Modifiers        * //\n    // **************************** //\n\n    modifier changeState(State state_) {\n        require(state != state_, \"State must be different\");\n        state = state_;\n        _;\n    }\n\n    modifier verifyState(State state_) {\n        require(state == state_, \"State must be the same\");\n        _;\n    }\n\n    modifier validAddress(address from) {\n        require(from != address(0), \"Cannot be the address(0)\");\n        _;\n    }\n\n    modifier validAmount(uint amount_) {\n        require(amount_ > 0, \"Amount cannot be equal or less than 0\");\n        _;\n    }\n\n    modifier verifyOwner(address owner_) {\n        require(msg.sender == owner_, \"[FORBIDDEN] You are not the owner of the campaign\");\n        _;\n    }\n\n    modifier ETHOnly() {\n        require(token == IERC20(address(0)), \"[WARNING] This campaign only receives ETH\");\n        _;\n    }\n\n    modifier ERC20Only() {\n        require(token != IERC20(address(0)), \"[WARNING] This campaign only receives ERC20\");\n        _;\n    }\n\n    constructor(\n        address payable creator_,\n        uint campaign_id_,\n        uint goal_,\n        uint startTimestamp_,\n        uint endTimestamp_,\n        bool partialGoal_,\n        IERC20 token_,\n        uint nbTiers_,\n        uint[] memory tiers_\n        ) {\n            creator = creator_;\n            campaign_id = campaign_id_;\n            goal = goal_;\n            startTimestamp = startTimestamp_;\n            endTimestamp = endTimestamp_;\n            state = State.Fundraising;\n            owner = creator;\n            totalBalance = 0;\n            partialGoal = partialGoal_;\n            require(nbTiers_ == tiers_.length, \"Not compatible\");\n            nbTiers = nbTiers_;\n            addTiersFromList(tiers_);\n            token = token_;\n            campaign_address = address(this);\n            emit CampaignCreated(creator, block.timestamp, goal, token);\n    }\n    \n    function approveCrowdfunding() public returns(bool) {\n        IERC20 tokenCrowdfunding = token;\n        uint allowance = tokenCrowdfunding.balanceOf(msg.sender);\n        bool success = tokenCrowdfunding.approve(address(msg.sender), allowance);\n        return success;\n    }\n\n\n    function addTiers(uint index, uint price, uint quantity) public verifyOwner(msg.sender) {\n        Tiers memory newTier = Tiers(index, price, quantity);\n        tiersList.push(newTier);\n    }\n\n    function payCreator() public verifyOwner(msg.sender) {\n        require(block.timestamp > endTimestamp, \"The campaign has not ended yet\");\n        require(totalBalance > 0, \"totalBalance cannot be empty\");\n        creator.transfer(totalBalance);\n        totalBalance = 0;\n        emit CreatorPaid(msg.sender, totalBalance);\n    }\n\n    function participateInETH() payable public ETHOnly() verifyState(State.Fundraising) validAddress(msg.sender) returns(bool success) {\n        require(msg.sender != creator, \"[FORBIDDEN] The creator cannot fundraise his own campaign\");\n        require(block.timestamp >= startTimestamp, \"The campaign has not started yet\");\n        require(msg.value > 0, \"Amount cannot be less or equal to zero\");\n        if (block.timestamp > endTimestamp && goal < totalBalance) {\n            state = State.Successfull;\n            // [HLI] Ici je ne pense pas que a fonctionne. Revert() va annuler l'ensemble de ce qui s'est pass dans la tx.\n            // L'tat du contrat reviendra  son tat initial, et 'state' ne sera pas modifi.\n            return false;\n        }\n        if (block.timestamp > endTimestamp && goal > totalBalance) {\n                state = State.Successfull;\n                // [HLI] Mme remarque\n                return false;\n        }\n        //  adding the transaction value to the totalBalance\n        totalBalance += msg.value;\n        contributions[msg.sender] += msg.value;\n        \n        // cbk.contribute(msg.sender, amount, token);\n        \n        // setting up the tiers for the transaction\n        setTiers(msg.sender, msg.value);\n        \n        emit Participation(msg.sender, campaign_id, msg.value, totalBalance);\n        return true;\n    }\n\n\n    function participateInERC20(uint256 amount) payable public ERC20Only() verifyState(State.Fundraising) validAddress(msg.sender) returns(bool success) {\n            require(token != IERC20(address(0)), \"[UNAUTHORIZED] This campaign can only be funded using the correct IERC20\");\n            require(msg.sender != creator, \"[FORBIDDEN] The creator cannot fundraise his own campaign\");\n            require(block.timestamp >= startTimestamp, \"The campaign has not started yet\");\n            require(amount > 0, \"Amount cannot be less or equal to zero\");\n            if (block.timestamp > endTimestamp && goal < totalBalance) {\n                state = State.Refund;\n                // [HLI] Meme remarque que dans participateInETH()\n                // Vous devriez peut tre mettre ces fonctions dans une fonction de controle spare pour ne pas dupliquer la logique\n                return false;\n            }\n            if (block.timestamp > endTimestamp && goal > totalBalance) {\n                state = State.Successfull;\n                // [HLI] Pareil\n                return false;\n            }\n            //  adding the transaction value to the totalBalance\n            // [HLI] J'imagine que vous avez implment l'appele de \"approve\" dans votre UX\n            require(token.balanceOf(msg.sender) >= amount, \"[FORBIDDEN] You don't have the funds for this transaction\");\n            token.transferFrom(msg.sender, address(this), amount);\n            totalBalance += amount;\n            contributions[msg.sender] += amount;\n            \n            // cbk.contribute(msg.sender, amount, token);\n            \n            // setting up the tiers for the transaction\n            setTiers(msg.sender, amount);\n            \n            emit Participation(msg.sender, campaign_id, amount, totalBalance);\n            return true;\n        }\n    \n    function refund() public verifyState(State.Refund) {\n        require(msg.sender != creator, \"No refund for the creator\");\n        require(contributions[msg.sender] > 0, \"You have not participated in the campaign\");\n        // [HLI] Ici vous avez une vulnrabilit aux reentrancy attacks.\n        // https://quantstamp.com/blog/what-is-a-re-entrancy-attack\n        \n        uint myContribution = contributions[msg.sender];\n        contributions[msg.sender] = 0;\n        payable(msg.sender).transfer(myContribution);\n        \n\n        emit Refund(msg.sender, contributions[msg.sender]);\n    }\n\n    // Send ether to the contract\n    receive() external payable {\n        participateInETH();\n    }\n\n    // **************************** //\n    // *   Internal Function      * //\n    // **************************** //\n\n    function setTiers(address from, uint amount) internal {\n        for (uint i = 0; i < nbTiers; i++) {\n            if (amount == tiersList[i].price) {\n                contributionsTiers[from] = i;\n                SafeMath.sub(tiersList[i].quantity, 1);\n            }\n        }\n    }\n\n    function addTiersFromList(uint[] memory tList) internal {\n        uint tempIndex;\n        uint tempPrice;\n        uint tempQuantity;\n        for (uint j = 0; j < nbTiers; j++) {\n            if (j % 3 == 0) { tempIndex = tList[j]; }\n            if (j % 3 == 1) { tempPrice = tList[j]; }\n            if (j % 3 == 2) { \n                tempQuantity = tList[j];\n                addTiers(tempIndex, tempPrice, tempQuantity);\n            }\n        }\n    }\n    \n\n}",
  "sourcePath": "/Users/hderoche/project/crowdfunding-contracts/contracts/Campaign.sol",
  "compiler": {
    "name": "solc",
    "version": "0.8.0+commit.c7dfd78e.Emscripten.clang"
  },
  "schemaVersion": "3.3.3",
  "updatedAt": "2021-08-26T09:46:39.409Z",
  "devdoc": {
    "kind": "dev",
    "methods": {},
    "version": 1
  },
  "userdoc": {
    "kind": "user",
    "methods": {},
    "version": 1
  }
}