{
  "contractName": "CampaignFactory",
  "abi": [
    {
      "inputs": [],
      "stateMutability": "nonpayable",
      "type": "constructor"
    },
    {
      "anonymous": false,
      "inputs": [
        {
          "indexed": false,
          "internalType": "address",
          "name": "creator",
          "type": "address"
        },
        {
          "indexed": false,
          "internalType": "uint256",
          "name": "nbCampaign",
          "type": "uint256"
        },
        {
          "indexed": false,
          "internalType": "uint256",
          "name": "goal",
          "type": "uint256"
        }
      ],
      "name": "CampaignCreated",
      "type": "event"
    },
    {
      "anonymous": false,
      "inputs": [
        {
          "indexed": true,
          "internalType": "address",
          "name": "previousOwner",
          "type": "address"
        },
        {
          "indexed": true,
          "internalType": "address",
          "name": "newOwner",
          "type": "address"
        }
      ],
      "name": "OwnershipTransferred",
      "type": "event"
    },
    {
      "inputs": [
        {
          "internalType": "uint256",
          "name": "",
          "type": "uint256"
        }
      ],
      "name": "allCrowdFund",
      "outputs": [
        {
          "internalType": "address",
          "name": "",
          "type": "address"
        }
      ],
      "stateMutability": "view",
      "type": "function"
    },
    {
      "inputs": [
        {
          "internalType": "address",
          "name": "",
          "type": "address"
        }
      ],
      "name": "blacklist",
      "outputs": [
        {
          "internalType": "bool",
          "name": "",
          "type": "bool"
        }
      ],
      "stateMutability": "view",
      "type": "function"
    },
    {
      "inputs": [
        {
          "internalType": "address",
          "name": "",
          "type": "address"
        }
      ],
      "name": "campaigns",
      "outputs": [
        {
          "internalType": "contract Campaign",
          "name": "",
          "type": "address"
        }
      ],
      "stateMutability": "view",
      "type": "function"
    },
    {
      "inputs": [],
      "name": "nbCampaign",
      "outputs": [
        {
          "internalType": "uint256",
          "name": "",
          "type": "uint256"
        }
      ],
      "stateMutability": "view",
      "type": "function"
    },
    {
      "inputs": [],
      "name": "owner",
      "outputs": [
        {
          "internalType": "address",
          "name": "",
          "type": "address"
        }
      ],
      "stateMutability": "view",
      "type": "function"
    },
    {
      "inputs": [],
      "name": "renounceOwnership",
      "outputs": [],
      "stateMutability": "nonpayable",
      "type": "function"
    },
    {
      "inputs": [],
      "name": "token",
      "outputs": [
        {
          "internalType": "contract IERC20",
          "name": "",
          "type": "address"
        }
      ],
      "stateMutability": "view",
      "type": "function"
    },
    {
      "inputs": [
        {
          "internalType": "address",
          "name": "newOwner",
          "type": "address"
        }
      ],
      "name": "transferOwnership",
      "outputs": [],
      "stateMutability": "nonpayable",
      "type": "function"
    },
    {
      "inputs": [
        {
          "internalType": "uint256",
          "name": "goal_",
          "type": "uint256"
        },
        {
          "internalType": "uint256",
          "name": "startTimestamp_",
          "type": "uint256"
        },
        {
          "internalType": "uint256",
          "name": "endTimestamp_",
          "type": "uint256"
        },
        {
          "internalType": "bool",
          "name": "partialGoal_",
          "type": "bool"
        },
        {
          "internalType": "uint256",
          "name": "tokenChoice",
          "type": "uint256"
        },
        {
          "internalType": "uint256",
          "name": "nbTiers_",
          "type": "uint256"
        },
        {
          "internalType": "uint256[]",
          "name": "listTiers_",
          "type": "uint256[]"
        }
      ],
      "name": "createCampaign",
      "outputs": [
        {
          "internalType": "bool",
          "name": "",
          "type": "bool"
        }
      ],
      "stateMutability": "payable",
      "type": "function"
    },
    {
      "inputs": [
        {
          "internalType": "address",
          "name": "newAddress",
          "type": "address"
        }
      ],
      "name": "addToBlacklist",
      "outputs": [],
      "stateMutability": "nonpayable",
      "type": "function"
    },
    {
      "inputs": [
        {
          "internalType": "address",
          "name": "addressToRemove",
          "type": "address"
        }
      ],
      "name": "removeFromBlacklist",
      "outputs": [],
      "stateMutability": "nonpayable",
      "type": "function"
    }
  ],
  "bytecode": "0x608060405273dac17f958d2ee523a2206206994597c13d831ec7600760006101000a81548173ffffffffffffffffffffffffffffffffffffffff021916908373ffffffffffffffffffffffffffffffffffffffff1602179055506000600860006101000a81548173ffffffffffffffffffffffffffffffffffffffff021916908373ffffffffffffffffffffffffffffffffffffffff1602179055503480156100a757600080fd5b5060006100b861016360201b60201c565b9050806000806101000a81548173ffffffffffffffffffffffffffffffffffffffff021916908373ffffffffffffffffffffffffffffffffffffffff1602179055508073ffffffffffffffffffffffffffffffffffffffff16600073ffffffffffffffffffffffffffffffffffffffff167f8be0079c531659141344cd1fd0a4f28419497f9722a3daafe3b4186f6b6457e060405160405180910390a350600060048190555061016b565b600033905090565b61447e8061017a6000396000f3fe608060405260043610620000aa5760003560e01c8063715018a6116200006d578063715018a614620001c35780638da5cb5b14620001dd578063cf678222146200020d578063f2fde38b1462000243578063f9f92be41462000271578063fc0c546a14620002b557620000aa565b80631601d0b514620000af5780631efb5b2614620000f35780632ab87620146200012357806344337ea11462000167578063537df3b61462000195575b600080fd5b348015620000bc57600080fd5b50620000db6004803603810190620000d5919062000c5e565b620002e5565b604051620000ea9190620010e8565b60405180910390f35b3480156200010057600080fd5b506200010b62000318565b6040516200011a9190620011aa565b60405180910390f35b3480156200013057600080fd5b506200014f600480360381019062000149919062000c8a565b6200031e565b6040516200015e919062000fcb565b60405180910390f35b3480156200017457600080fd5b506200019360048036038101906200018d919062000c5e565b6200035e565b005b348015620001a257600080fd5b50620001c16004803603810190620001bb919062000c5e565b620003b8565b005b348015620001d057600080fd5b50620001db62000413565b005b348015620001ea57600080fd5b50620001f562000554565b60405162000204919062000fcb565b60405180910390f35b6200022b600480360381019062000225919062000cb6565b6200057d565b6040516200023a9190620010cb565b60405180910390f35b3480156200025057600080fd5b506200026f600480360381019062000269919062000c5e565b62000968565b005b3480156200027e57600080fd5b506200029d600480360381019062000297919062000c5e565b62000b1b565b604051620002ac9190620010cb565b60405180910390f35b348015620002c257600080fd5b50620002cd62000b3b565b604051620002dc919062001105565b60405180910390f35b60026020528060005260406000206000915054906101000a900473ffffffffffffffffffffffffffffffffffffffff1681565b60045481565b600381815481106200032f57600080fd5b906000526020600020016000915054906101000a900473ffffffffffffffffffffffffffffffffffffffff1681565b60018060008373ffffffffffffffffffffffffffffffffffffffff1673ffffffffffffffffffffffffffffffffffffffff16815260200190815260200160002060006101000a81548160ff02191690831515021790555050565b6000600160008373ffffffffffffffffffffffffffffffffffffffff1673ffffffffffffffffffffffffffffffffffffffff16815260200190815260200160002060006101000a81548160ff02191690831515021790555050565b6200041d62000b61565b73ffffffffffffffffffffffffffffffffffffffff166200043d62000554565b73ffffffffffffffffffffffffffffffffffffffff161462000496576040517f08c379a00000000000000000000000000000000000000000000000000000000081526004016200048d9062001188565b60405180910390fd5b600073ffffffffffffffffffffffffffffffffffffffff1660008054906101000a900473ffffffffffffffffffffffffffffffffffffffff1673ffffffffffffffffffffffffffffffffffffffff167f8be0079c531659141344cd1fd0a4f28419497f9722a3daafe3b4186f6b6457e060405160405180910390a360008060006101000a81548173ffffffffffffffffffffffffffffffffffffffff021916908373ffffffffffffffffffffffffffffffffffffffff160217905550565b60008060009054906101000a900473ffffffffffffffffffffffffffffffffffffffff16905090565b6000801515600160003373ffffffffffffffffffffffffffffffffffffffff1673ffffffffffffffffffffffffffffffffffffffff16815260200190815260200160002060009054906101000a900460ff1615151462000614576040517f08c379a00000000000000000000000000000000000000000000000000000000081526004016200060b9062001166565b60405180910390fd5b600073ffffffffffffffffffffffffffffffffffffffff163373ffffffffffffffffffffffffffffffffffffffff16141562000687576040517f08c379a00000000000000000000000000000000000000000000000000000000081526004016200067e9062001144565b60405180910390fd5b6000841415620006fa57600760009054906101000a900473ffffffffffffffffffffffffffffffffffffffff16600660006101000a81548173ffffffffffffffffffffffffffffffffffffffff021916908373ffffffffffffffffffffffffffffffffffffffff160217905550620007b1565b60018414156200076d57600860009054906101000a900473ffffffffffffffffffffffffffffffffffffffff16600660006101000a81548173ffffffffffffffffffffffffffffffffffffffff021916908373ffffffffffffffffffffffffffffffffffffffff160217905550620007b0565b6000600660006101000a81548173ffffffffffffffffffffffffffffffffffffffff021916908373ffffffffffffffffffffffffffffffffffffffff1602179055505b5b3360045489898989600660009054906101000a900473ffffffffffffffffffffffffffffffffffffffff168989604051620007ec9062000b69565b620008009998979695949392919062000fe8565b604051809103906000f0801580156200081d573d6000803e3d6000fd5b50600560006101000a81548173ffffffffffffffffffffffffffffffffffffffff021916908373ffffffffffffffffffffffffffffffffffffffff160217905550600560009054906101000a900473ffffffffffffffffffffffffffffffffffffffff16600260003373ffffffffffffffffffffffffffffffffffffffff1673ffffffffffffffffffffffffffffffffffffffff16815260200190815260200160002060006101000a81548173ffffffffffffffffffffffffffffffffffffffff021916908373ffffffffffffffffffffffffffffffffffffffff16021790555060016004600082825462000913919062001274565b925050819055507f681f945f90ca3793b37315ed6a012353c82c1b37ca023ef835c746461359f552336004548a60405162000951939291906200108e565b60405180910390a160019050979650505050505050565b6200097262000b61565b73ffffffffffffffffffffffffffffffffffffffff166200099262000554565b73ffffffffffffffffffffffffffffffffffffffff1614620009eb576040517f08c379a0000000000000000000000000000000000000000000000000000000008152600401620009e29062001188565b60405180910390fd5b600073ffffffffffffffffffffffffffffffffffffffff168173ffffffffffffffffffffffffffffffffffffffff16141562000a5e576040517f08c379a000000000000000000000000000000000000000000000000000000000815260040162000a559062001122565b60405180910390fd5b8073ffffffffffffffffffffffffffffffffffffffff1660008054906101000a900473ffffffffffffffffffffffffffffffffffffffff1673ffffffffffffffffffffffffffffffffffffffff167f8be0079c531659141344cd1fd0a4f28419497f9722a3daafe3b4186f6b6457e060405160405180910390a3806000806101000a81548173ffffffffffffffffffffffffffffffffffffffff021916908373ffffffffffffffffffffffffffffffffffffffff16021790555050565b60016020528060005260406000206000915054906101000a900460ff1681565b600660009054906101000a900473ffffffffffffffffffffffffffffffffffffffff1681565b600033905090565b61301d806200142c83390190565b600062000b8e62000b8884620011fb565b620011c7565b9050808382526020820190508285602086028201111562000bae57600080fd5b60005b8581101562000be2578162000bc7888262000c47565b84526020840193506020830192505060018101905062000bb1565b5050509392505050565b60008135905062000bfd81620013dd565b92915050565b600082601f83011262000c1557600080fd5b813562000c2784826020860162000b77565b91505092915050565b60008135905062000c4181620013f7565b92915050565b60008135905062000c588162001411565b92915050565b60006020828403121562000c7157600080fd5b600062000c818482850162000bec565b91505092915050565b60006020828403121562000c9d57600080fd5b600062000cad8482850162000c47565b91505092915050565b600080600080600080600060e0888a03121562000cd257600080fd5b600062000ce28a828b0162000c47565b975050602062000cf58a828b0162000c47565b965050604062000d088a828b0162000c47565b955050606062000d1b8a828b0162000c30565b945050608062000d2e8a828b0162000c47565b93505060a062000d418a828b0162000c47565b92505060c088013567ffffffffffffffff81111562000d5f57600080fd5b62000d6d8a828b0162000c03565b91505092959891949750929550565b600062000d8a838362000fa9565b60208301905092915050565b62000da181620012e5565b82525050565b62000db281620012d1565b82525050565b600062000dc5826200123a565b62000dd1818562001252565b935062000dde836200122a565b8060005b8381101562000e1557815162000df9888262000d7c565b975062000e068362001245565b92505060018101905062000de2565b5085935050505092915050565b62000e2d81620012f9565b82525050565b62000e3e816200132f565b82525050565b62000e4f8162001357565b82525050565b600062000e6460268362001263565b91507f4f776e61626c653a206e6577206f776e657220697320746865207a65726f206160008301527f64647265737300000000000000000000000000000000000000000000000000006020830152604082019050919050565b600062000ecc60118362001263565b91507f61646472657373206e6f742076616c69640000000000000000000000000000006000830152602082019050919050565b600062000f0e60328362001263565b91507f596f7520617265206e6f7420616c6c6f77656420746f20696e7465727261637460008301527f20776974682074686520636f6e747261637400000000000000000000000000006020830152604082019050919050565b600062000f7660208362001263565b91507f4f776e61626c653a2063616c6c6572206973206e6f7420746865206f776e65726000830152602082019050919050565b62000fb48162001325565b82525050565b62000fc58162001325565b82525050565b600060208201905062000fe2600083018462000da7565b92915050565b60006101208201905062001000600083018c62000d96565b6200100f602083018b62000fba565b6200101e604083018a62000fba565b6200102d606083018962000fba565b6200103c608083018862000fba565b6200104b60a083018762000e22565b6200105a60c083018662000e44565b6200106960e083018562000fba565b8181036101008301526200107e818462000db8565b90509a9950505050505050505050565b6000606082019050620010a5600083018662000da7565b620010b4602083018562000fba565b620010c3604083018462000fba565b949350505050565b6000602082019050620010e2600083018462000e22565b92915050565b6000602082019050620010ff600083018462000e33565b92915050565b60006020820190506200111c600083018462000e44565b92915050565b600060208201905081810360008301526200113d8162000e55565b9050919050565b600060208201905081810360008301526200115f8162000ebd565b9050919050565b60006020820190508181036000830152620011818162000eff565b9050919050565b60006020820190508181036000830152620011a38162000f67565b9050919050565b6000602082019050620011c1600083018462000fba565b92915050565b6000604051905081810181811067ffffffffffffffff82111715620011f157620011f0620013ae565b5b8060405250919050565b600067ffffffffffffffff821115620012195762001218620013ae565b5b602082029050602081019050919050565b6000819050602082019050919050565b600081519050919050565b6000602082019050919050565b600082825260208201905092915050565b600082825260208201905092915050565b6000620012818262001325565b91506200128e8362001325565b9250827fffffffffffffffffffffffffffffffffffffffffffffffffffffffffffffffff03821115620012c657620012c56200137f565b5b828201905092915050565b6000620012de8262001305565b9050919050565b6000620012f28262001305565b9050919050565b60008115159050919050565b600073ffffffffffffffffffffffffffffffffffffffff82169050919050565b6000819050919050565b60006200133c8262001343565b9050919050565b6000620013508262001305565b9050919050565b600062001364826200136b565b9050919050565b6000620013788262001305565b9050919050565b7f4e487b7100000000000000000000000000000000000000000000000000000000600052601160045260246000fd5b7f4e487b7100000000000000000000000000000000000000000000000000000000600052604160045260246000fd5b620013e881620012d1565b8114620013f457600080fd5b50565b6200140281620012f9565b81146200140e57600080fd5b50565b6200141c8162001325565b81146200142857600080fd5b5056fe60806040523480156200001157600080fd5b506040516200301d3803806200301d83398181016040528101906200003791906200061e565b88600160006101000a81548173ffffffffffffffffffffffffffffffffffffffff021916908373ffffffffffffffffffffffffffffffffffffffff160217905550876000819055508660028190555085600881905550846009819055506001600460006101000a81548160ff02191690836004811115620000e1577f4e487b7100000000000000000000000000000000000000000000000000000000600052602160045260246000fd5b0217905550600160009054906101000a900473ffffffffffffffffffffffffffffffffffffffff16600460016101000a81548173ffffffffffffffffffffffffffffffffffffffff021916908373ffffffffffffffffffffffffffffffffffffffff160217905550600060038190555083600560146101000a81548160ff02191690831515021790555080518214620001b1576040517f08c379a0000000000000000000000000000000000000000000000000000000008152600401620001a8906200083a565b60405180910390fd5b81600781905550620001c981620002df60201b60201c565b82600660006101000a81548173ffffffffffffffffffffffffffffffffffffffff021916908373ffffffffffffffffffffffffffffffffffffffff16021790555030600560006101000a81548173ffffffffffffffffffffffffffffffffffffffff021916908373ffffffffffffffffffffffffffffffffffffffff1602179055507fcf0012d18af395c887296a469375feab5555a551ccf50f70e50f70ba5b625e86600160009054906101000a900473ffffffffffffffffffffffffffffffffffffffff1642600254600660009054906101000a900473ffffffffffffffffffffffffffffffffffffffff16604051620002c89493929190620007ed565b60405180910390a150505050505050505062000b43565b600080600080600090505b6007548110156200043557600060038262000306919062000a16565b1415620003525784818151811062000347577f4e487b7100000000000000000000000000000000000000000000000000000000600052603260045260246000fd5b602002602001015193505b600160038262000363919062000a16565b1415620003af57848181518110620003a4577f4e487b7100000000000000000000000000000000000000000000000000000000600052603260045260246000fd5b602002602001015192505b6002600382620003c0919062000a16565b14156200041f5784818151811062000401577f4e487b7100000000000000000000000000000000000000000000000000000000600052603260045260246000fd5b602002602001015191506200041e8484846200043c60201b60201c565b5b80806200042c90620009c8565b915050620002ea565b5050505050565b338073ffffffffffffffffffffffffffffffffffffffff163373ffffffffffffffffffffffffffffffffffffffff1614620004ae576040517f08c379a0000000000000000000000000000000000000000000000000000000008152600401620004a5906200085c565b60405180910390fd5b60006040518060600160405280868152602001858152602001848152509050600a81908060018154018082558091505060019003906000526020600020906003020160009091909190915060008201518160000155602082015181600101556040820151816002015550505050505050565b6000620005376200053184620008b2565b6200087e565b905080838252602082019050828560208602820111156200055757600080fd5b60005b858110156200058b578162000570888262000607565b8452602084019350602083019250506001810190506200055a565b5050509392505050565b600081519050620005a68162000adb565b92915050565b600082601f830112620005be57600080fd5b8151620005d084826020860162000520565b91505092915050565b600081519050620005ea8162000af5565b92915050565b600081519050620006018162000b0f565b92915050565b600081519050620006188162000b29565b92915050565b60008060008060008060008060006101208a8c0312156200063e57600080fd5b60006200064e8c828d0162000595565b9950506020620006618c828d0162000607565b9850506040620006748c828d0162000607565b9750506060620006878c828d0162000607565b96505060806200069a8c828d0162000607565b95505060a0620006ad8c828d01620005d9565b94505060c0620006c08c828d01620005f0565b93505060e0620006d38c828d0162000607565b9250506101008a015167ffffffffffffffff811115620006f257600080fd5b620007008c828d01620005ac565b9150509295985092959850929598565b6200071b8162000964565b82525050565b6200072c8162000978565b82525050565b600062000741600e83620008e1565b91507f4e6f7420636f6d70617469626c650000000000000000000000000000000000006000830152602082019050919050565b600062000783603183620008e1565b91507f5b464f5242494444454e5d20596f7520617265206e6f7420746865206f776e6560008301527f72206f66207468652063616d706169676e0000000000000000000000000000006020830152604082019050919050565b620007e7816200095a565b82525050565b600060808201905062000804600083018762000710565b620008136020830186620007dc565b620008226040830185620007dc565b62000831606083018462000721565b95945050505050565b60006020820190508181036000830152620008558162000732565b9050919050565b60006020820190508181036000830152620008778162000774565b9050919050565b6000604051905081810181811067ffffffffffffffff82111715620008a857620008a762000aac565b5b8060405250919050565b600067ffffffffffffffff821115620008d057620008cf62000aac565b5b602082029050602081019050919050565b600082825260208201905092915050565b6000620008ff826200093a565b9050919050565b600062000913826200093a565b9050919050565b60008115159050919050565b60006200093382620008f2565b9050919050565b600073ffffffffffffffffffffffffffffffffffffffff82169050919050565b6000819050919050565b60006200097182620009a0565b9050919050565b600062000985826200098c565b9050919050565b600062000999826200093a565b9050919050565b6000620009ad82620009b4565b9050919050565b6000620009c1826200093a565b9050919050565b6000620009d5826200095a565b91507fffffffffffffffffffffffffffffffffffffffffffffffffffffffffffffffff82141562000a0b5762000a0a62000a4e565b5b600182019050919050565b600062000a23826200095a565b915062000a30836200095a565b92508262000a435762000a4262000a7d565b5b828206905092915050565b7f4e487b7100000000000000000000000000000000000000000000000000000000600052601160045260246000fd5b7f4e487b7100000000000000000000000000000000000000000000000000000000600052601260045260246000fd5b7f4e487b7100000000000000000000000000000000000000000000000000000000600052604160045260246000fd5b62000ae68162000906565b811462000af257600080fd5b50565b62000b00816200091a565b811462000b0c57600080fd5b50565b62000b1a8162000926565b811462000b2657600080fd5b50565b62000b34816200095a565b811462000b4057600080fd5b50565b6124ca8062000b536000396000f3fe6080604052600436106101185760003560e01c806390b20e0d116100a0578063d1bf217811610064578063d1bf2178146103ae578063dd27c3da146103d9578063e00824bb14610404578063e6fd48bc1461041b578063fd3a7dcd1461044657610128565b806390b20e0d146102c0578063a85adeab146102f0578063ad1a84491461031b578063ad7a672f14610358578063c19d93fb1461038357610128565b80634a34bb0c116100e75780634a34bb0c146101eb578063590e1ae3146102145780637416d1ba1461022b5780638da5cb5b146102565780638fa24faf1461028157610128565b806302d05d3f1461012d5780632fe3f6ed14610158578063401938831461018357806342e94c90146101ae57610128565b3661012857610125610464565b50005b600080fd5b34801561013957600080fd5b506101426108ed565b60405161014f9190611f72565b60405180910390f35b34801561016457600080fd5b5061016d610913565b60405161017a9190612032565b60405180910390f35b34801561018f57600080fd5b50610198610926565b6040516101a59190612228565b60405180910390f35b3480156101ba57600080fd5b506101d560048036038101906101d09190611943565b61092c565b6040516101e29190612228565b60405180910390f35b3480156101f757600080fd5b50610212600480360381019061020d91906119e7565b610944565b005b34801561022057600080fd5b50610229610a25565b005b34801561023757600080fd5b50610240610d47565b60405161024d9190612032565b60405180910390f35b34801561026257600080fd5b5061026b610e96565b6040516102789190611f57565b60405180910390f35b34801561028d57600080fd5b506102a860048036038101906102a39190611995565b610ebc565b6040516102b793929190612243565b60405180910390f35b6102da60048036038101906102d59190611995565b610ef6565b6040516102e79190612032565b60405180910390f35b3480156102fc57600080fd5b506103056115b3565b6040516103129190612228565b60405180910390f35b34801561032757600080fd5b50610342600480360381019061033d9190611943565b6115b9565b60405161034f9190612228565b60405180910390f35b34801561036457600080fd5b5061036d6115d1565b60405161037a9190612228565b60405180910390f35b34801561038f57600080fd5b506103986115d7565b6040516103a5919061204d565b60405180910390f35b3480156103ba57600080fd5b506103c36115ea565b6040516103d09190611f57565b60405180910390f35b3480156103e557600080fd5b506103ee611610565b6040516103fb9190612228565b60405180910390f35b34801561041057600080fd5b50610419611616565b005b34801561042757600080fd5b506104306117bf565b60405161043d9190612228565b60405180910390f35b61044e610464565b60405161045b9190612032565b60405180910390f35b60008073ffffffffffffffffffffffffffffffffffffffff16600660009054906101000a900473ffffffffffffffffffffffffffffffffffffffff1673ffffffffffffffffffffffffffffffffffffffff16146104f6576040517f08c379a00000000000000000000000000000000000000000000000000000000081526004016104ed906121c8565b60405180910390fd5b6001806004811115610531577f4e487b7100000000000000000000000000000000000000000000000000000000600052602160045260246000fd5b600460009054906101000a900460ff166004811115610579577f4e487b7100000000000000000000000000000000000000000000000000000000600052602160045260246000fd5b146105b9576040517f08c379a00000000000000000000000000000000000000000000000000000000081526004016105b090612068565b60405180910390fd5b33600073ffffffffffffffffffffffffffffffffffffffff168173ffffffffffffffffffffffffffffffffffffffff16141561062a576040517f08c379a000000000000000000000000000000000000000000000000000000000815260040161062190612088565b60405180910390fd5b600160009054906101000a900473ffffffffffffffffffffffffffffffffffffffff1673ffffffffffffffffffffffffffffffffffffffff163373ffffffffffffffffffffffffffffffffffffffff1614156106bb576040517f08c379a00000000000000000000000000000000000000000000000000000000081526004016106b2906121a8565b60405180910390fd5b600854421015610700576040517f08c379a00000000000000000000000000000000000000000000000000000000081526004016106f790612208565b60405180910390fd5b60003411610743576040517f08c379a000000000000000000000000000000000000000000000000000000000815260040161073a90612188565b60405180910390fd5b600954421180156107575750600354600254105b156107b6576002600460006101000a81548160ff021916908360048111156107a8577f4e487b7100000000000000000000000000000000000000000000000000000000600052602160045260246000fd5b0217905550600092506108e8565b600954421180156107ca5750600354600254115b15610829576002600460006101000a81548160ff0219169083600481111561081b577f4e487b7100000000000000000000000000000000000000000000000000000000600052602160045260246000fd5b0217905550600092506108e8565b346003600082825461083b919061228b565b9250508190555034600b60003373ffffffffffffffffffffffffffffffffffffffff1673ffffffffffffffffffffffffffffffffffffffff1681526020019081526020016000206000828254610891919061228b565b925050819055506108a233346117c5565b7f861dabf52ad90ff59a8e6619b769cf37da3f0414d3dccb0649f4b853779c20a833600054346003546040516108db9493929190611fed565b60405180910390a1600192505b505090565b600160009054906101000a900473ffffffffffffffffffffffffffffffffffffffff1681565b600560149054906101000a900460ff1681565b60025481565b600b6020528060005260406000206000915090505481565b338073ffffffffffffffffffffffffffffffffffffffff163373ffffffffffffffffffffffffffffffffffffffff16146109b3576040517f08c379a00000000000000000000000000000000000000000000000000000000081526004016109aa90612128565b60405180910390fd5b60006040518060600160405280868152602001858152602001848152509050600a81908060018154018082558091505060019003906000526020600020906003020160009091909190915060008201518160000155602082015181600101556040820151816002015550505050505050565b6003806004811115610a60577f4e487b7100000000000000000000000000000000000000000000000000000000600052602160045260246000fd5b600460009054906101000a900460ff166004811115610aa8577f4e487b7100000000000000000000000000000000000000000000000000000000600052602160045260246000fd5b14610ae8576040517f08c379a0000000000000000000000000000000000000000000000000000000008152600401610adf90612068565b60405180910390fd5b600160009054906101000a900473ffffffffffffffffffffffffffffffffffffffff1673ffffffffffffffffffffffffffffffffffffffff163373ffffffffffffffffffffffffffffffffffffffff161415610b79576040517f08c379a0000000000000000000000000000000000000000000000000000000008152600401610b7090612148565b60405180910390fd5b6000600b60003373ffffffffffffffffffffffffffffffffffffffff1673ffffffffffffffffffffffffffffffffffffffff1681526020019081526020016000205411610bfb576040517f08c379a0000000000000000000000000000000000000000000000000000000008152600401610bf2906120a8565b60405180910390fd5b6000600b60003373ffffffffffffffffffffffffffffffffffffffff1673ffffffffffffffffffffffffffffffffffffffff1681526020019081526020016000205490506000600b60003373ffffffffffffffffffffffffffffffffffffffff1673ffffffffffffffffffffffffffffffffffffffff168152602001908152602001600020819055503373ffffffffffffffffffffffffffffffffffffffff166108fc829081150290604051600060405180830381858888f19350505050158015610cca573d6000803e3d6000fd5b507fbb28353e4598c3b9199101a66e0989549b659a59a54d2c27fbb183f1932c8e6d33600b60003373ffffffffffffffffffffffffffffffffffffffff1673ffffffffffffffffffffffffffffffffffffffff16815260200190815260200160002054604051610d3b929190611fc4565b60405180910390a15050565b600080600660009054906101000a900473ffffffffffffffffffffffffffffffffffffffff16905060008173ffffffffffffffffffffffffffffffffffffffff166370a08231336040518263ffffffff1660e01b8152600401610daa9190611f57565b60206040518083038186803b158015610dc257600080fd5b505afa158015610dd6573d6000803e3d6000fd5b505050506040513d601f19601f82011682018060405250810190610dfa91906119be565b905060008273ffffffffffffffffffffffffffffffffffffffff1663095ea7b333846040518363ffffffff1660e01b8152600401610e39929190611fc4565b602060405180830381600087803b158015610e5357600080fd5b505af1158015610e67573d6000803e3d6000fd5b505050506040513d601f19601f82011682018060405250810190610e8b919061196c565b905080935050505090565b600460019054906101000a900473ffffffffffffffffffffffffffffffffffffffff1681565b600a8181548110610ecc57600080fd5b90600052602060002090600302016000915090508060000154908060010154908060020154905083565b60008073ffffffffffffffffffffffffffffffffffffffff16600660009054906101000a900473ffffffffffffffffffffffffffffffffffffffff1673ffffffffffffffffffffffffffffffffffffffff161415610f89576040517f08c379a0000000000000000000000000000000000000000000000000000000008152600401610f80906120c8565b60405180910390fd5b6001806004811115610fc4577f4e487b7100000000000000000000000000000000000000000000000000000000600052602160045260246000fd5b600460009054906101000a900460ff16600481111561100c577f4e487b7100000000000000000000000000000000000000000000000000000000600052602160045260246000fd5b1461104c576040517f08c379a000000000000000000000000000000000000000000000000000000000815260040161104390612068565b60405180910390fd5b33600073ffffffffffffffffffffffffffffffffffffffff168173ffffffffffffffffffffffffffffffffffffffff1614156110bd576040517f08c379a00000000000000000000000000000000000000000000000000000000081526004016110b490612088565b60405180910390fd5b600073ffffffffffffffffffffffffffffffffffffffff16600660009054906101000a900473ffffffffffffffffffffffffffffffffffffffff1673ffffffffffffffffffffffffffffffffffffffff16141561114f576040517f08c379a0000000000000000000000000000000000000000000000000000000008152600401611146906121e8565b60405180910390fd5b600160009054906101000a900473ffffffffffffffffffffffffffffffffffffffff1673ffffffffffffffffffffffffffffffffffffffff163373ffffffffffffffffffffffffffffffffffffffff1614156111e0576040517f08c379a00000000000000000000000000000000000000000000000000000000081526004016111d7906121a8565b60405180910390fd5b600854421015611225576040517f08c379a000000000000000000000000000000000000000000000000000000000815260040161121c90612208565b60405180910390fd5b60008411611268576040517f08c379a000000000000000000000000000000000000000000000000000000000815260040161125f90612188565b60405180910390fd5b6009544211801561127c5750600354600254105b156112db576003600460006101000a81548160ff021916908360048111156112cd577f4e487b7100000000000000000000000000000000000000000000000000000000600052602160045260246000fd5b0217905550600092506115ac565b600954421180156112ef5750600354600254115b1561134e576002600460006101000a81548160ff02191690836004811115611340577f4e487b7100000000000000000000000000000000000000000000000000000000600052602160045260246000fd5b0217905550600092506115ac565b83600660009054906101000a900473ffffffffffffffffffffffffffffffffffffffff1673ffffffffffffffffffffffffffffffffffffffff166370a08231336040518263ffffffff1660e01b81526004016113aa9190611f57565b60206040518083038186803b1580156113c257600080fd5b505afa1580156113d6573d6000803e3d6000fd5b505050506040513d601f19601f820116820180604052508101906113fa91906119be565b101561143b576040517f08c379a000000000000000000000000000000000000000000000000000000000815260040161143290612168565b60405180910390fd5b600660009054906101000a900473ffffffffffffffffffffffffffffffffffffffff1673ffffffffffffffffffffffffffffffffffffffff166323b872dd3330876040518463ffffffff1660e01b815260040161149a93929190611f8d565b602060405180830381600087803b1580156114b457600080fd5b505af11580156114c8573d6000803e3d6000fd5b505050506040513d601f19601f820116820180604052508101906114ec919061196c565b5083600360008282546114ff919061228b565b9250508190555083600b60003373ffffffffffffffffffffffffffffffffffffffff1673ffffffffffffffffffffffffffffffffffffffff1681526020019081526020016000206000828254611555919061228b565b9250508190555061156633856117c5565b7f861dabf52ad90ff59a8e6619b769cf37da3f0414d3dccb0649f4b853779c20a8336000548660035460405161159f9493929190611fed565b60405180910390a1600192505b5050919050565b60095481565b600c6020528060005260406000206000915090505481565b60035481565b600460009054906101000a900460ff1681565b600560009054906101000a900473ffffffffffffffffffffffffffffffffffffffff1681565b60005481565b338073ffffffffffffffffffffffffffffffffffffffff163373ffffffffffffffffffffffffffffffffffffffff1614611685576040517f08c379a000000000000000000000000000000000000000000000000000000000815260040161167c90612128565b60405180910390fd5b60095442116116c9576040517f08c379a00000000000000000000000000000000000000000000000000000000081526004016116c090612108565b60405180910390fd5b60006003541161170e576040517f08c379a0000000000000000000000000000000000000000000000000000000008152600401611705906120e8565b60405180910390fd5b600160009054906101000a900473ffffffffffffffffffffffffffffffffffffffff1673ffffffffffffffffffffffffffffffffffffffff166108fc6003549081150290604051600060405180830381858888f19350505050158015611778573d6000803e3d6000fd5b5060006003819055507f14f433c13badc2239830ab3bb19e75dec63d39f851363844cc4e4650d0c9b601336003546040516117b4929190611fc4565b60405180910390a150565b60085481565b60005b6007548110156118d457600a818154811061180c577f4e487b7100000000000000000000000000000000000000000000000000000000600052603260045260246000fd5b9060005260206000209060030201600101548214156118c15780600c60008573ffffffffffffffffffffffffffffffffffffffff1673ffffffffffffffffffffffffffffffffffffffff168152602001908152602001600020819055506118bf600a82815481106118a6577f4e487b7100000000000000000000000000000000000000000000000000000000600052603260045260246000fd5b90600052602060002090600302016002015460016118d9565b505b80806118cc90612394565b9150506117c8565b505050565b600081836118e791906122e1565b905092915050565b6000813590506118fe8161244f565b92915050565b60008151905061191381612466565b92915050565b6000813590506119288161247d565b92915050565b60008151905061193d8161247d565b92915050565b60006020828403121561195557600080fd5b6000611963848285016118ef565b91505092915050565b60006020828403121561197e57600080fd5b600061198c84828501611904565b91505092915050565b6000602082840312156119a757600080fd5b60006119b584828501611919565b91505092915050565b6000602082840312156119d057600080fd5b60006119de8482850161192e565b91505092915050565b6000806000606084860312156119fc57600080fd5b6000611a0a86828701611919565b9350506020611a1b86828701611919565b9250506040611a2c86828701611919565b9150509250925092565b611a3f81612327565b82525050565b611a4e81612315565b82525050565b611a5d81612339565b82525050565b611a6c81612382565b82525050565b6000611a7f60168361227a565b91507f5374617465206d757374206265207468652073616d65000000000000000000006000830152602082019050919050565b6000611abf60188361227a565b91507f43616e6e6f7420626520746865206164647265737328302900000000000000006000830152602082019050919050565b6000611aff60298361227a565b91507f596f752068617665206e6f742070617274696369706174656420696e2074686560008301527f2063616d706169676e00000000000000000000000000000000000000000000006020830152604082019050919050565b6000611b65602b8361227a565b91507f5b5741524e494e475d20546869732063616d706169676e206f6e6c792072656360008301527f65697665732045524332300000000000000000000000000000000000000000006020830152604082019050919050565b6000611bcb601c8361227a565b91507f746f74616c42616c616e63652063616e6e6f7420626520656d707479000000006000830152602082019050919050565b6000611c0b601e8361227a565b91507f5468652063616d706169676e20686173206e6f7420656e6465642079657400006000830152602082019050919050565b6000611c4b60318361227a565b91507f5b464f5242494444454e5d20596f7520617265206e6f7420746865206f776e6560008301527f72206f66207468652063616d706169676e0000000000000000000000000000006020830152604082019050919050565b6000611cb160198361227a565b91507f4e6f20726566756e6420666f72207468652063726561746f72000000000000006000830152602082019050919050565b6000611cf160398361227a565b91507f5b464f5242494444454e5d20596f7520646f6e2774206861766520746865206660008301527f756e647320666f722074686973207472616e73616374696f6e000000000000006020830152604082019050919050565b6000611d5760268361227a565b91507f416d6f756e742063616e6e6f74206265206c657373206f7220657175616c207460008301527f6f207a65726f00000000000000000000000000000000000000000000000000006020830152604082019050919050565b6000611dbd60398361227a565b91507f5b464f5242494444454e5d205468652063726561746f722063616e6e6f74206660008301527f756e64726169736520686973206f776e2063616d706169676e000000000000006020830152604082019050919050565b6000611e2360298361227a565b91507f5b5741524e494e475d20546869732063616d706169676e206f6e6c792072656360008301527f65697665732045544800000000000000000000000000000000000000000000006020830152604082019050919050565b6000611e8960488361227a565b91507f5b554e415554484f52495a45445d20546869732063616d706169676e2063616e60008301527f206f6e6c792062652066756e646564207573696e672074686520636f7272656360208301527f74204945524332300000000000000000000000000000000000000000000000006040830152606082019050919050565b6000611f1560208361227a565b91507f5468652063616d706169676e20686173206e6f742073746172746564207965746000830152602082019050919050565b611f5181612378565b82525050565b6000602082019050611f6c6000830184611a45565b92915050565b6000602082019050611f876000830184611a36565b92915050565b6000606082019050611fa26000830186611a45565b611faf6020830185611a45565b611fbc6040830184611f48565b949350505050565b6000604082019050611fd96000830185611a45565b611fe66020830184611f48565b9392505050565b60006080820190506120026000830187611a45565b61200f6020830186611f48565b61201c6040830185611f48565b6120296060830184611f48565b95945050505050565b60006020820190506120476000830184611a54565b92915050565b60006020820190506120626000830184611a63565b92915050565b6000602082019050818103600083015261208181611a72565b9050919050565b600060208201905081810360008301526120a181611ab2565b9050919050565b600060208201905081810360008301526120c181611af2565b9050919050565b600060208201905081810360008301526120e181611b58565b9050919050565b6000602082019050818103600083015261210181611bbe565b9050919050565b6000602082019050818103600083015261212181611bfe565b9050919050565b6000602082019050818103600083015261214181611c3e565b9050919050565b6000602082019050818103600083015261216181611ca4565b9050919050565b6000602082019050818103600083015261218181611ce4565b9050919050565b600060208201905081810360008301526121a181611d4a565b9050919050565b600060208201905081810360008301526121c181611db0565b9050919050565b600060208201905081810360008301526121e181611e16565b9050919050565b6000602082019050818103600083015261220181611e7c565b9050919050565b6000602082019050818103600083015261222181611f08565b9050919050565b600060208201905061223d6000830184611f48565b92915050565b60006060820190506122586000830186611f48565b6122656020830185611f48565b6122726040830184611f48565b949350505050565b600082825260208201905092915050565b600061229682612378565b91506122a183612378565b9250827fffffffffffffffffffffffffffffffffffffffffffffffffffffffffffffffff038211156122d6576122d56123dd565b5b828201905092915050565b60006122ec82612378565b91506122f783612378565b92508282101561230a576123096123dd565b5b828203905092915050565b600061232082612358565b9050919050565b600061233282612358565b9050919050565b60008115159050919050565b60008190506123538261243b565b919050565b600073ffffffffffffffffffffffffffffffffffffffff82169050919050565b6000819050919050565b600061238d82612345565b9050919050565b600061239f82612378565b91507fffffffffffffffffffffffffffffffffffffffffffffffffffffffffffffffff8214156123d2576123d16123dd565b5b600182019050919050565b7f4e487b7100000000000000000000000000000000000000000000000000000000600052601160045260246000fd5b7f4e487b7100000000000000000000000000000000000000000000000000000000600052602160045260246000fd5b6005811061244c5761244b61240c565b5b50565b61245881612315565b811461246357600080fd5b50565b61246f81612339565b811461247a57600080fd5b50565b61248681612378565b811461249157600080fd5b5056fea26469706673582212205ff030cee5936a613cacefc459680a82400183368b51a3c88555de4c271a305164736f6c63430008000033a26469706673582212209c4dba2297cc0875508dd8ea6a9beb7f3c971ef407d4286b825da1da6abeb1e664736f6c63430008000033",
  "immutableReferences": {},
  "source": "pragma solidity ^0.8.0;\n\nimport './Campaign.sol';\nimport '@openzeppelin/contracts/utils/math/SafeMath.sol';\nimport '@openzeppelin/contracts/access/Ownable.sol';\nimport '@openzeppelin/contracts/token/ERC20/IERC20.sol';\n\ncontract CampaignFactory is Ownable {\n\n    using SafeMath for uint;\n\n    mapping(address => bool) public blacklist;\n\n    mapping(address => Campaign) public campaigns;\n    address[]  public allCrowdFund;\n\n    uint256 public nbCampaign;\n    Campaign private newCampaign;\n    IERC20 public token;\n    \n    // TOKEN ADDRESSES\n    address usdt = address(0xdAC17F958D2ee523a2206206994597C13D831ec7);\n    address bbst = address(0);\n\n    event CampaignCreated(address creator, uint nbCampaign, uint goal);\n\n    modifier isWhitelisted() {\n        require(blacklist[msg.sender] == false, 'You are not allowed to interract with the contract');\n        _;\n    }\n\n    constructor() {\n        nbCampaign = 0;\n    }\n\n    function createCampaign(\n        uint goal_, \n        uint startTimestamp_, \n        uint endTimestamp_, \n        bool partialGoal_,\n        uint tokenChoice,\n        uint nbTiers_,\n        uint[] memory listTiers_\n        ) \n        payable\n        public\n        isWhitelisted()\n    returns(bool) {\n        require(msg.sender != address(0), 'address not valid');\n        if (tokenChoice == 0) {\n            token = IERC20(usdt);\n            \n        } else if (tokenChoice == 1) {\n            token = IERC20(bbst);\n            \n        } else {\n          // pay in ether\n          token = IERC20(address(0));\n        }\n        newCampaign = new Campaign(payable(msg.sender), nbCampaign, goal_, startTimestamp_, endTimestamp_, partialGoal_, token, nbTiers_, listTiers_);\n        campaigns[msg.sender] = newCampaign;\n        nbCampaign += 1;\n        emit CampaignCreated(msg.sender, nbCampaign, goal_);\n        return true;\n    }\n\n    function addToBlacklist(address newAddress) public {\n        blacklist[newAddress] = true;\n    }\n    \n    function removeFromBlacklist(address addressToRemove) public {\n        blacklist[addressToRemove] = false;\n    }\n\n\n}",
  "sourcePath": "/Users/hderoche/project/crowdfunding-contracts/contracts/CampaignFactory.sol",
  "compiler": {
    "name": "solc",
    "version": "0.8.0+commit.c7dfd78e.Emscripten.clang"
  },
  "schemaVersion": "3.3.3",
  "updatedAt": "2021-08-26T09:46:39.450Z",
  "devdoc": {
    "kind": "dev",
    "methods": {
      "owner()": {
        "details": "Returns the address of the current owner."
      },
      "renounceOwnership()": {
        "details": "Leaves the contract without owner. It will not be possible to call `onlyOwner` functions anymore. Can only be called by the current owner. NOTE: Renouncing ownership will leave the contract without an owner, thereby removing any functionality that is only available to the owner."
      },
      "transferOwnership(address)": {
        "details": "Transfers ownership of the contract to a new account (`newOwner`). Can only be called by the current owner."
      }
    },
    "version": 1
  },
  "userdoc": {
    "kind": "user",
    "methods": {},
    "version": 1
  }
}