{
  "contractName": "CampaignFactory",
  "abi": [
    {
      "inputs": [
        {
          "internalType": "address",
          "name": "masterCampaignAddress_",
          "type": "address"
        }
      ],
      "stateMutability": "nonpayable",
      "type": "constructor"
    },
    {
      "anonymous": false,
      "inputs": [
        {
          "indexed": false,
          "internalType": "address",
          "name": "campaign",
          "type": "address"
        },
        {
          "indexed": false,
          "internalType": "address",
          "name": "creator",
          "type": "address"
        },
        {
          "indexed": false,
          "internalType": "uint256",
          "name": "campaignId",
          "type": "uint256"
        },
        {
          "indexed": false,
          "internalType": "uint256",
          "name": "goal",
          "type": "uint256"
        }
      ],
      "name": "CampaignCreated",
      "type": "event"
    },
    {
      "inputs": [
        {
          "internalType": "uint256",
          "name": "",
          "type": "uint256"
        }
      ],
      "name": "allCrowdFund",
      "outputs": [
        {
          "internalType": "address",
          "name": "",
          "type": "address"
        }
      ],
      "stateMutability": "view",
      "type": "function"
    },
    {
      "inputs": [
        {
          "internalType": "address",
          "name": "",
          "type": "address"
        }
      ],
      "name": "blacklist",
      "outputs": [
        {
          "internalType": "bool",
          "name": "",
          "type": "bool"
        }
      ],
      "stateMutability": "view",
      "type": "function"
    },
    {
      "inputs": [
        {
          "internalType": "address",
          "name": "",
          "type": "address"
        }
      ],
      "name": "campaigns",
      "outputs": [
        {
          "internalType": "address",
          "name": "campaignAddress",
          "type": "address"
        },
        {
          "internalType": "uint256",
          "name": "id",
          "type": "uint256"
        }
      ],
      "stateMutability": "view",
      "type": "function"
    },
    {
      "inputs": [
        {
          "internalType": "address",
          "name": "",
          "type": "address"
        }
      ],
      "name": "creatorCampaignNumber",
      "outputs": [
        {
          "internalType": "uint256",
          "name": "",
          "type": "uint256"
        }
      ],
      "stateMutability": "view",
      "type": "function"
    },
    {
      "inputs": [
        {
          "internalType": "uint256",
          "name": "",
          "type": "uint256"
        }
      ],
      "name": "currencies",
      "outputs": [
        {
          "internalType": "address",
          "name": "",
          "type": "address"
        }
      ],
      "stateMutability": "view",
      "type": "function"
    },
    {
      "inputs": [],
      "name": "indexCurrencies",
      "outputs": [
        {
          "internalType": "uint256",
          "name": "",
          "type": "uint256"
        }
      ],
      "stateMutability": "view",
      "type": "function"
    },
    {
      "inputs": [],
      "name": "masterCampaignAddress",
      "outputs": [
        {
          "internalType": "address",
          "name": "",
          "type": "address"
        }
      ],
      "stateMutability": "view",
      "type": "function"
    },
    {
      "inputs": [],
      "name": "nbCampaign",
      "outputs": [
        {
          "internalType": "uint256",
          "name": "",
          "type": "uint256"
        }
      ],
      "stateMutability": "view",
      "type": "function"
    },
    {
      "inputs": [],
      "name": "token",
      "outputs": [
        {
          "internalType": "address",
          "name": "",
          "type": "address"
        }
      ],
      "stateMutability": "view",
      "type": "function"
    },
    {
      "inputs": [
        {
          "internalType": "address",
          "name": "newAddress",
          "type": "address"
        }
      ],
      "name": "setMasterCampaignAddress",
      "outputs": [
        {
          "internalType": "address",
          "name": "",
          "type": "address"
        }
      ],
      "stateMutability": "nonpayable",
      "type": "function"
    },
    {
      "inputs": [
        {
          "internalType": "uint256",
          "name": "index",
          "type": "uint256"
        }
      ],
      "name": "getCurrencies",
      "outputs": [
        {
          "internalType": "address",
          "name": "",
          "type": "address"
        }
      ],
      "stateMutability": "view",
      "type": "function"
    },
    {
      "inputs": [
        {
          "internalType": "uint256",
          "name": "index",
          "type": "uint256"
        },
        {
          "internalType": "address",
          "name": "currencyAddress",
          "type": "address"
        }
      ],
      "name": "setCurrencies",
      "outputs": [
        {
          "internalType": "bool",
          "name": "",
          "type": "bool"
        }
      ],
      "stateMutability": "nonpayable",
      "type": "function"
    },
    {
      "inputs": [
        {
          "internalType": "uint256",
          "name": "goal_",
          "type": "uint256"
        },
        {
          "internalType": "uint256",
          "name": "startTimestamp_",
          "type": "uint256"
        },
        {
          "internalType": "uint256",
          "name": "endTimestamp_",
          "type": "uint256"
        },
        {
          "internalType": "bool",
          "name": "partialGoal_",
          "type": "bool"
        },
        {
          "internalType": "uint256",
          "name": "tokenChoice",
          "type": "uint256"
        },
        {
          "internalType": "uint256",
          "name": "nbTiers_",
          "type": "uint256"
        },
        {
          "internalType": "uint256[]",
          "name": "listTiers_",
          "type": "uint256[]"
        }
      ],
      "name": "createCampaign",
      "outputs": [
        {
          "internalType": "bool",
          "name": "",
          "type": "bool"
        }
      ],
      "stateMutability": "payable",
      "type": "function"
    },
    {
      "inputs": [
        {
          "internalType": "address",
          "name": "newAddress",
          "type": "address"
        }
      ],
      "name": "addToBlacklist",
      "outputs": [],
      "stateMutability": "nonpayable",
      "type": "function"
    },
    {
      "inputs": [
        {
          "internalType": "address",
          "name": "addressToRemove",
          "type": "address"
        }
      ],
      "name": "removeFromBlacklist",
      "outputs": [],
      "stateMutability": "nonpayable",
      "type": "function"
    },
    {
      "inputs": [
        {
          "internalType": "address",
          "name": "creator",
          "type": "address"
        }
      ],
      "name": "getCampaign",
      "outputs": [
        {
          "components": [
            {
              "internalType": "address",
              "name": "campaignAddress",
              "type": "address"
            },
            {
              "internalType": "uint256",
              "name": "id",
              "type": "uint256"
            }
          ],
          "internalType": "struct CampaignFactory.CampaignSaved",
          "name": "_campaign",
          "type": "tuple"
        }
      ],
      "stateMutability": "view",
      "type": "function"
    }
  ],
  "bytecode": "0x60806040523480156200001157600080fd5b50604051620017a4380380620017a4833981810160405281019062000037919062000132565b600073dac17f958d2ee523a2206206994597c13d831ec7905062000063600082620000bd60201b60201c565b506000600781905550600060028190555081600660006101000a81548173ffffffffffffffffffffffffffffffffffffffff021916908373ffffffffffffffffffffffffffffffffffffffff1602179055505050620001ac565b6000816001600085815260200190815260200160002060006101000a81548173ffffffffffffffffffffffffffffffffffffffff021916908373ffffffffffffffffffffffffffffffffffffffff1602179055506001905092915050565b6000815190506200012c8162000192565b92915050565b6000602082840312156200014557600080fd5b600062000155848285016200011b565b91505092915050565b60006200016b8262000172565b9050919050565b600073ffffffffffffffffffffffffffffffffffffffff82169050919050565b6200019d816200015e565b8114620001a957600080fd5b50565b6115e880620001bc6000396000f3fe6080604052600436106100f35760003560e01c8063a95dd8571161008a578063f5dde07911610059578063f5dde0791461036a578063f6d1c271146103a7578063f9f92be4146103e4578063fc0c546a14610421576100f3565b8063a95dd857146102a7578063ba3b0f80146102d2578063cf6782221461030f578063e9a075841461033f576100f3565b806344337ea1116100c657806344337ea1146101db578063537df3b6146102045780635741c62d1461022d578063731301cf1461026a576100f3565b80631601d0b5146100f85780631efb5b26146101365780631fb49a7d146101615780632ab876201461019e575b600080fd5b34801561010457600080fd5b5061011f600480360381019061011a9190610dbc565b61044c565b60405161012d929190611268565b60405180910390f35b34801561014257600080fd5b5061014b610490565b6040516101589190611367565b60405180910390f35b34801561016d57600080fd5b5061018860048036038101906101839190610dbc565b610496565b6040516101959190611174565b60405180910390f35b3480156101aa57600080fd5b506101c560048036038101906101c09190610de5565b610503565b6040516101d29190611174565b60405180910390f35b3480156101e757600080fd5b5061020260048036038101906101fd9190610dbc565b610542565b005b34801561021057600080fd5b5061022b60048036038101906102269190610dbc565b61059c565b005b34801561023957600080fd5b50610254600480360381019061024f9190610dbc565b6105f6565b6040516102619190611367565b60405180910390f35b34801561027657600080fd5b50610291600480360381019061028c9190610dbc565b61060e565b60405161029e919061134c565b60405180910390f35b3480156102b357600080fd5b506102bc6106c7565b6040516102c99190611367565b60405180910390f35b3480156102de57600080fd5b506102f960048036038101906102f49190610de5565b6106cd565b6040516103069190611174565b60405180910390f35b61032960048036038101906103249190610e4a565b61074d565b6040516103369190611291565b60405180910390f35b34801561034b57600080fd5b50610354610ae5565b6040516103619190611174565b60405180910390f35b34801561037657600080fd5b50610391600480360381019061038c9190610e0e565b610b0b565b60405161039e9190611291565b60405180910390f35b3480156103b357600080fd5b506103ce60048036038101906103c99190610de5565b610b69565b6040516103db9190611174565b60405180910390f35b3480156103f057600080fd5b5061040b60048036038101906104069190610dbc565b610b9c565b6040516104189190611291565b60405180910390f35b34801561042d57600080fd5b50610436610bbc565b6040516104439190611174565b60405180910390f35b60036020528060005260406000206000915090508060000160009054906101000a900473ffffffffffffffffffffffffffffffffffffffff16908060010154905082565b60075481565b600081600660006101000a81548173ffffffffffffffffffffffffffffffffffffffff021916908373ffffffffffffffffffffffffffffffffffffffff160217905550600660009054906101000a900473ffffffffffffffffffffffffffffffffffffffff169050919050565b6005818154811061051357600080fd5b906000526020600020016000915054906101000a900473ffffffffffffffffffffffffffffffffffffffff1681565b60016000808373ffffffffffffffffffffffffffffffffffffffff1673ffffffffffffffffffffffffffffffffffffffff16815260200190815260200160002060006101000a81548160ff02191690831515021790555050565b60008060008373ffffffffffffffffffffffffffffffffffffffff1673ffffffffffffffffffffffffffffffffffffffff16815260200190815260200160002060006101000a81548160ff02191690831515021790555050565b60046020528060005260406000206000915090505481565b610616610cb7565b600360008373ffffffffffffffffffffffffffffffffffffffff1673ffffffffffffffffffffffffffffffffffffffff1681526020019081526020016000206040518060400160405290816000820160009054906101000a900473ffffffffffffffffffffffffffffffffffffffff1673ffffffffffffffffffffffffffffffffffffffff1673ffffffffffffffffffffffffffffffffffffffff1681526020016001820154815250509050919050565b60025481565b600080821015610712576040517f08c379a0000000000000000000000000000000000000000000000000000000008152600401610709906112ac565b60405180910390fd5b6001600083815260200190815260200160002060009054906101000a900473ffffffffffffffffffffffffffffffffffffffff169050919050565b60008015156000803373ffffffffffffffffffffffffffffffffffffffff1673ffffffffffffffffffffffffffffffffffffffff16815260200190815260200160002060009054906101000a900460ff161515146107e0576040517f08c379a00000000000000000000000000000000000000000000000000000000081526004016107d79061130c565b60405180910390fd5b600073ffffffffffffffffffffffffffffffffffffffff163373ffffffffffffffffffffffffffffffffffffffff161415610850576040517f08c379a0000000000000000000000000000000000000000000000000000000008152600401610847906112ec565b60405180910390fd5b6000841015610894576040517f08c379a000000000000000000000000000000000000000000000000000000000815260040161088b9061132c565b60405180910390fd5b60006108c1600660009054906101000a900473ffffffffffffffffffffffffffffffffffffffff16610be2565b905060008190508073ffffffffffffffffffffffffffffffffffffffff16636263dc8d336007548d8d8d8d600160008f815260200190815260200160002060009054906101000a900473ffffffffffffffffffffffffffffffffffffffff168d8d6040518a63ffffffff1660e01b8152600401610946999897969594939291906111d4565b600060405180830381600087803b15801561096057600080fd5b505af1158015610974573d6000803e3d6000fd5b505050506000600460003373ffffffffffffffffffffffffffffffffffffffff1673ffffffffffffffffffffffffffffffffffffffff16815260200190815260200160002054905060405180604001604052808473ffffffffffffffffffffffffffffffffffffffff16815260200182815250600360003373ffffffffffffffffffffffffffffffffffffffff1673ffffffffffffffffffffffffffffffffffffffff16815260200190815260200160002060008201518160000160006101000a81548173ffffffffffffffffffffffffffffffffffffffff021916908373ffffffffffffffffffffffffffffffffffffffff16021790555060208201518160010155905050600160076000828254610a8d9190611429565b925050819055507ffe76983af97e70cb1d5a3f3b21250c6bd2b5b9216dd3829a1cdab060e17ab15b82336007548e604051610acb949392919061118f565b60405180910390a160019350505050979650505050505050565b600660009054906101000a900473ffffffffffffffffffffffffffffffffffffffff1681565b6000816001600085815260200190815260200160002060006101000a81548173ffffffffffffffffffffffffffffffffffffffff021916908373ffffffffffffffffffffffffffffffffffffffff1602179055506001905092915050565b60016020528060005260406000206000915054906101000a900473ffffffffffffffffffffffffffffffffffffffff1681565b60006020528060005260406000206000915054906101000a900460ff1681565b600860009054906101000a900473ffffffffffffffffffffffffffffffffffffffff1681565b60006040517f3d602d80600a3d3981f3363d3d373d3d3d363d7300000000000000000000000081528260601b60148201527f5af43d82803e903d91602b57fd5bf3000000000000000000000000000000000060288201526037816000f0915050600073ffffffffffffffffffffffffffffffffffffffff168173ffffffffffffffffffffffffffffffffffffffff161415610cb2576040517f08c379a0000000000000000000000000000000000000000000000000000000008152600401610ca9906112cc565b60405180910390fd5b919050565b6040518060400160405280600073ffffffffffffffffffffffffffffffffffffffff168152602001600081525090565b6000610cfa610cf5846113b3565b611382565b90508083825260208201905082856020860282011115610d1957600080fd5b60005b85811015610d495781610d2f8882610da7565b845260208401935060208301925050600181019050610d1c565b5050509392505050565b600081359050610d628161156d565b92915050565b600082601f830112610d7957600080fd5b8135610d89848260208601610ce7565b91505092915050565b600081359050610da181611584565b92915050565b600081359050610db68161159b565b92915050565b600060208284031215610dce57600080fd5b6000610ddc84828501610d53565b91505092915050565b600060208284031215610df757600080fd5b6000610e0584828501610da7565b91505092915050565b60008060408385031215610e2157600080fd5b6000610e2f85828601610da7565b9250506020610e4085828601610d53565b9150509250929050565b600080600080600080600060e0888a031215610e6557600080fd5b6000610e738a828b01610da7565b9750506020610e848a828b01610da7565b9650506040610e958a828b01610da7565b9550506060610ea68a828b01610d92565b9450506080610eb78a828b01610da7565b93505060a0610ec88a828b01610da7565b92505060c088013567ffffffffffffffff811115610ee557600080fd5b610ef18a828b01610d68565b91505092959891949750929550565b6000610f0c8383611156565b60208301905092915050565b610f21816114d9565b82525050565b610f3081611491565b82525050565b610f3f8161147f565b82525050565b610f4e8161147f565b82525050565b6000610f5f826113ef565b610f698185611407565b9350610f74836113df565b8060005b83811015610fa5578151610f8c8882610f00565b9750610f97836113fa565b925050600181019050610f78565b5085935050505092915050565b610fbb816114a3565b82525050565b6000610fce601683611418565b91507f696e646578206d75737420626520706f736974697665000000000000000000006000830152602082019050919050565b600061100e601683611418565b91507f455243313136373a20637265617465206661696c6564000000000000000000006000830152602082019050919050565b600061104e601183611418565b91507f61646472657373206e6f742076616c69640000000000000000000000000000006000830152602082019050919050565b600061108e603283611418565b91507f596f7520617265206e6f7420616c6c6f77656420746f20696e7465727261637460008301527f20776974682074686520636f6e747261637400000000000000000000000000006020830152604082019050919050565b60006110f4601583611418565b91507f63616e6e6f74206265206c657373207468616e203000000000000000000000006000830152602082019050919050565b60408201600082015161113d6000850182610f36565b5060208201516111506020850182611156565b50505050565b61115f816114cf565b82525050565b61116e816114cf565b82525050565b60006020820190506111896000830184610f45565b92915050565b60006080820190506111a46000830187610f18565b6111b16020830186610f45565b6111be6040830185611165565b6111cb6060830184611165565b95945050505050565b6000610120820190506111ea600083018c610f27565b6111f7602083018b611165565b611204604083018a611165565b6112116060830189611165565b61121e6080830188611165565b61122b60a0830187610fb2565b61123860c0830186610f45565b61124560e0830185611165565b8181036101008301526112588184610f54565b90509a9950505050505050505050565b600060408201905061127d6000830185610f45565b61128a6020830184611165565b9392505050565b60006020820190506112a66000830184610fb2565b92915050565b600060208201905081810360008301526112c581610fc1565b9050919050565b600060208201905081810360008301526112e581611001565b9050919050565b6000602082019050818103600083015261130581611041565b9050919050565b6000602082019050818103600083015261132581611081565b9050919050565b60006020820190508181036000830152611345816110e7565b9050919050565b60006040820190506113616000830184611127565b92915050565b600060208201905061137c6000830184611165565b92915050565b6000604051905081810181811067ffffffffffffffff821117156113a9576113a861153e565b5b8060405250919050565b600067ffffffffffffffff8211156113ce576113cd61153e565b5b602082029050602081019050919050565b6000819050602082019050919050565b600081519050919050565b6000602082019050919050565b600082825260208201905092915050565b600082825260208201905092915050565b6000611434826114cf565b915061143f836114cf565b9250827fffffffffffffffffffffffffffffffffffffffffffffffffffffffffffffffff038211156114745761147361150f565b5b828201905092915050565b600061148a826114af565b9050919050565b600061149c826114af565b9050919050565b60008115159050919050565b600073ffffffffffffffffffffffffffffffffffffffff82169050919050565b6000819050919050565b60006114e4826114eb565b9050919050565b60006114f6826114fd565b9050919050565b6000611508826114af565b9050919050565b7f4e487b7100000000000000000000000000000000000000000000000000000000600052601160045260246000fd5b7f4e487b7100000000000000000000000000000000000000000000000000000000600052604160045260246000fd5b6115768161147f565b811461158157600080fd5b50565b61158d816114a3565b811461159857600080fd5b50565b6115a4816114cf565b81146115af57600080fd5b5056fea264697066735822122069edb14963a49ff5d0fb05de3a3847c5bbd4690c0a0d5ebcdd9e039fb811bec264736f6c63430008000033",
  "immutableReferences": {},
  "source": "pragma solidity ^0.8.0;\n\nimport \"./Campaign.sol\";\nimport \"./ICampaignFactory.sol\";\n\n// Using @openzeppelin contracts for better auditing.\nimport \"@openzeppelin/contracts/utils/math/SafeMath.sol\";\nimport \"@openzeppelin/contracts/access/Ownable.sol\";\nimport \"@openzeppelin/contracts/proxy/Clones.sol\";\n\n\n// When deploying & initilising\n// 1. Deploy the Campaign contract\n// 2. Deploy the CampaignFactory contract\n// 3. Set the masterCampaignAddress in the Factory Contract as the Campaign contract address\n// 4. Set the currencies wanted in the mapping as (index, address)\n\n\ncontract CampaignFactory {\n    using SafeMath for uint;\n\n    mapping(address => bool) public blacklist;\n    struct CampaignSaved {\n        address campaignAddress;\n        uint id;\n    }\n\n    mapping(uint => address) public currencies;\n    uint public indexCurrencies;\n    mapping(address => CampaignSaved) public campaigns;\n    mapping(address => uint) public creatorCampaignNumber;\n    address[]  public allCrowdFund;\n    address public masterCampaignAddress;\n    uint256 public nbCampaign;\n    address public token;\n    \n    // TOKEN ADDRESSES\n\n    event CampaignCreated(address campaign, address creator, uint256 campaignId, uint goal);\n\n    modifier isWhitelisted() {\n        require(blacklist[msg.sender] == false, 'You are not allowed to interract with the contract');\n        _;\n    }\n\n    constructor(address masterCampaignAddress_) {\n        address usdt = address(0xdAC17F958D2ee523a2206206994597C13D831ec7);\n        setCurrencies(0, usdt);\n        nbCampaign = 0;\n        indexCurrencies = 0;\n        masterCampaignAddress = masterCampaignAddress_;\n    }\n\n    // Setting up the proxy\n    function setMasterCampaignAddress(address newAddress) public returns(address) {\n        masterCampaignAddress = newAddress;\n        return(masterCampaignAddress);\n    }\n\n    // **************************** //\n    // *       Currencies         * //\n    // **************************** //\n\n    function getCurrencies(uint index) public view returns(address) {\n        require(index >= 0, \"index must be positive\");\n        return(currencies[index]);\n    }\n\n    function setCurrencies(uint index, address currencyAddress) public returns(bool) {\n        currencies[index] = currencyAddress;\n        return(true);\n    }\n\n    // **************************** //\n    // *      Initialisation      * //\n    // **************************** //\n\n    function createCampaign(\n        uint goal_, \n        uint startTimestamp_, \n        uint endTimestamp_, \n        bool partialGoal_,\n        uint tokenChoice,\n        uint nbTiers_,\n        uint[] memory listTiers_\n        ) payable external isWhitelisted() returns(bool) {\n            require(msg.sender != address(0), \"address not valid\");\n            require(tokenChoice >= 0, \"cannot be less than 0\");\n            // Setting up the proxy\n            address newCampaign = Clones.clone(masterCampaignAddress);\n            \n            address payable nA = payable(newCampaign);\n            Campaign(nA).initialize(payable(msg.sender), nbCampaign, goal_, startTimestamp_, endTimestamp_, partialGoal_, currencies[tokenChoice], nbTiers_, listTiers_);\n            \n            uint crCampaignNumber = creatorCampaignNumber[msg.sender];\n            campaigns[msg.sender] = CampaignSaved(newCampaign, crCampaignNumber);\n            nbCampaign += 1;\n            emit CampaignCreated(nA, msg.sender, nbCampaign, goal_);\n            return true;\n    }\n\n\n    // **************************** //\n    // *         Functions        * //\n    // **************************** //\n\n\n    function addToBlacklist(address newAddress) public {\n        blacklist[newAddress] = true;\n    }\n    \n    function removeFromBlacklist(address addressToRemove)  public {\n        blacklist[addressToRemove] = false;\n    }\n\n    function getCampaign(address creator) external view returns(CampaignSaved memory _campaign) {\n        return campaigns[creator];\n    }\n\n}",
  "sourcePath": "/Users/hderoche/Documents/project/crowdfunding-contracts/contracts/CampaignFactory.sol",
  "compiler": {
    "name": "solc",
    "version": "0.8.0+commit.c7dfd78e.Emscripten.clang"
  },
  "schemaVersion": "3.4.3",
  "updatedAt": "2022-01-12T14:04:49.464Z",
  "devdoc": {
    "kind": "dev",
    "methods": {},
    "version": 1
  },
  "userdoc": {
    "kind": "user",
    "methods": {},
    "version": 1
  }
}