{
  "contractName": "CampainFactory",
  "abi": [
    {
      "inputs": [],
      "stateMutability": "nonpayable",
      "type": "constructor"
    },
    {
      "anonymous": false,
      "inputs": [
        {
          "indexed": false,
          "internalType": "address",
          "name": "creator",
          "type": "address"
        },
        {
          "indexed": false,
          "internalType": "uint256",
          "name": "nbCampain",
          "type": "uint256"
        },
        {
          "indexed": false,
          "internalType": "uint256",
          "name": "goal",
          "type": "uint256"
        }
      ],
      "name": "CampainCreated",
      "type": "event"
    },
    {
      "inputs": [
        {
          "internalType": "uint256",
          "name": "",
          "type": "uint256"
        }
      ],
      "name": "allCrowdFund",
      "outputs": [
        {
          "internalType": "address",
          "name": "",
          "type": "address"
        }
      ],
      "stateMutability": "view",
      "type": "function"
    },
    {
      "inputs": [
        {
          "internalType": "address",
          "name": "",
          "type": "address"
        }
      ],
      "name": "campains",
      "outputs": [
        {
          "internalType": "contract Campain",
          "name": "",
          "type": "address"
        }
      ],
      "stateMutability": "view",
      "type": "function"
    },
    {
      "inputs": [],
      "name": "nbCampain",
      "outputs": [
        {
          "internalType": "uint256",
          "name": "",
          "type": "uint256"
        }
      ],
      "stateMutability": "view",
      "type": "function"
    },
    {
      "inputs": [
        {
          "internalType": "uint256",
          "name": "goal_",
          "type": "uint256"
        },
        {
          "internalType": "uint256",
          "name": "startTimestamp_",
          "type": "uint256"
        },
        {
          "internalType": "uint256",
          "name": "endTimestamp_",
          "type": "uint256"
        },
        {
          "internalType": "bool",
          "name": "partialGoal_",
          "type": "bool"
        },
        {
          "internalType": "uint256",
          "name": "nbTiers_",
          "type": "uint256"
        },
        {
          "internalType": "uint256[]",
          "name": "listTiers_",
          "type": "uint256[]"
        }
      ],
      "name": "createCampain",
      "outputs": [
        {
          "internalType": "bool",
          "name": "",
          "type": "bool"
        }
      ],
      "stateMutability": "payable",
      "type": "function"
    }
  ],
  "bytecode": "0x608060405234801561001057600080fd5b5060006002819055506125e9806100286000396000f3fe608060405260043610620000445760003560e01c80631b9d8d0514620000495780632ab87620146200007957806330c64dbd14620000bd578063c65a754d14620000f3575b600080fd5b3480156200005657600080fd5b506200006162000137565b60405162000070919062000828565b60405180910390f35b3480156200008657600080fd5b50620000a560048036038101906200009f9190620004d6565b6200013d565b604051620000b49190620006dd565b60405180910390f35b620000db6004803603810190620000d5919062000502565b6200017d565b604051620000ea9190620007cc565b60405180910390f35b3480156200010057600080fd5b506200011f6004803603810190620001199190620004aa565b62000382565b6040516200012e9190620007e9565b60405180910390f35b60025481565b600181815481106200014e57600080fd5b906000526020600020016000915054906101000a900473ffffffffffffffffffffffffffffffffffffffff1681565b60008073ffffffffffffffffffffffffffffffffffffffff163373ffffffffffffffffffffffffffffffffffffffff161415620001f1576040517f08c379a0000000000000000000000000000000000000000000000000000000008152600401620001e89062000806565b60405180910390fd5b336002548888888888886040516200020990620003b5565b6200021c989796959493929190620006fa565b604051809103906000f08015801562000239573d6000803e3d6000fd5b50600360006101000a81548173ffffffffffffffffffffffffffffffffffffffff021916908373ffffffffffffffffffffffffffffffffffffffff160217905550600360009054906101000a900473ffffffffffffffffffffffffffffffffffffffff166000803373ffffffffffffffffffffffffffffffffffffffff1673ffffffffffffffffffffffffffffffffffffffff16815260200190815260200160002060006101000a81548173ffffffffffffffffffffffffffffffffffffffff021916908373ffffffffffffffffffffffffffffffffffffffff1602179055506001600260008282546200032e9190620008f2565b925050819055507f93510d686774a542d9f88b394bd353add185c1d850dea9dc79a3f8db46703b6833600254896040516200036c939291906200078f565b60405180910390a1600190509695505050505050565b60006020528060005260406000206000915054906101000a900473ffffffffffffffffffffffffffffffffffffffff1681565b611b328062000a8283390190565b6000620003da620003d48462000879565b62000845565b90508083825260208201905082856020860282011115620003fa57600080fd5b60005b858110156200042e578162000413888262000493565b845260208401935060208301925050600181019050620003fd565b5050509392505050565b600081359050620004498162000a33565b92915050565b600082601f8301126200046157600080fd5b813562000473848260208601620003c3565b91505092915050565b6000813590506200048d8162000a4d565b92915050565b600081359050620004a48162000a67565b92915050565b600060208284031215620004bd57600080fd5b6000620004cd8482850162000438565b91505092915050565b600060208284031215620004e957600080fd5b6000620004f98482850162000493565b91505092915050565b60008060008060008060c087890312156200051c57600080fd5b60006200052c89828a0162000493565b96505060206200053f89828a0162000493565b95505060406200055289828a0162000493565b94505060606200056589828a016200047c565b93505060806200057889828a0162000493565b92505060a087013567ffffffffffffffff8111156200059657600080fd5b620005a489828a016200044f565b9150509295509295509295565b6000620005bf8383620006bb565b60208301905092915050565b620005d68162000963565b82525050565b620005e7816200094f565b82525050565b6000620005fa82620008b8565b620006068185620008d0565b93506200061383620008a8565b8060005b838110156200064a5781516200062e8882620005b1565b97506200063b83620008c3565b92505060018101905062000617565b5085935050505092915050565b620006628162000977565b82525050565b6200067381620009ad565b82525050565b600062000688601183620008e1565b91507f61646472657373206e6f742076616c69640000000000000000000000000000006000830152602082019050919050565b620006c681620009a3565b82525050565b620006d781620009a3565b82525050565b6000602082019050620006f46000830184620005dc565b92915050565b60006101008201905062000712600083018b620005cb565b62000721602083018a620006cc565b620007306040830189620006cc565b6200073f6060830188620006cc565b6200074e6080830187620006cc565b6200075d60a083018662000657565b6200076c60c0830185620006cc565b81810360e0830152620007808184620005ed565b90509998505050505050505050565b6000606082019050620007a66000830186620005dc565b620007b56020830185620006cc565b620007c46040830184620006cc565b949350505050565b6000602082019050620007e3600083018462000657565b92915050565b600060208201905062000800600083018462000668565b92915050565b60006020820190508181036000830152620008218162000679565b9050919050565b60006020820190506200083f6000830184620006cc565b92915050565b6000604051905081810181811067ffffffffffffffff821117156200086f576200086e62000a04565b5b8060405250919050565b600067ffffffffffffffff82111562000897576200089662000a04565b5b602082029050602081019050919050565b6000819050602082019050919050565b600081519050919050565b6000602082019050919050565b600082825260208201905092915050565b600082825260208201905092915050565b6000620008ff82620009a3565b91506200090c83620009a3565b9250827fffffffffffffffffffffffffffffffffffffffffffffffffffffffffffffffff03821115620009445762000943620009d5565b5b828201905092915050565b60006200095c8262000983565b9050919050565b6000620009708262000983565b9050919050565b60008115159050919050565b600073ffffffffffffffffffffffffffffffffffffffff82169050919050565b6000819050919050565b6000620009ba82620009c1565b9050919050565b6000620009ce8262000983565b9050919050565b7f4e487b7100000000000000000000000000000000000000000000000000000000600052601160045260246000fd5b7f4e487b7100000000000000000000000000000000000000000000000000000000600052604160045260246000fd5b62000a3e816200094f565b811462000a4a57600080fd5b50565b62000a588162000977565b811462000a6457600080fd5b50565b62000a7281620009a3565b811462000a7e57600080fd5b5056fe60806040523480156200001157600080fd5b5060405162001b3238038062001b32833981810160405281019062000037919062000398565b87600160006101000a81548173ffffffffffffffffffffffffffffffffffffffff021916908373ffffffffffffffffffffffffffffffffffffffff160217905550866000819055508560028190555084600581905550836006819055506000600460006101000a81548160ff02191690836002811115620000e1577f4e487b7100000000000000000000000000000000000000000000000000000000600052602160045260246000fd5b0217905550600160009054906101000a900473ffffffffffffffffffffffffffffffffffffffff16600460016101000a81548173ffffffffffffffffffffffffffffffffffffffff021916908373ffffffffffffffffffffffffffffffffffffffff160217905550600060038190555082600460156101000a81548160ff02191690831515021790555081815114620001b1576040517f08c379a0000000000000000000000000000000000000000000000000000000008152600401620001a8906200053b565b60405180910390fd5b816007819055508060089080519060200190620001d092919062000240565b507f93510d686774a542d9f88b394bd353add185c1d850dea9dc79a3f8db46703b68600160009054906101000a900473ffffffffffffffffffffffffffffffffffffffff16426002546040516200022a93929190620004fe565b60405180910390a15050505050505050620006d4565b8280548282559060005260206000209081019282156200027f579160200282015b828111156200027e57825182559160200191906001019062000261565b5b5090506200028e919062000292565b5090565b5b80821115620002ad57600081600090555060010162000293565b5090565b6000620002c8620002c28462000591565b6200055d565b90508083825260208201905082856020860282011115620002e857600080fd5b60005b858110156200031c578162000301888262000381565b845260208401935060208301925050600181019050620002eb565b5050509392505050565b600081519050620003378162000686565b92915050565b600082601f8301126200034f57600080fd5b815162000361848260208601620002b1565b91505092915050565b6000815190506200037b81620006a0565b92915050565b6000815190506200039281620006ba565b92915050565b600080600080600080600080610100898b031215620003b657600080fd5b6000620003c68b828c0162000326565b9850506020620003d98b828c0162000381565b9750506040620003ec8b828c0162000381565b9650506060620003ff8b828c0162000381565b9550506080620004128b828c0162000381565b94505060a0620004258b828c016200036a565b93505060c0620004388b828c0162000381565b92505060e089015167ffffffffffffffff8111156200045657600080fd5b620004648b828c016200033d565b9150509295985092959890939650565b6200047f816200061b565b82525050565b600062000494602a83620005c0565b91507f4e756d62657273206f6620746965727320646f6e74206d61746368207468652060008301527f7469657273206c697374000000000000000000000000000000000000000000006020830152604082019050919050565b620004f88162000611565b82525050565b600060608201905062000515600083018662000474565b620005246020830185620004ed565b620005336040830184620004ed565b949350505050565b60006020820190508181036000830152620005568162000485565b9050919050565b6000604051905081810181811067ffffffffffffffff8211171562000587576200058662000657565b5b8060405250919050565b600067ffffffffffffffff821115620005af57620005ae62000657565b5b602082029050602081019050919050565b600082825260208201905092915050565b6000620005de82620005f1565b9050919050565b60008115159050919050565b600073ffffffffffffffffffffffffffffffffffffffff82169050919050565b6000819050919050565b600062000628826200062f565b9050919050565b60006200063c8262000643565b9050919050565b60006200065082620005f1565b9050919050565b7f4e487b7100000000000000000000000000000000000000000000000000000000600052604160045260246000fd5b6200069181620005d1565b81146200069d57600080fd5b50565b620006ab81620005e5565b8114620006b757600080fd5b50565b620006c58162000611565b8114620006d157600080fd5b50565b61144e80620006e46000396000f3fe6080604052600436106100e15760003560e01c8063ad1a84491161007f578063c19d93fb11610059578063c19d93fb146102b4578063d11711a2146102df578063e00824bb146102fd578063e6fd48bc14610314576100f1565b8063ad1a844914610235578063b2d5ae4414610272578063b69ef8a814610289576100f1565b806342e94c90116100bb57806342e94c90146101775780638da5cb5b146101b45780639992477b146101df578063a85adeab1461020a576100f1565b806302d05d3f146100f65780632fe3f6ed14610121578063401938831461014c576100f1565b366100f1576100ee61033f565b50005b600080fd5b34801561010257600080fd5b5061010b6106b0565b6040516101189190611065565b60405180910390f35b34801561012d57600080fd5b506101366106d6565b60405161014391906110ee565b60405180910390f35b34801561015857600080fd5b506101616106e9565b60405161016e9190611264565b60405180910390f35b34801561018357600080fd5b5061019e60048036038101906101999190610cbe565b6106ef565b6040516101ab9190611264565b60405180910390f35b3480156101c057600080fd5b506101c9610707565b6040516101d6919061104a565b60405180910390f35b3480156101eb57600080fd5b506101f461072d565b6040516102019190611264565b60405180910390f35b34801561021657600080fd5b5061021f610733565b60405161022c9190611264565b60405180910390f35b34801561024157600080fd5b5061025c60048036038101906102579190610cbe565b610739565b6040516102699190611264565b60405180910390f35b34801561027e57600080fd5b50610287610751565b005b34801561029557600080fd5b5061029e610a28565b6040516102ab9190611264565b60405180910390f35b3480156102c057600080fd5b506102c9610a2e565b6040516102d69190611109565b60405180910390f35b6102e761033f565b6040516102f491906110ee565b60405180910390f35b34801561030957600080fd5b50610312610a41565b005b34801561032057600080fd5b50610329610bea565b6040516103369190611264565b60405180910390f35b60008080600281111561037b577f4e487b7100000000000000000000000000000000000000000000000000000000600052602160045260246000fd5b600460009054906101000a900460ff1660028111156103c3577f4e487b7100000000000000000000000000000000000000000000000000000000600052602160045260246000fd5b14610403576040517f08c379a00000000000000000000000000000000000000000000000000000000081526004016103fa90611124565b60405180910390fd5b33600073ffffffffffffffffffffffffffffffffffffffff168173ffffffffffffffffffffffffffffffffffffffff161415610474576040517f08c379a000000000000000000000000000000000000000000000000000000000815260040161046b90611144565b60405180910390fd5b600160009054906101000a900473ffffffffffffffffffffffffffffffffffffffff1673ffffffffffffffffffffffffffffffffffffffff163373ffffffffffffffffffffffffffffffffffffffff161415610505576040517f08c379a00000000000000000000000000000000000000000000000000000000081526004016104fc906111e4565b60405180910390fd5b60055442101561054a576040517f08c379a0000000000000000000000000000000000000000000000000000000008152600401610541906111c4565b60405180910390fd5b6000341161058d576040517f08c379a000000000000000000000000000000000000000000000000000000000815260040161058490611204565b60405180910390fd5b6006544211156105ed576002600460006101000a81548160ff021916908360028111156105e3577f4e487b7100000000000000000000000000000000000000000000000000000000600052602160045260246000fd5b0217905550600080fd5b34600360008282546105ff9190611290565b9250508190555034600960003373ffffffffffffffffffffffffffffffffffffffff1673ffffffffffffffffffffffffffffffffffffffff16815260200190815260200160002060008282546106559190611290565b925050819055506106663334610bf0565b7f861dabf52ad90ff59a8e6619b769cf37da3f0414d3dccb0649f4b853779c20a8336000543460035460405161069f94939291906110a9565b60405180910390a160019250505090565b600160009054906101000a900473ffffffffffffffffffffffffffffffffffffffff1681565b600460159054906101000a900460ff1681565b60025481565b60096020528060005260406000206000915090505481565b600460019054906101000a900473ffffffffffffffffffffffffffffffffffffffff1681565b60005481565b60065481565b600a6020528060005260406000206000915090505481565b600280600281111561078c577f4e487b7100000000000000000000000000000000000000000000000000000000600052602160045260246000fd5b600460009054906101000a900460ff1660028111156107d4577f4e487b7100000000000000000000000000000000000000000000000000000000600052602160045260246000fd5b14610814576040517f08c379a000000000000000000000000000000000000000000000000000000000815260040161080b90611124565b60405180910390fd5b600160009054906101000a900473ffffffffffffffffffffffffffffffffffffffff1673ffffffffffffffffffffffffffffffffffffffff163373ffffffffffffffffffffffffffffffffffffffff1614156108a5576040517f08c379a000000000000000000000000000000000000000000000000000000000815260040161089c906111a4565b60405180910390fd5b6000600960003373ffffffffffffffffffffffffffffffffffffffff1673ffffffffffffffffffffffffffffffffffffffff1681526020019081526020016000205411610927576040517f08c379a000000000000000000000000000000000000000000000000000000000815260040161091e90611184565b60405180910390fd5b3373ffffffffffffffffffffffffffffffffffffffff166108fc600960003373ffffffffffffffffffffffffffffffffffffffff1673ffffffffffffffffffffffffffffffffffffffff168152602001908152602001600020549081150290604051600060405180830381858888f193505050501580156109ac573d6000803e3d6000fd5b507fbb28353e4598c3b9199101a66e0989549b659a59a54d2c27fbb183f1932c8e6d33600960003373ffffffffffffffffffffffffffffffffffffffff1673ffffffffffffffffffffffffffffffffffffffff16815260200190815260200160002054604051610a1d929190611080565b60405180910390a150565b60035481565b600460009054906101000a900460ff1681565b338073ffffffffffffffffffffffffffffffffffffffff163373ffffffffffffffffffffffffffffffffffffffff1614610ab0576040517f08c379a0000000000000000000000000000000000000000000000000000000008152600401610aa790611244565b60405180910390fd5b6006544211610af4576040517f08c379a0000000000000000000000000000000000000000000000000000000008152600401610aeb90611224565b60405180910390fd5b600060035411610b39576040517f08c379a0000000000000000000000000000000000000000000000000000000008152600401610b3090611164565b60405180910390fd5b600160009054906101000a900473ffffffffffffffffffffffffffffffffffffffff1673ffffffffffffffffffffffffffffffffffffffff166108fc6003549081150290604051600060405180830381858888f19350505050158015610ba3573d6000803e3d6000fd5b5060006003819055507f14f433c13badc2239830ab3bb19e75dec63d39f851363844cc4e4650d0c9b60133600354604051610bdf929190611080565b60405180910390a150565b60055481565b600060075490505b6000811115610ca45760088181548110610c3b577f4e487b7100000000000000000000000000000000000000000000000000000000600052603260045260246000fd5b90600052602060002001548210610c915780600a60008573ffffffffffffffffffffffffffffffffffffffff1673ffffffffffffffffffffffffffffffffffffffff168152602001908152602001600020819055505b8080610c9c90611365565b915050610bf8565b505050565b600081359050610cb881611401565b92915050565b600060208284031215610cd057600080fd5b6000610cde84828501610ca9565b91505092915050565b610cf0816112f8565b82525050565b610cff816112e6565b82525050565b610d0e8161130a565b82525050565b610d1d81611353565b82525050565b6000610d3060168361127f565b91507f5374617465206d757374206265207468652073616d65000000000000000000006000830152602082019050919050565b6000610d7060188361127f565b91507f43616e6e6f7420626520746865206164647265737328302900000000000000006000830152602082019050919050565b6000610db060178361127f565b91507f42616c616e63652063616e6e6f7420626520656d7074790000000000000000006000830152602082019050919050565b6000610df060288361127f565b91507f596f752068617665206e6f742070617274696369706174656420696e2074686560008301527f2063616d7061696e0000000000000000000000000000000000000000000000006020830152604082019050919050565b6000610e5660198361127f565b91507f4e6f20726566756e6420666f72207468652063726561746f72000000000000006000830152602082019050919050565b6000610e96601f8361127f565b91507f5468652063616d7061696e20686173206e6f74207374617274656420796574006000830152602082019050919050565b6000610ed660388361127f565b91507f5b464f5242494444454e5d205468652063726561746f722063616e6e6f74206660008301527f756e64726169736520686973206f776e2063616d7061696e00000000000000006020830152604082019050919050565b6000610f3c60268361127f565b91507f416d6f756e742063616e6e6f74206265206c657373206f7220657175616c207460008301527f6f207a65726f00000000000000000000000000000000000000000000000000006020830152604082019050919050565b6000610fa2601d8361127f565b91507f5468652063616d7061696e20686173206e6f7420656e646564207965740000006000830152602082019050919050565b6000610fe260308361127f565b91507f5b464f5242494444454e5d20596f7520617265206e6f7420746865206f776e6560008301527f72206f66207468652063616d7061696e000000000000000000000000000000006020830152604082019050919050565b61104481611349565b82525050565b600060208201905061105f6000830184610cf6565b92915050565b600060208201905061107a6000830184610ce7565b92915050565b60006040820190506110956000830185610cf6565b6110a2602083018461103b565b9392505050565b60006080820190506110be6000830187610cf6565b6110cb602083018661103b565b6110d8604083018561103b565b6110e5606083018461103b565b95945050505050565b60006020820190506111036000830184610d05565b92915050565b600060208201905061111e6000830184610d14565b92915050565b6000602082019050818103600083015261113d81610d23565b9050919050565b6000602082019050818103600083015261115d81610d63565b9050919050565b6000602082019050818103600083015261117d81610da3565b9050919050565b6000602082019050818103600083015261119d81610de3565b9050919050565b600060208201905081810360008301526111bd81610e49565b9050919050565b600060208201905081810360008301526111dd81610e89565b9050919050565b600060208201905081810360008301526111fd81610ec9565b9050919050565b6000602082019050818103600083015261121d81610f2f565b9050919050565b6000602082019050818103600083015261123d81610f95565b9050919050565b6000602082019050818103600083015261125d81610fd5565b9050919050565b6000602082019050611279600083018461103b565b92915050565b600082825260208201905092915050565b600061129b82611349565b91506112a683611349565b9250827fffffffffffffffffffffffffffffffffffffffffffffffffffffffffffffffff038211156112db576112da61138f565b5b828201905092915050565b60006112f182611329565b9050919050565b600061130382611329565b9050919050565b60008115159050919050565b6000819050611324826113ed565b919050565b600073ffffffffffffffffffffffffffffffffffffffff82169050919050565b6000819050919050565b600061135e82611316565b9050919050565b600061137082611349565b915060008214156113845761138361138f565b5b600182039050919050565b7f4e487b7100000000000000000000000000000000000000000000000000000000600052601160045260246000fd5b7f4e487b7100000000000000000000000000000000000000000000000000000000600052602160045260246000fd5b600381106113fe576113fd6113be565b5b50565b61140a816112e6565b811461141557600080fd5b5056fea2646970667358221220591e0392c76c7b8695a40abd732c5a4a8e1239a3589f6944d17ba770d4c397f164736f6c63430008000033a2646970667358221220554aef6e822e5014aedc7b9bae5d146b275238ab17b0110ee44fbbb9156620e664736f6c63430008000033",
  "immutableReferences": {},
  "source": "pragma solidity ^0.8.0;\r\n\r\nimport './Campain.sol';\r\nimport '@openzeppelin/contracts/utils/math/SafeMath.sol';\r\n\r\n\r\ncontract CampainFactory {\r\n\r\n    using SafeMath for uint;\r\n\r\n    mapping(address => Campain) public campains;\r\n    address[]  public allCrowdFund;\r\n\r\n    uint256 public nbCampain;\r\n    Campain private newCampain;\r\n    \r\n    event CampainCreated(address creator, uint nbCampain, uint goal);\r\n\r\n    constructor() {\r\n        nbCampain = 0;\r\n    }\r\n\r\n    function createCampain(\r\n        uint goal_, \r\n        uint startTimestamp_, \r\n        uint endTimestamp_, \r\n        bool partialGoal_, \r\n        uint nbTiers_,\r\n        uint[] memory listTiers_\r\n        ) \r\n        payable\r\n        public\r\n        returns(bool) {\r\n        require(msg.sender != address(0), 'address not valid');\r\n        newCampain = new Campain(payable(msg.sender), nbCampain, goal_, startTimestamp_, endTimestamp_, partialGoal_, nbTiers_, listTiers_);\r\n        campains[msg.sender] = newCampain;\r\n        nbCampain += 1;\r\n        emit CampainCreated(msg.sender, nbCampain, goal_);\r\n        return true;\r\n    }\r\n\r\n}",
  "sourcePath": "C:/Users/Hugo/Desktop/dev/crowdfunding/contracts/CampainFactory.sol",
  "compiler": {
    "name": "solc",
    "version": "0.8.0+commit.c7dfd78e.Emscripten.clang"
  },
  "schemaVersion": "3.3.4",
  "updatedAt": "2021-04-22T18:08:00.742Z",
  "devdoc": {
    "kind": "dev",
    "methods": {},
    "version": 1
  },
  "userdoc": {
    "kind": "user",
    "methods": {},
    "version": 1
  }
}