{
  "contractName": "Campaign",
  "abi": [
    {
      "inputs": [],
      "stateMutability": "nonpayable",
      "type": "constructor"
    },
    {
      "anonymous": false,
      "inputs": [
        {
          "indexed": false,
          "internalType": "address",
          "name": "creator",
          "type": "address"
        },
        {
          "indexed": false,
          "internalType": "uint256",
          "name": "timestamp",
          "type": "uint256"
        },
        {
          "indexed": false,
          "internalType": "uint256",
          "name": "goal",
          "type": "uint256"
        },
        {
          "indexed": false,
          "internalType": "address",
          "name": "token",
          "type": "address"
        }
      ],
      "name": "CampaignCreated",
      "type": "event"
    },
    {
      "anonymous": false,
      "inputs": [
        {
          "indexed": false,
          "internalType": "address",
          "name": "campaignAddress",
          "type": "address"
        },
        {
          "indexed": false,
          "internalType": "address",
          "name": "creator",
          "type": "address"
        },
        {
          "indexed": false,
          "internalType": "uint256",
          "name": "timestamp",
          "type": "uint256"
        },
        {
          "indexed": false,
          "internalType": "uint256",
          "name": "goal",
          "type": "uint256"
        },
        {
          "indexed": false,
          "internalType": "address",
          "name": "token",
          "type": "address"
        }
      ],
      "name": "CampaignCreation",
      "type": "event"
    },
    {
      "anonymous": false,
      "inputs": [
        {
          "indexed": false,
          "internalType": "address",
          "name": "creator",
          "type": "address"
        },
        {
          "indexed": false,
          "internalType": "uint256",
          "name": "total_amount",
          "type": "uint256"
        }
      ],
      "name": "CreatorPaid",
      "type": "event"
    },
    {
      "anonymous": false,
      "inputs": [
        {
          "indexed": false,
          "internalType": "address",
          "name": "from",
          "type": "address"
        },
        {
          "indexed": false,
          "internalType": "uint256",
          "name": "campaign_id",
          "type": "uint256"
        },
        {
          "indexed": false,
          "internalType": "uint256",
          "name": "amount",
          "type": "uint256"
        },
        {
          "indexed": false,
          "internalType": "uint256",
          "name": "totalBalance",
          "type": "uint256"
        }
      ],
      "name": "Participation",
      "type": "event"
    },
    {
      "anonymous": false,
      "inputs": [
        {
          "indexed": false,
          "internalType": "address",
          "name": "from",
          "type": "address"
        },
        {
          "indexed": false,
          "internalType": "address",
          "name": "to",
          "type": "address"
        },
        {
          "indexed": false,
          "internalType": "uint256",
          "name": "refund_amount",
          "type": "uint256"
        }
      ],
      "name": "Refund",
      "type": "event"
    },
    {
      "anonymous": false,
      "inputs": [
        {
          "indexed": false,
          "internalType": "address",
          "name": "from",
          "type": "address"
        },
        {
          "indexed": false,
          "internalType": "uint256",
          "name": "refundAmount",
          "type": "uint256"
        }
      ],
      "name": "Refund",
      "type": "event"
    },
    {
      "inputs": [],
      "name": "campaign_address",
      "outputs": [
        {
          "internalType": "address",
          "name": "",
          "type": "address"
        }
      ],
      "stateMutability": "view",
      "type": "function"
    },
    {
      "inputs": [],
      "name": "campaign_id",
      "outputs": [
        {
          "internalType": "uint256",
          "name": "",
          "type": "uint256"
        }
      ],
      "stateMutability": "view",
      "type": "function"
    },
    {
      "inputs": [
        {
          "internalType": "address",
          "name": "",
          "type": "address"
        }
      ],
      "name": "contributions",
      "outputs": [
        {
          "internalType": "uint256",
          "name": "",
          "type": "uint256"
        }
      ],
      "stateMutability": "view",
      "type": "function"
    },
    {
      "inputs": [
        {
          "internalType": "address",
          "name": "",
          "type": "address"
        }
      ],
      "name": "contributionsTiers",
      "outputs": [
        {
          "internalType": "uint256",
          "name": "",
          "type": "uint256"
        }
      ],
      "stateMutability": "view",
      "type": "function"
    },
    {
      "inputs": [],
      "name": "creator",
      "outputs": [
        {
          "internalType": "address payable",
          "name": "",
          "type": "address"
        }
      ],
      "stateMutability": "view",
      "type": "function"
    },
    {
      "inputs": [],
      "name": "endTimestamp",
      "outputs": [
        {
          "internalType": "uint256",
          "name": "",
          "type": "uint256"
        }
      ],
      "stateMutability": "view",
      "type": "function"
    },
    {
      "inputs": [],
      "name": "goal",
      "outputs": [
        {
          "internalType": "uint256",
          "name": "",
          "type": "uint256"
        }
      ],
      "stateMutability": "view",
      "type": "function"
    },
    {
      "inputs": [],
      "name": "partialGoal",
      "outputs": [
        {
          "internalType": "bool",
          "name": "",
          "type": "bool"
        }
      ],
      "stateMutability": "view",
      "type": "function"
    },
    {
      "inputs": [],
      "name": "startTimestamp",
      "outputs": [
        {
          "internalType": "uint256",
          "name": "",
          "type": "uint256"
        }
      ],
      "stateMutability": "view",
      "type": "function"
    },
    {
      "inputs": [],
      "name": "state",
      "outputs": [
        {
          "internalType": "enum Campaign.State",
          "name": "",
          "type": "uint8"
        }
      ],
      "stateMutability": "view",
      "type": "function"
    },
    {
      "inputs": [
        {
          "internalType": "uint256",
          "name": "",
          "type": "uint256"
        }
      ],
      "name": "tiersList",
      "outputs": [
        {
          "internalType": "uint256",
          "name": "index",
          "type": "uint256"
        },
        {
          "internalType": "uint256",
          "name": "price",
          "type": "uint256"
        },
        {
          "internalType": "uint256",
          "name": "quantity",
          "type": "uint256"
        }
      ],
      "stateMutability": "view",
      "type": "function"
    },
    {
      "inputs": [],
      "name": "totalBalance",
      "outputs": [
        {
          "internalType": "uint256",
          "name": "",
          "type": "uint256"
        }
      ],
      "stateMutability": "view",
      "type": "function"
    },
    {
      "stateMutability": "payable",
      "type": "receive"
    },
    {
      "inputs": [
        {
          "internalType": "address payable",
          "name": "creator_",
          "type": "address"
        },
        {
          "internalType": "uint256",
          "name": "campaign_id_",
          "type": "uint256"
        },
        {
          "internalType": "uint256",
          "name": "goal_",
          "type": "uint256"
        },
        {
          "internalType": "uint256",
          "name": "startTimestamp_",
          "type": "uint256"
        },
        {
          "internalType": "uint256",
          "name": "endTimestamp_",
          "type": "uint256"
        },
        {
          "internalType": "bool",
          "name": "partialGoal_",
          "type": "bool"
        },
        {
          "internalType": "address",
          "name": "token_",
          "type": "address"
        },
        {
          "internalType": "uint256",
          "name": "nbTiers_",
          "type": "uint256"
        },
        {
          "internalType": "uint256[]",
          "name": "tiers_",
          "type": "uint256[]"
        }
      ],
      "name": "initialize",
      "outputs": [],
      "stateMutability": "nonpayable",
      "type": "function"
    },
    {
      "inputs": [],
      "name": "approveCrowdfunding",
      "outputs": [
        {
          "internalType": "bool",
          "name": "",
          "type": "bool"
        }
      ],
      "stateMutability": "nonpayable",
      "type": "function"
    },
    {
      "inputs": [],
      "name": "payCreator",
      "outputs": [],
      "stateMutability": "nonpayable",
      "type": "function"
    },
    {
      "inputs": [],
      "name": "participateInETH",
      "outputs": [
        {
          "internalType": "bool",
          "name": "success",
          "type": "bool"
        }
      ],
      "stateMutability": "payable",
      "type": "function"
    },
    {
      "inputs": [
        {
          "internalType": "uint256",
          "name": "amount",
          "type": "uint256"
        }
      ],
      "name": "participateInERC20",
      "outputs": [
        {
          "internalType": "bool",
          "name": "success",
          "type": "bool"
        }
      ],
      "stateMutability": "payable",
      "type": "function"
    },
    {
      "inputs": [],
      "name": "refund",
      "outputs": [
        {
          "internalType": "bool",
          "name": "",
          "type": "bool"
        }
      ],
      "stateMutability": "nonpayable",
      "type": "function"
    }
  ],
  "bytecode": "0x608060405234801561001057600080fd5b5033600860006101000a81548173ffffffffffffffffffffffffffffffffffffffff021916908373ffffffffffffffffffffffffffffffffffffffff160217905550612b7d806100616000396000f3fe60806040526004361061010d5760003560e01c8063a85adeab11610095578063d1bf217811610064578063d1bf21781461038c578063dd27c3da146103b7578063e00824bb146103e2578063e6fd48bc146103f9578063fd3a7dcd146104245761011d565b8063a85adeab146102ce578063ad1a8449146102f9578063ad7a672f14610336578063c19d93fb146103615761011d565b8063590e1ae3116100dc578063590e1ae3146101e05780636263dc8d1461020b5780637416d1ba146102345780638fa24faf1461025f57806390b20e0d1461029e5761011d565b806302d05d3f146101225780632fe3f6ed1461014d578063401938831461017857806342e94c90146101a35761011d565b3661011d5761011a610442565b50005b600080fd5b34801561012e57600080fd5b506101376108cb565b6040516101449190612479565b60405180910390f35b34801561015957600080fd5b506101626108f1565b60405161016f919061258c565b60405180910390f35b34801561018457600080fd5b5061018d610904565b60405161019a91906127a2565b60405180910390f35b3480156101af57600080fd5b506101ca60048036038101906101c59190611d92565b61090a565b6040516101d791906127a2565b60405180910390f35b3480156101ec57600080fd5b506101f5610922565b604051610202919061258c565b60405180910390f35b34801561021757600080fd5b50610232600480360381019061022d9190611dbb565b610ce2565b005b34801561024057600080fd5b50610249610f17565b604051610256919061258c565b60405180910390f35b34801561026b57600080fd5b5061028660048036038101906102819190611ec2565b611066565b604051610295939291906127bd565b60405180910390f35b6102b860048036038101906102b39190611ec2565b6110a0565b6040516102c5919061258c565b60405180910390f35b3480156102da57600080fd5b506102e361175d565b6040516102f091906127a2565b60405180910390f35b34801561030557600080fd5b50610320600480360381019061031b9190611d92565b611763565b60405161032d91906127a2565b60405180910390f35b34801561034257600080fd5b5061034b61177b565b60405161035891906127a2565b60405180910390f35b34801561036d57600080fd5b50610376611781565b60405161038391906125a7565b60405180910390f35b34801561039857600080fd5b506103a1611794565b6040516103ae919061245e565b60405180910390f35b3480156103c357600080fd5b506103cc6117ba565b6040516103d991906127a2565b60405180910390f35b3480156103ee57600080fd5b506103f76117c0565b005b34801561040557600080fd5b5061040e611990565b60405161041b91906127a2565b60405180910390f35b61042c610442565b604051610439919061258c565b60405180910390f35b60008073ffffffffffffffffffffffffffffffffffffffff16600660009054906101000a900473ffffffffffffffffffffffffffffffffffffffff1673ffffffffffffffffffffffffffffffffffffffff16146104d4576040517f08c379a00000000000000000000000000000000000000000000000000000000081526004016104cb90612742565b60405180910390fd5b600180600481111561050f577f4e487b7100000000000000000000000000000000000000000000000000000000600052602160045260246000fd5b600560009054906101000a900460ff166004811115610557577f4e487b7100000000000000000000000000000000000000000000000000000000600052602160045260246000fd5b14610597576040517f08c379a000000000000000000000000000000000000000000000000000000000815260040161058e906125c2565b60405180910390fd5b33600073ffffffffffffffffffffffffffffffffffffffff168173ffffffffffffffffffffffffffffffffffffffff161415610608576040517f08c379a00000000000000000000000000000000000000000000000000000000081526004016105ff906125e2565b60405180910390fd5b600260009054906101000a900473ffffffffffffffffffffffffffffffffffffffff1673ffffffffffffffffffffffffffffffffffffffff163373ffffffffffffffffffffffffffffffffffffffff161415610699576040517f08c379a000000000000000000000000000000000000000000000000000000000815260040161069090612722565b60405180910390fd5b6009544210156106de576040517f08c379a00000000000000000000000000000000000000000000000000000000081526004016106d590612782565b60405180910390fd5b60003411610721576040517f08c379a000000000000000000000000000000000000000000000000000000000815260040161071890612702565b60405180910390fd5b600a54421180156107355750600454600354105b15610794576002600560006101000a81548160ff02191690836004811115610786577f4e487b7100000000000000000000000000000000000000000000000000000000600052602160045260246000fd5b0217905550600092506108c6565b600a54421180156107a85750600454600354115b15610807576002600560006101000a81548160ff021916908360048111156107f9577f4e487b7100000000000000000000000000000000000000000000000000000000600052602160045260246000fd5b0217905550600092506108c6565b34600460008282546108199190612862565b9250508190555034600c60003373ffffffffffffffffffffffffffffffffffffffff1673ffffffffffffffffffffffffffffffffffffffff168152602001908152602001600020600082825461086f9190612862565b925050819055506108803334611996565b7f861dabf52ad90ff59a8e6619b769cf37da3f0414d3dccb0649f4b853779c20a833600154346004546040516108b99493929190612547565b60405180910390a1600192505b505090565b600260009054906101000a900473ffffffffffffffffffffffffffffffffffffffff1681565b600560159054906101000a900460ff1681565b60035481565b600c6020528060005260406000206000915090505481565b6000600380600481111561095f577f4e487b7100000000000000000000000000000000000000000000000000000000600052602160045260246000fd5b600560009054906101000a900460ff1660048111156109a7577f4e487b7100000000000000000000000000000000000000000000000000000000600052602160045260246000fd5b146109e7576040517f08c379a00000000000000000000000000000000000000000000000000000000081526004016109de906125c2565b60405180910390fd5b6109ef611aaa565b73ffffffffffffffffffffffffffffffffffffffff16600860009054906101000a900473ffffffffffffffffffffffffffffffffffffffff1673ffffffffffffffffffffffffffffffffffffffff1614610a7e576040517f08c379a0000000000000000000000000000000000000000000000000000000008152600401610a75906126a2565b60405180910390fd5b600260009054906101000a900473ffffffffffffffffffffffffffffffffffffffff1673ffffffffffffffffffffffffffffffffffffffff163373ffffffffffffffffffffffffffffffffffffffff161415610b0f576040517f08c379a0000000000000000000000000000000000000000000000000000000008152600401610b06906126c2565b60405180910390fd5b6000600c60003373ffffffffffffffffffffffffffffffffffffffff1673ffffffffffffffffffffffffffffffffffffffff1681526020019081526020016000205411610b91576040517f08c379a0000000000000000000000000000000000000000000000000000000008152600401610b8890612622565b60405180910390fd5b6000600c60003373ffffffffffffffffffffffffffffffffffffffff1673ffffffffffffffffffffffffffffffffffffffff1681526020019081526020016000205490506000600c60003373ffffffffffffffffffffffffffffffffffffffff1673ffffffffffffffffffffffffffffffffffffffff168152602001908152602001600020819055503373ffffffffffffffffffffffffffffffffffffffff166108fc829081150290604051600060405180830381858888f19350505050158015610c60573d6000803e3d6000fd5b507fbb28353e4598c3b9199101a66e0989549b659a59a54d2c27fbb183f1932c8e6d33600c60003373ffffffffffffffffffffffffffffffffffffffff1673ffffffffffffffffffffffffffffffffffffffff16815260200190815260200160002054604051610cd192919061251e565b60405180910390a160019250505090565b88600260006101000a81548173ffffffffffffffffffffffffffffffffffffffff021916908373ffffffffffffffffffffffffffffffffffffffff16021790555087600181905550866003819055508560098190555084600a819055506001600560006101000a81548160ff02191690836004811115610d8b577f4e487b7100000000000000000000000000000000000000000000000000000000600052602160045260246000fd5b0217905550600060048190555083600560156101000a81548160ff02191690831515021790555080518214610df5576040517f08c379a0000000000000000000000000000000000000000000000000000000008152600401610dec90612602565b60405180910390fd5b81600781905550610e0581611ab2565b82600660006101000a81548173ffffffffffffffffffffffffffffffffffffffff021916908373ffffffffffffffffffffffffffffffffffffffff16021790555030600560016101000a81548173ffffffffffffffffffffffffffffffffffffffff021916908373ffffffffffffffffffffffffffffffffffffffff1602179055507f3138a575b7613412986d48b2c0b3ecc69c135db13603b67923de932fd0d8dded30600260009054906101000a900473ffffffffffffffffffffffffffffffffffffffff1642600354600660009054906101000a900473ffffffffffffffffffffffffffffffffffffffff16604051610f04959493929190612494565b60405180910390a1505050505050505050565b600080600660009054906101000a900473ffffffffffffffffffffffffffffffffffffffff16905060008173ffffffffffffffffffffffffffffffffffffffff166370a08231336040518263ffffffff1660e01b8152600401610f7a919061245e565b60206040518083038186803b158015610f9257600080fd5b505afa158015610fa6573d6000803e3d6000fd5b505050506040513d601f19601f82011682018060405250810190610fca9190611eeb565b905060008273ffffffffffffffffffffffffffffffffffffffff1663095ea7b333846040518363ffffffff1660e01b815260040161100992919061251e565b602060405180830381600087803b15801561102357600080fd5b505af1158015611037573d6000803e3d6000fd5b505050506040513d601f19601f8201168201806040525081019061105b9190611e99565b905080935050505090565b600b818154811061107657600080fd5b90600052602060002090600302016000915090508060000154908060010154908060020154905083565b60008073ffffffffffffffffffffffffffffffffffffffff16600660009054906101000a900473ffffffffffffffffffffffffffffffffffffffff1673ffffffffffffffffffffffffffffffffffffffff161415611133576040517f08c379a000000000000000000000000000000000000000000000000000000000815260040161112a90612642565b60405180910390fd5b600180600481111561116e577f4e487b7100000000000000000000000000000000000000000000000000000000600052602160045260246000fd5b600560009054906101000a900460ff1660048111156111b6577f4e487b7100000000000000000000000000000000000000000000000000000000600052602160045260246000fd5b146111f6576040517f08c379a00000000000000000000000000000000000000000000000000000000081526004016111ed906125c2565b60405180910390fd5b33600073ffffffffffffffffffffffffffffffffffffffff168173ffffffffffffffffffffffffffffffffffffffff161415611267576040517f08c379a000000000000000000000000000000000000000000000000000000000815260040161125e906125e2565b60405180910390fd5b600073ffffffffffffffffffffffffffffffffffffffff16600660009054906101000a900473ffffffffffffffffffffffffffffffffffffffff1673ffffffffffffffffffffffffffffffffffffffff1614156112f9576040517f08c379a00000000000000000000000000000000000000000000000000000000081526004016112f090612762565b60405180910390fd5b600260009054906101000a900473ffffffffffffffffffffffffffffffffffffffff1673ffffffffffffffffffffffffffffffffffffffff163373ffffffffffffffffffffffffffffffffffffffff16141561138a576040517f08c379a000000000000000000000000000000000000000000000000000000000815260040161138190612722565b60405180910390fd5b6009544210156113cf576040517f08c379a00000000000000000000000000000000000000000000000000000000081526004016113c690612782565b60405180910390fd5b60008411611412576040517f08c379a000000000000000000000000000000000000000000000000000000000815260040161140990612702565b60405180910390fd5b600a54421180156114265750600454600354105b15611485576003600560006101000a81548160ff02191690836004811115611477577f4e487b7100000000000000000000000000000000000000000000000000000000600052602160045260246000fd5b021790555060009250611756565b600a54421180156114995750600454600354115b156114f8576002600560006101000a81548160ff021916908360048111156114ea577f4e487b7100000000000000000000000000000000000000000000000000000000600052602160045260246000fd5b021790555060009250611756565b83600660009054906101000a900473ffffffffffffffffffffffffffffffffffffffff1673ffffffffffffffffffffffffffffffffffffffff166370a08231336040518263ffffffff1660e01b8152600401611554919061245e565b60206040518083038186803b15801561156c57600080fd5b505afa158015611580573d6000803e3d6000fd5b505050506040513d601f19601f820116820180604052508101906115a49190611eeb565b10156115e5576040517f08c379a00000000000000000000000000000000000000000000000000000000081526004016115dc906126e2565b60405180910390fd5b600660009054906101000a900473ffffffffffffffffffffffffffffffffffffffff1673ffffffffffffffffffffffffffffffffffffffff166323b872dd3330876040518463ffffffff1660e01b8152600401611644939291906124e7565b602060405180830381600087803b15801561165e57600080fd5b505af1158015611672573d6000803e3d6000fd5b505050506040513d601f19601f820116820180604052508101906116969190611e99565b5083600460008282546116a99190612862565b9250508190555083600c60003373ffffffffffffffffffffffffffffffffffffffff1673ffffffffffffffffffffffffffffffffffffffff16815260200190815260200160002060008282546116ff9190612862565b925050819055506117103385611996565b7f861dabf52ad90ff59a8e6619b769cf37da3f0414d3dccb0649f4b853779c20a833600154866004546040516117499493929190612547565b60405180910390a1600192505b5050919050565b600a5481565b600d6020528060005260406000206000915090505481565b60045481565b600560009054906101000a900460ff1681565b600560019054906101000a900473ffffffffffffffffffffffffffffffffffffffff1681565b60015481565b6117c8611aaa565b73ffffffffffffffffffffffffffffffffffffffff16600860009054906101000a900473ffffffffffffffffffffffffffffffffffffffff1673ffffffffffffffffffffffffffffffffffffffff1614611857576040517f08c379a000000000000000000000000000000000000000000000000000000000815260040161184e906126a2565b60405180910390fd5b600a54421161189b576040517f08c379a000000000000000000000000000000000000000000000000000000000815260040161189290612682565b60405180910390fd5b6000600454116118e0576040517f08c379a00000000000000000000000000000000000000000000000000000000081526004016118d790612662565b60405180910390fd5b600260009054906101000a900473ffffffffffffffffffffffffffffffffffffffff1673ffffffffffffffffffffffffffffffffffffffff166108fc6004549081150290604051600060405180830381858888f1935050505015801561194a573d6000803e3d6000fd5b5060006004819055507f14f433c13badc2239830ab3bb19e75dec63d39f851363844cc4e4650d0c9b6013360045460405161198692919061251e565b60405180910390a1565b60095481565b60005b600754811015611aa557600b81815481106119dd577f4e487b7100000000000000000000000000000000000000000000000000000000600052603260045260246000fd5b906000526020600020906003020160010154821415611a925780600d60008573ffffffffffffffffffffffffffffffffffffffff1673ffffffffffffffffffffffffffffffffffffffff16815260200190815260200160002081905550611a90600b8281548110611a77577f4e487b7100000000000000000000000000000000000000000000000000000000600052603260045260246000fd5b9060005260206000209060030201600201546001611bf7565b505b8080611a9d906129a1565b915050611999565b505050565b600033905090565b600080600080600090505b600754811015611bf0576000600382611ad691906129ea565b1415611b2057848181518110611b15577f4e487b7100000000000000000000000000000000000000000000000000000000600052603260045260246000fd5b602002602001015193505b6001600382611b2f91906129ea565b1415611b7957848181518110611b6e577f4e487b7100000000000000000000000000000000000000000000000000000000600052603260045260246000fd5b602002602001015192505b6002600382611b8891906129ea565b1415611bdd57848181518110611bc7577f4e487b7100000000000000000000000000000000000000000000000000000000600052603260045260246000fd5b60200260200101519150611bdc848484611c0d565b5b8080611be8906129a1565b915050611abd565b5050505050565b60008183611c0591906128b8565b905092915050565b60006040518060600160405280858152602001848152602001838152509050600b819080600181540180825580915050600190039060005260206000209060030201600090919091909150600082015181600001556020820151816001015560408201518160020155505050505050565b6000611c91611c8c84612825565b6127f4565b90508083825260208201905082856020860282011115611cb057600080fd5b60005b85811015611ce05781611cc68882611d68565b845260208401935060208301925050600181019050611cb3565b5050509392505050565b600081359050611cf981612aeb565b92915050565b600081359050611d0e81612b02565b92915050565b600082601f830112611d2557600080fd5b8135611d35848260208601611c7e565b91505092915050565b600081359050611d4d81612b19565b92915050565b600081519050611d6281612b19565b92915050565b600081359050611d7781612b30565b92915050565b600081519050611d8c81612b30565b92915050565b600060208284031215611da457600080fd5b6000611db284828501611cea565b91505092915050565b60008060008060008060008060006101208a8c031215611dda57600080fd5b6000611de88c828d01611cff565b9950506020611df98c828d01611d68565b9850506040611e0a8c828d01611d68565b9750506060611e1b8c828d01611d68565b9650506080611e2c8c828d01611d68565b95505060a0611e3d8c828d01611d3e565b94505060c0611e4e8c828d01611cea565b93505060e0611e5f8c828d01611d68565b9250506101008a013567ffffffffffffffff811115611e7d57600080fd5b611e898c828d01611d14565b9150509295985092959850929598565b600060208284031215611eab57600080fd5b6000611eb984828501611d53565b91505092915050565b600060208284031215611ed457600080fd5b6000611ee284828501611d68565b91505092915050565b600060208284031215611efd57600080fd5b6000611f0b84828501611d7d565b91505092915050565b611f1d81612959565b82525050565b611f2c816128fe565b82525050565b611f3b816128ec565b82525050565b611f4a81612910565b82525050565b611f598161296b565b82525050565b6000611f6c601683612851565b91507f5374617465206d757374206265207468652073616d65000000000000000000006000830152602082019050919050565b6000611fac601883612851565b91507f43616e6e6f7420626520746865206164647265737328302900000000000000006000830152602082019050919050565b6000611fec600e83612851565b91507f4e6f7420636f6d70617469626c650000000000000000000000000000000000006000830152602082019050919050565b600061202c602983612851565b91507f596f752068617665206e6f742070617274696369706174656420696e2074686560008301527f2063616d706169676e00000000000000000000000000000000000000000000006020830152604082019050919050565b6000612092602b83612851565b91507f5b5741524e494e475d20546869732063616d706169676e206f6e6c792072656360008301527f65697665732045524332300000000000000000000000000000000000000000006020830152604082019050919050565b60006120f8601c83612851565b91507f746f74616c42616c616e63652063616e6e6f7420626520656d707479000000006000830152602082019050919050565b6000612138601e83612851565b91507f5468652063616d706169676e20686173206e6f7420656e6465642079657400006000830152602082019050919050565b6000612178601583612851565b91507f596f7520617265206e6f7420746865204f776e657200000000000000000000006000830152602082019050919050565b60006121b8601983612851565b91507f4e6f20726566756e6420666f72207468652063726561746f72000000000000006000830152602082019050919050565b60006121f8603983612851565b91507f5b464f5242494444454e5d20596f7520646f6e2774206861766520746865206660008301527f756e647320666f722074686973207472616e73616374696f6e000000000000006020830152604082019050919050565b600061225e602683612851565b91507f416d6f756e742063616e6e6f74206265206c657373206f7220657175616c207460008301527f6f207a65726f00000000000000000000000000000000000000000000000000006020830152604082019050919050565b60006122c4603983612851565b91507f5b464f5242494444454e5d205468652063726561746f722063616e6e6f74206660008301527f756e64726169736520686973206f776e2063616d706169676e000000000000006020830152604082019050919050565b600061232a602983612851565b91507f5b5741524e494e475d20546869732063616d706169676e206f6e6c792072656360008301527f65697665732045544800000000000000000000000000000000000000000000006020830152604082019050919050565b6000612390604883612851565b91507f5b554e415554484f52495a45445d20546869732063616d706169676e2063616e60008301527f206f6e6c792062652066756e646564207573696e672074686520636f7272656360208301527f74204945524332300000000000000000000000000000000000000000000000006040830152606082019050919050565b600061241c602083612851565b91507f5468652063616d706169676e20686173206e6f742073746172746564207965746000830152602082019050919050565b6124588161294f565b82525050565b60006020820190506124736000830184611f32565b92915050565b600060208201905061248e6000830184611f23565b92915050565b600060a0820190506124a96000830188611f32565b6124b66020830187611f14565b6124c3604083018661244f565b6124d0606083018561244f565b6124dd6080830184611f32565b9695505050505050565b60006060820190506124fc6000830186611f32565b6125096020830185611f32565b612516604083018461244f565b949350505050565b60006040820190506125336000830185611f32565b612540602083018461244f565b9392505050565b600060808201905061255c6000830187611f32565b612569602083018661244f565b612576604083018561244f565b612583606083018461244f565b95945050505050565b60006020820190506125a16000830184611f41565b92915050565b60006020820190506125bc6000830184611f50565b92915050565b600060208201905081810360008301526125db81611f5f565b9050919050565b600060208201905081810360008301526125fb81611f9f565b9050919050565b6000602082019050818103600083015261261b81611fdf565b9050919050565b6000602082019050818103600083015261263b8161201f565b9050919050565b6000602082019050818103600083015261265b81612085565b9050919050565b6000602082019050818103600083015261267b816120eb565b9050919050565b6000602082019050818103600083015261269b8161212b565b9050919050565b600060208201905081810360008301526126bb8161216b565b9050919050565b600060208201905081810360008301526126db816121ab565b9050919050565b600060208201905081810360008301526126fb816121eb565b9050919050565b6000602082019050818103600083015261271b81612251565b9050919050565b6000602082019050818103600083015261273b816122b7565b9050919050565b6000602082019050818103600083015261275b8161231d565b9050919050565b6000602082019050818103600083015261277b81612383565b9050919050565b6000602082019050818103600083015261279b8161240f565b9050919050565b60006020820190506127b7600083018461244f565b92915050565b60006060820190506127d2600083018661244f565b6127df602083018561244f565b6127ec604083018461244f565b949350505050565b6000604051905081810181811067ffffffffffffffff8211171561281b5761281a612aa8565b5b8060405250919050565b600067ffffffffffffffff8211156128405761283f612aa8565b5b602082029050602081019050919050565b600082825260208201905092915050565b600061286d8261294f565b91506128788361294f565b9250827fffffffffffffffffffffffffffffffffffffffffffffffffffffffffffffffff038211156128ad576128ac612a1b565b5b828201905092915050565b60006128c38261294f565b91506128ce8361294f565b9250828210156128e1576128e0612a1b565b5b828203905092915050565b60006128f78261292f565b9050919050565b60006129098261292f565b9050919050565b60008115159050919050565b600081905061292a82612ad7565b919050565b600073ffffffffffffffffffffffffffffffffffffffff82169050919050565b6000819050919050565b60006129648261297d565b9050919050565b60006129768261291c565b9050919050565b60006129888261298f565b9050919050565b600061299a8261292f565b9050919050565b60006129ac8261294f565b91507fffffffffffffffffffffffffffffffffffffffffffffffffffffffffffffffff8214156129df576129de612a1b565b5b600182019050919050565b60006129f58261294f565b9150612a008361294f565b925082612a1057612a0f612a4a565b5b828206905092915050565b7f4e487b7100000000000000000000000000000000000000000000000000000000600052601160045260246000fd5b7f4e487b7100000000000000000000000000000000000000000000000000000000600052601260045260246000fd5b7f4e487b7100000000000000000000000000000000000000000000000000000000600052602160045260246000fd5b7f4e487b7100000000000000000000000000000000000000000000000000000000600052604160045260246000fd5b60058110612ae857612ae7612a79565b5b50565b612af4816128ec565b8114612aff57600080fd5b50565b612b0b816128fe565b8114612b1657600080fd5b50565b612b2281612910565b8114612b2d57600080fd5b50565b612b398161294f565b8114612b4457600080fd5b5056fea2646970667358221220ddacdaebd30f055a00a75af1ae4c86fa2dfd3a47ef10f74013c5c6330b40699164736f6c63430008000033",
  "immutableReferences": {},
  "source": "pragma solidity ^0.8.0;\n\nimport \"@openzeppelin/contracts/utils/math/SafeMath.sol\";\nimport \"@openzeppelin/contracts/token/ERC20/utils/SafeERC20.sol\";\nimport \"@openzeppelin/contracts/utils/Context.sol\";\n\nimport \"./ICampaign.sol\";\n\ncontract Campaign is ICampaign, Context {\n\n    using SafeMath for uint256;\n    using SafeERC20 for IERC20;\n    \n    enum State {\n        NotStarted,\n        Fundraising,\n        Successfull,\n        Refund,\n        Canceled\n    }\n    address factory;\n    \n\n    // General information about the campaign\n    uint public campaign_id;\n    address payable public creator;\n    uint public goal;\n    uint256 public totalBalance;\n    State public state;\n    address public campaign_address;\n    bool public partialGoal;\n    address private token;\n    uint nbTiers;\n\n    address owner;\n    \n\n    // Starting and ending date for the campaign\n    uint public startTimestamp;\n    uint public endTimestamp;\n\n    // Tiers\n    struct Tiers {\n        uint index;\n        uint price;\n        uint quantity;\n    }\n\n    Tiers[] public tiersList;\n\n    mapping(address => uint) public contributions;\n    mapping(address => uint) public contributionsTiers;\n\n\n    constructor() {\n        owner = msg.sender;\n    }\n\n    // **************************** //\n    // *         Modifiers        * //\n    // **************************** //\n\n    modifier changeState(State state_) {\n        require(state != state_, \"State must be different\");\n        state = state_;\n        _;\n    }\n\n    modifier verifyState(State state_) {\n        require(state == state_, \"State must be the same\");\n        _;\n    }\n\n    modifier validAddress(address from) {\n        require(from != address(0), \"Cannot be the address(0)\");\n        _;\n    }\n\n    modifier validAmount(uint amount_) {\n        require(amount_ > 0, \"Amount cannot be equal or less than 0\");\n        _;\n    }\n\n    modifier ETHOnly() {\n        require(token == address(address(0)), \"[WARNING] This campaign only receives ETH\");\n        _;\n    }\n\n    modifier ERC20Only() {\n        require(token != address(address(0)), \"[WARNING] This campaign only receives ERC20\");\n        _;\n    }\n\n    modifier onlyOwner() {\n        require(owner == _msgSender(), \"You are not the Owner\");\n        _;\n    }\n    \n    modifier onlyFactory() {\n        require(factory == _msgSender(), \"You are not the Factory\");\n        _;\n    }\n    \n    modifier onlyCreator() {\n        require(creator == _msgSender(), \"You are not the Creator of the campaign\");\n        _;\n    }\n\n\n    // **************************** //\n    // *         Functions        * //\n    // **************************** //\n\n    function initialize(\n        address payable creator_,\n        uint campaign_id_,\n        uint goal_,\n        uint startTimestamp_,\n        uint endTimestamp_,\n        bool partialGoal_,\n        address token_,\n        uint nbTiers_,\n        uint[] memory tiers_\n        ) override external {\n            creator = creator_;\n            campaign_id = campaign_id_;\n            goal = goal_;\n            startTimestamp = startTimestamp_;\n            endTimestamp = endTimestamp_;\n            state = State.Fundraising;\n            totalBalance = 0;\n            partialGoal = partialGoal_;\n            require(nbTiers_ == tiers_.length, \"Not compatible\");\n            nbTiers = nbTiers_;\n            addTiersFromList(tiers_);\n            token = token_;\n            campaign_address = address(this);\n            \n            emit CampaignCreation(address(this), creator, block.timestamp, goal, token);\n    }\n    \n    function approveCrowdfunding() external returns(bool) {\n        address tokenCrowdfunding = token;\n        uint allowance = IERC20(tokenCrowdfunding).balanceOf(msg.sender);\n        bool success = IERC20(tokenCrowdfunding).approve(address(msg.sender), allowance);\n        return success;\n    }\n\n\n\n    function payCreator() override external onlyOwner() {\n        require(block.timestamp > endTimestamp, \"The campaign has not ended yet\");\n        require(totalBalance > 0, \"totalBalance cannot be empty\");\n        creator.transfer(totalBalance);\n        totalBalance = 0;\n        emit CreatorPaid(msg.sender, totalBalance);\n    }\n\n    function participateInETH() payable public ETHOnly() verifyState(State.Fundraising) validAddress(msg.sender) returns(bool success) {\n        require(msg.sender != creator, \"[FORBIDDEN] The creator cannot fundraise his own campaign\");\n        require(block.timestamp >= startTimestamp, \"The campaign has not started yet\");\n        require(msg.value > 0, \"Amount cannot be less or equal to zero\");\n        if (block.timestamp > endTimestamp && goal < totalBalance) {\n            state = State.Successfull;\n            return false;\n        }\n        if (block.timestamp > endTimestamp && goal > totalBalance) {\n                state = State.Successfull;\n                return false;\n        }\n        //  adding the transaction value to the totalBalance\n        totalBalance += msg.value;\n        contributions[msg.sender] += msg.value;\n        \n        // Cashback : To Be Implemeted later\n        // cbk.contribute(msg.sender, amount, token);\n        \n        // setting up the tiers for the transaction\n        setTiers(msg.sender, msg.value);\n        \n        emit Participation(msg.sender, campaign_id, msg.value, totalBalance);\n        return true;\n    }\n\n\n    function participateInERC20(uint256 amount) payable public ERC20Only() verifyState(State.Fundraising) validAddress(msg.sender) returns(bool success) {\n            require(token != address(0), \"[UNAUTHORIZED] This campaign can only be funded using the correct IERC20\");\n            require(msg.sender != creator, \"[FORBIDDEN] The creator cannot fundraise his own campaign\");\n            require(block.timestamp >= startTimestamp, \"The campaign has not started yet\");\n            require(amount > 0, \"Amount cannot be less or equal to zero\");\n            if (block.timestamp > endTimestamp && goal < totalBalance) {\n                state = State.Refund;\n                return false;\n            }\n            if (block.timestamp > endTimestamp && goal > totalBalance) {\n                state = State.Successfull;\n                return false;\n            }\n            //  adding the transaction value to the totalBalance\n            // [HLI] J'imagine que vous avez implment l'appele de \"approve\" dans votre UX\n            require(IERC20(token).balanceOf(msg.sender) >= amount, \"[FORBIDDEN] You don't have the funds for this transaction\");\n            IERC20(token).transferFrom(msg.sender, address(this), amount);\n            totalBalance += amount;\n            contributions[msg.sender] += amount;\n            \n            // cbk.contribute(msg.sender, amount, token);\n            \n            // setting up the tiers for the transaction\n            setTiers(msg.sender, amount);\n            \n            emit Participation(msg.sender, campaign_id, amount, totalBalance);\n            return true;\n        }\n    \n    function refund() override external verifyState(State.Refund) onlyOwner() returns(bool) {\n        require(msg.sender != creator, \"No refund for the creator\");\n        require(contributions[msg.sender] > 0, \"You have not participated in the campaign\");\n        // [HLI] Ici vous avez une vulnrabilit aux reentrancy attacks.\n        // https://quantstamp.com/blog/what-is-a-re-entrancy-attack\n        \n        uint myContribution = contributions[msg.sender];\n        contributions[msg.sender] = 0;\n        \n        payable(msg.sender).transfer(myContribution);\n\n        emit Refund(msg.sender, contributions[msg.sender]);\n        return(true);\n    }\n\n    // Send ether to the contract\n    receive() override external payable {\n        participateInETH();\n    }\n\n    // **************************** //\n    // *   Internal Functions     * //\n    // **************************** //\n\n    function setTiers(address from, uint amount) internal {\n        for (uint i = 0; i < nbTiers; i++) {\n            if (amount == tiersList[i].price) {\n                contributionsTiers[from] = i;\n                SafeMath.sub(tiersList[i].quantity, 1);\n            }\n        }\n    }\n\n    function addTiersFromList(uint[] memory tList) internal {\n        uint tempIndex;\n        uint tempPrice;\n        uint tempQuantity;\n        for (uint j = 0; j < nbTiers; j++) {\n            if (j % 3 == 0) { tempIndex = tList[j]; }\n            if (j % 3 == 1) { tempPrice = tList[j]; }\n            if (j % 3 == 2) { \n                tempQuantity = tList[j];\n                addTiers(tempIndex, tempPrice, tempQuantity);\n            }\n        }\n    }\n\n\n    function addTiers(uint index, uint price, uint quantity) internal {\n        Tiers memory newTier = Tiers(index, price, quantity);\n        tiersList.push(newTier);\n    }\n    \n\n}",
  "sourcePath": "/Users/hderoche/Documents/project/crowdfunding-contracts/contracts/Campaign.sol",
  "compiler": {
    "name": "solc",
    "version": "0.8.0+commit.c7dfd78e.Emscripten.clang"
  },
  "schemaVersion": "3.4.3",
  "updatedAt": "2022-01-12T14:04:49.450Z",
  "devdoc": {
    "kind": "dev",
    "methods": {},
    "version": 1
  },
  "userdoc": {
    "kind": "user",
    "methods": {},
    "version": 1
  }
}