{
  "contractName": "Campain",
  "abi": [
    {
      "inputs": [
        {
          "internalType": "address payable",
          "name": "creator_",
          "type": "address"
        },
        {
          "internalType": "uint256",
          "name": "campain_id_",
          "type": "uint256"
        },
        {
          "internalType": "uint256",
          "name": "goal_",
          "type": "uint256"
        },
        {
          "internalType": "uint256",
          "name": "startTimestamp_",
          "type": "uint256"
        },
        {
          "internalType": "uint256",
          "name": "endTimestamp_",
          "type": "uint256"
        },
        {
          "internalType": "bool",
          "name": "partialGoal_",
          "type": "bool"
        },
        {
          "internalType": "uint256",
          "name": "nbTiers_",
          "type": "uint256"
        },
        {
          "internalType": "uint256[]",
          "name": "tiers_",
          "type": "uint256[]"
        }
      ],
      "stateMutability": "nonpayable",
      "type": "constructor"
    },
    {
      "anonymous": false,
      "inputs": [
        {
          "indexed": false,
          "internalType": "address",
          "name": "creator",
          "type": "address"
        },
        {
          "indexed": false,
          "internalType": "uint256",
          "name": "total_amount",
          "type": "uint256"
        }
      ],
      "name": "CreatorPaid",
      "type": "event"
    },
    {
      "anonymous": false,
      "inputs": [
        {
          "indexed": false,
          "internalType": "address",
          "name": "from",
          "type": "address"
        },
        {
          "indexed": false,
          "internalType": "uint256",
          "name": "campain_id",
          "type": "uint256"
        },
        {
          "indexed": false,
          "internalType": "uint256",
          "name": "amount",
          "type": "uint256"
        },
        {
          "indexed": false,
          "internalType": "uint256",
          "name": "balance",
          "type": "uint256"
        }
      ],
      "name": "Participation",
      "type": "event"
    },
    {
      "anonymous": false,
      "inputs": [
        {
          "indexed": false,
          "internalType": "address",
          "name": "from",
          "type": "address"
        },
        {
          "indexed": false,
          "internalType": "uint256",
          "name": "refundAmount",
          "type": "uint256"
        }
      ],
      "name": "Refund",
      "type": "event"
    },
    {
      "inputs": [],
      "name": "balance",
      "outputs": [
        {
          "internalType": "uint256",
          "name": "",
          "type": "uint256"
        }
      ],
      "stateMutability": "view",
      "type": "function",
      "constant": true
    },
    {
      "inputs": [],
      "name": "campain_id",
      "outputs": [
        {
          "internalType": "uint256",
          "name": "",
          "type": "uint256"
        }
      ],
      "stateMutability": "view",
      "type": "function",
      "constant": true
    },
    {
      "inputs": [
        {
          "internalType": "address",
          "name": "",
          "type": "address"
        }
      ],
      "name": "contributions",
      "outputs": [
        {
          "internalType": "uint256",
          "name": "",
          "type": "uint256"
        }
      ],
      "stateMutability": "view",
      "type": "function",
      "constant": true
    },
    {
      "inputs": [
        {
          "internalType": "address",
          "name": "",
          "type": "address"
        }
      ],
      "name": "contributionsTiers",
      "outputs": [
        {
          "internalType": "uint256",
          "name": "",
          "type": "uint256"
        }
      ],
      "stateMutability": "view",
      "type": "function",
      "constant": true
    },
    {
      "inputs": [],
      "name": "creator",
      "outputs": [
        {
          "internalType": "address payable",
          "name": "",
          "type": "address"
        }
      ],
      "stateMutability": "view",
      "type": "function",
      "constant": true
    },
    {
      "inputs": [],
      "name": "endTimestamp",
      "outputs": [
        {
          "internalType": "uint256",
          "name": "",
          "type": "uint256"
        }
      ],
      "stateMutability": "view",
      "type": "function",
      "constant": true
    },
    {
      "inputs": [],
      "name": "goal",
      "outputs": [
        {
          "internalType": "uint256",
          "name": "",
          "type": "uint256"
        }
      ],
      "stateMutability": "view",
      "type": "function",
      "constant": true
    },
    {
      "inputs": [],
      "name": "owner",
      "outputs": [
        {
          "internalType": "address",
          "name": "",
          "type": "address"
        }
      ],
      "stateMutability": "view",
      "type": "function",
      "constant": true
    },
    {
      "inputs": [],
      "name": "partialGoal",
      "outputs": [
        {
          "internalType": "bool",
          "name": "",
          "type": "bool"
        }
      ],
      "stateMutability": "view",
      "type": "function",
      "constant": true
    },
    {
      "inputs": [],
      "name": "startTimestamp",
      "outputs": [
        {
          "internalType": "uint256",
          "name": "",
          "type": "uint256"
        }
      ],
      "stateMutability": "view",
      "type": "function",
      "constant": true
    },
    {
      "inputs": [],
      "name": "state",
      "outputs": [
        {
          "internalType": "enum Campain.State",
          "name": "",
          "type": "uint8"
        }
      ],
      "stateMutability": "view",
      "type": "function",
      "constant": true
    },
    {
      "stateMutability": "payable",
      "type": "receive",
      "payable": true
    },
    {
      "inputs": [],
      "name": "payCreator",
      "outputs": [],
      "stateMutability": "nonpayable",
      "type": "function"
    },
    {
      "inputs": [],
      "name": "participate",
      "outputs": [
        {
          "internalType": "bool",
          "name": "success",
          "type": "bool"
        }
      ],
      "stateMutability": "payable",
      "type": "function",
      "payable": true
    },
    {
      "inputs": [],
      "name": "getRefund",
      "outputs": [],
      "stateMutability": "nonpayable",
      "type": "function"
    }
  ],
  "bytecode": "0x60806040523480156200001157600080fd5b5060405162001a3038038062001a30833981810160405281019062000037919062000337565b87600160006101000a81548173ffffffffffffffffffffffffffffffffffffffff021916908373ffffffffffffffffffffffffffffffffffffffff160217905550866000819055508560028190555084600581905550836006819055506000600460006101000a81548160ff02191690836002811115620000e1577f4e487b7100000000000000000000000000000000000000000000000000000000600052602160045260246000fd5b0217905550600160009054906101000a900473ffffffffffffffffffffffffffffffffffffffff16600460016101000a81548173ffffffffffffffffffffffffffffffffffffffff021916908373ffffffffffffffffffffffffffffffffffffffff160217905550600060038190555082600460156101000a81548160ff02191690831515021790555081815114620001b1576040517f08c379a0000000000000000000000000000000000000000000000000000000008152600401620001a8906200047b565b60405180910390fd5b816007819055508060089080519060200190620001d0929190620001df565b505050505050505050620005d8565b8280548282559060005260206000209081019282156200021e579160200282015b828111156200021d57825182559160200191906001019062000200565b5b5090506200022d919062000231565b5090565b5b808211156200024c57600081600090555060010162000232565b5090565b6000620002676200026184620004d1565b6200049d565b905080838252602082019050828560208602820111156200028757600080fd5b60005b85811015620002bb5781620002a0888262000320565b8452602084019350602083019250506001810190506200028a565b5050509392505050565b600081519050620002d6816200058a565b92915050565b600082601f830112620002ee57600080fd5b81516200030084826020860162000250565b91505092915050565b6000815190506200031a81620005a4565b92915050565b6000815190506200033181620005be565b92915050565b600080600080600080600080610100898b0312156200035557600080fd5b6000620003658b828c01620002c5565b9850506020620003788b828c0162000320565b97505060406200038b8b828c0162000320565b96505060606200039e8b828c0162000320565b9550506080620003b18b828c0162000320565b94505060a0620003c48b828c0162000309565b93505060c0620003d78b828c0162000320565b92505060e089015167ffffffffffffffff811115620003f557600080fd5b620004038b828c01620002dc565b9150509295985092959890939650565b600062000422602a8362000500565b91507f4e756d62657273206f6620746965727320646f6e74206d61746368207468652060008301527f7469657273206c697374000000000000000000000000000000000000000000006020830152604082019050919050565b60006020820190508181036000830152620004968162000413565b9050919050565b6000604051905081810181811067ffffffffffffffff82111715620004c757620004c66200055b565b5b8060405250919050565b600067ffffffffffffffff821115620004ef57620004ee6200055b565b5b602082029050602081019050919050565b600082825260208201905092915050565b60006200051e8262000531565b9050919050565b60008115159050919050565b600073ffffffffffffffffffffffffffffffffffffffff82169050919050565b6000819050919050565b7f4e487b7100000000000000000000000000000000000000000000000000000000600052604160045260246000fd5b620005958162000511565b8114620005a157600080fd5b50565b620005af8162000525565b8114620005bb57600080fd5b50565b620005c98162000551565b8114620005d557600080fd5b50565b61144880620005e86000396000f3fe6080604052600436106100e15760003560e01c8063ad1a84491161007f578063c19d93fb11610059578063c19d93fb146102ae578063d11711a2146102d9578063e00824bb146102f7578063e6fd48bc1461030e576100eb565b8063ad1a84491461022f578063b2d5ae441461026c578063b69ef8a814610283576100eb565b806342e94c90116100bb57806342e94c90146101715780638da5cb5b146101ae5780639992477b146101d9578063a85adeab14610204576100eb565b806302d05d3f146100f05780632fe3f6ed1461011b5780634019388314610146576100eb565b366100eb57600080fd5b600080fd5b3480156100fc57600080fd5b50610105610339565b604051610112919061105f565b60405180910390f35b34801561012757600080fd5b5061013061035f565b60405161013d91906110e8565b60405180910390f35b34801561015257600080fd5b5061015b610372565b604051610168919061125e565b60405180910390f35b34801561017d57600080fd5b5061019860048036038101906101939190610cb8565b610378565b6040516101a5919061125e565b60405180910390f35b3480156101ba57600080fd5b506101c3610390565b6040516101d09190611044565b60405180910390f35b3480156101e557600080fd5b506101ee6103b6565b6040516101fb919061125e565b60405180910390f35b34801561021057600080fd5b506102196103bc565b604051610226919061125e565b60405180910390f35b34801561023b57600080fd5b5061025660048036038101906102519190610cb8565b6103c2565b604051610263919061125e565b60405180910390f35b34801561027857600080fd5b506102816103da565b005b34801561028f57600080fd5b506102986106b1565b6040516102a5919061125e565b60405180910390f35b3480156102ba57600080fd5b506102c36106b7565b6040516102d09190611103565b60405180910390f35b6102e16106ca565b6040516102ee91906110e8565b60405180910390f35b34801561030357600080fd5b5061030c610a3b565b005b34801561031a57600080fd5b50610323610be4565b604051610330919061125e565b60405180910390f35b600160009054906101000a900473ffffffffffffffffffffffffffffffffffffffff1681565b600460159054906101000a900460ff1681565b60025481565b60096020528060005260406000206000915090505481565b600460019054906101000a900473ffffffffffffffffffffffffffffffffffffffff1681565b60005481565b60065481565b600a6020528060005260406000206000915090505481565b6002806002811115610415577f4e487b7100000000000000000000000000000000000000000000000000000000600052602160045260246000fd5b600460009054906101000a900460ff16600281111561045d577f4e487b7100000000000000000000000000000000000000000000000000000000600052602160045260246000fd5b1461049d576040517f08c379a00000000000000000000000000000000000000000000000000000000081526004016104949061111e565b60405180910390fd5b600160009054906101000a900473ffffffffffffffffffffffffffffffffffffffff1673ffffffffffffffffffffffffffffffffffffffff163373ffffffffffffffffffffffffffffffffffffffff16141561052e576040517f08c379a00000000000000000000000000000000000000000000000000000000081526004016105259061119e565b60405180910390fd5b6000600960003373ffffffffffffffffffffffffffffffffffffffff1673ffffffffffffffffffffffffffffffffffffffff16815260200190815260200160002054116105b0576040517f08c379a00000000000000000000000000000000000000000000000000000000081526004016105a79061117e565b60405180910390fd5b3373ffffffffffffffffffffffffffffffffffffffff166108fc600960003373ffffffffffffffffffffffffffffffffffffffff1673ffffffffffffffffffffffffffffffffffffffff168152602001908152602001600020549081150290604051600060405180830381858888f19350505050158015610635573d6000803e3d6000fd5b507fbb28353e4598c3b9199101a66e0989549b659a59a54d2c27fbb183f1932c8e6d33600960003373ffffffffffffffffffffffffffffffffffffffff1673ffffffffffffffffffffffffffffffffffffffff168152602001908152602001600020546040516106a692919061107a565b60405180910390a150565b60035481565b600460009054906101000a900460ff1681565b600080806002811115610706577f4e487b7100000000000000000000000000000000000000000000000000000000600052602160045260246000fd5b600460009054906101000a900460ff16600281111561074e577f4e487b7100000000000000000000000000000000000000000000000000000000600052602160045260246000fd5b1461078e576040517f08c379a00000000000000000000000000000000000000000000000000000000081526004016107859061111e565b60405180910390fd5b33600073ffffffffffffffffffffffffffffffffffffffff168173ffffffffffffffffffffffffffffffffffffffff1614156107ff576040517f08c379a00000000000000000000000000000000000000000000000000000000081526004016107f69061113e565b60405180910390fd5b600160009054906101000a900473ffffffffffffffffffffffffffffffffffffffff1673ffffffffffffffffffffffffffffffffffffffff163373ffffffffffffffffffffffffffffffffffffffff161415610890576040517f08c379a0000000000000000000000000000000000000000000000000000000008152600401610887906111de565b60405180910390fd5b6005544210156108d5576040517f08c379a00000000000000000000000000000000000000000000000000000000081526004016108cc906111be565b60405180910390fd5b60003411610918576040517f08c379a000000000000000000000000000000000000000000000000000000000815260040161090f906111fe565b60405180910390fd5b600654421115610978576002600460006101000a81548160ff0219169083600281111561096e577f4e487b7100000000000000000000000000000000000000000000000000000000600052602160045260246000fd5b0217905550600080fd5b346003600082825461098a919061128a565b9250508190555034600960003373ffffffffffffffffffffffffffffffffffffffff1673ffffffffffffffffffffffffffffffffffffffff16815260200190815260200160002060008282546109e0919061128a565b925050819055506109f13334610bea565b7f861dabf52ad90ff59a8e6619b769cf37da3f0414d3dccb0649f4b853779c20a83360005434600354604051610a2a94939291906110a3565b60405180910390a160019250505090565b338073ffffffffffffffffffffffffffffffffffffffff163373ffffffffffffffffffffffffffffffffffffffff1614610aaa576040517f08c379a0000000000000000000000000000000000000000000000000000000008152600401610aa19061123e565b60405180910390fd5b6006544211610aee576040517f08c379a0000000000000000000000000000000000000000000000000000000008152600401610ae59061121e565b60405180910390fd5b600060035411610b33576040517f08c379a0000000000000000000000000000000000000000000000000000000008152600401610b2a9061115e565b60405180910390fd5b600160009054906101000a900473ffffffffffffffffffffffffffffffffffffffff1673ffffffffffffffffffffffffffffffffffffffff166108fc6003549081150290604051600060405180830381858888f19350505050158015610b9d573d6000803e3d6000fd5b5060006003819055507f14f433c13badc2239830ab3bb19e75dec63d39f851363844cc4e4650d0c9b60133600354604051610bd992919061107a565b60405180910390a150565b60055481565b600060075490505b6000811115610c9e5760088181548110610c35577f4e487b7100000000000000000000000000000000000000000000000000000000600052603260045260246000fd5b90600052602060002001548210610c8b5780600a60008573ffffffffffffffffffffffffffffffffffffffff1673ffffffffffffffffffffffffffffffffffffffff168152602001908152602001600020819055505b8080610c969061135f565b915050610bf2565b505050565b600081359050610cb2816113fb565b92915050565b600060208284031215610cca57600080fd5b6000610cd884828501610ca3565b91505092915050565b610cea816112f2565b82525050565b610cf9816112e0565b82525050565b610d0881611304565b82525050565b610d178161134d565b82525050565b6000610d2a601683611279565b91507f5374617465206d757374206265207468652073616d65000000000000000000006000830152602082019050919050565b6000610d6a601883611279565b91507f43616e6e6f7420626520746865206164647265737328302900000000000000006000830152602082019050919050565b6000610daa601783611279565b91507f42616c616e63652063616e6e6f7420626520656d7074790000000000000000006000830152602082019050919050565b6000610dea602883611279565b91507f596f752068617665206e6f742070617274696369706174656420696e2074686560008301527f2063616d7061696e0000000000000000000000000000000000000000000000006020830152604082019050919050565b6000610e50601983611279565b91507f4e6f20726566756e6420666f72207468652063726561746f72000000000000006000830152602082019050919050565b6000610e90601f83611279565b91507f5468652063616d7061696e20686173206e6f74207374617274656420796574006000830152602082019050919050565b6000610ed0603883611279565b91507f5b464f5242494444454e5d205468652063726561746f722063616e6e6f74206660008301527f756e64726169736520686973206f776e2063616d7061696e00000000000000006020830152604082019050919050565b6000610f36602683611279565b91507f416d6f756e742063616e6e6f74206265206c657373206f7220657175616c207460008301527f6f207a65726f00000000000000000000000000000000000000000000000000006020830152604082019050919050565b6000610f9c601d83611279565b91507f5468652063616d7061696e20686173206e6f7420656e646564207965740000006000830152602082019050919050565b6000610fdc603083611279565b91507f5b464f5242494444454e5d20596f7520617265206e6f7420746865206f776e6560008301527f72206f66207468652063616d7061696e000000000000000000000000000000006020830152604082019050919050565b61103e81611343565b82525050565b60006020820190506110596000830184610cf0565b92915050565b60006020820190506110746000830184610ce1565b92915050565b600060408201905061108f6000830185610cf0565b61109c6020830184611035565b9392505050565b60006080820190506110b86000830187610cf0565b6110c56020830186611035565b6110d26040830185611035565b6110df6060830184611035565b95945050505050565b60006020820190506110fd6000830184610cff565b92915050565b60006020820190506111186000830184610d0e565b92915050565b6000602082019050818103600083015261113781610d1d565b9050919050565b6000602082019050818103600083015261115781610d5d565b9050919050565b6000602082019050818103600083015261117781610d9d565b9050919050565b6000602082019050818103600083015261119781610ddd565b9050919050565b600060208201905081810360008301526111b781610e43565b9050919050565b600060208201905081810360008301526111d781610e83565b9050919050565b600060208201905081810360008301526111f781610ec3565b9050919050565b6000602082019050818103600083015261121781610f29565b9050919050565b6000602082019050818103600083015261123781610f8f565b9050919050565b6000602082019050818103600083015261125781610fcf565b9050919050565b60006020820190506112736000830184611035565b92915050565b600082825260208201905092915050565b600061129582611343565b91506112a083611343565b9250827fffffffffffffffffffffffffffffffffffffffffffffffffffffffffffffffff038211156112d5576112d4611389565b5b828201905092915050565b60006112eb82611323565b9050919050565b60006112fd82611323565b9050919050565b60008115159050919050565b600081905061131e826113e7565b919050565b600073ffffffffffffffffffffffffffffffffffffffff82169050919050565b6000819050919050565b600061135882611310565b9050919050565b600061136a82611343565b9150600082141561137e5761137d611389565b5b600182039050919050565b7f4e487b7100000000000000000000000000000000000000000000000000000000600052601160045260246000fd5b7f4e487b7100000000000000000000000000000000000000000000000000000000600052602160045260246000fd5b600381106113f8576113f76113b8565b5b50565b611404816112e0565b811461140f57600080fd5b5056fea2646970667358221220d30177e86cf73652080359c1fe05f46a30dbc7e03631f013e560cd5454dcf2ef64736f6c63430008000033",
  "immutableReferences": {},
  "source": "pragma solidity ^0.8.0;\r\n\r\nimport '@openzeppelin/contracts/utils/math/SafeMath.sol';\r\n\r\ncontract Campain {\r\n\r\n    using SafeMath for uint256;\r\n\r\n    enum State {\r\n        Fundraising,\r\n        Successfull,\r\n        Expired\r\n    }\r\n\r\n    // General information about the campain\r\n    uint public campain_id;\r\n    address payable public creator;\r\n    uint public goal;\r\n    uint256 public balance;\r\n    State public state;\r\n    address public owner;\r\n    bool public partialGoal;\r\n\r\n    // Starting and ending date for the campain\r\n    uint public startTimestamp;\r\n    uint public endTimestamp;\r\n\r\n    // Tiers\r\n    uint nbTiers;\r\n    uint[] tiers;\r\n\r\n    mapping(address => uint) public contributions;\r\n    mapping(address => uint) public contributionsTiers;\r\n\r\n    // Participation from an address\r\n    event Participation(address from, uint campain_id, uint amount, uint balance);\r\n\r\n    // Event triggered when the creator has been paid\r\n    event CreatorPaid(address creator, uint total_amount);\r\n\r\n    event Refund(address from, uint refundAmount);\r\n\r\n    modifier changeState(State state_) {\r\n        require(state != state_, 'State must be different');\r\n        state = state_;\r\n        _;\r\n    }\r\n\r\n    modifier verifyState(State state_) {\r\n        require(state == state_, 'State must be the same');\r\n        _;\r\n    }\r\n\r\n    modifier validAddress(address from) {\r\n        require(from != address(0), 'Cannot be the address(0)');\r\n        _;\r\n    }\r\n\r\n    modifier validAmount(uint amount_) {\r\n        require(amount_ > 0, 'Amount cannot be equal or less than 0');\r\n        _;\r\n    }\r\n\r\n    modifier verifyOwner(address owner_) {\r\n        require(msg.sender == owner_, '[FORBIDDEN] You are not the owner of the campain');\r\n        _;\r\n    }\r\n\r\n    constructor(\r\n        address payable creator_,\r\n        uint campain_id_,\r\n        uint goal_,\r\n        uint startTimestamp_,\r\n        uint endTimestamp_,\r\n        bool partialGoal_,\r\n        uint nbTiers_,\r\n        uint[] memory tiers_\r\n        ) {\r\n            creator = creator_;\r\n            campain_id = campain_id_;\r\n            goal = goal_;\r\n            startTimestamp = startTimestamp_;\r\n            endTimestamp = endTimestamp_;\r\n            state = State.Fundraising;\r\n            owner = creator;\r\n            balance = 0;\r\n            partialGoal = partialGoal_;\r\n            require(tiers_.length == nbTiers_, 'Numbers of tiers dont match the tiers list');\r\n            nbTiers = nbTiers_;\r\n            tiers = tiers_;\r\n    }\r\n\r\n    function payCreator() public verifyOwner(msg.sender) {\r\n        require(block.timestamp > endTimestamp, 'The campain has not ended yet');\r\n        require(balance > 0, 'Balance cannot be empty');\r\n        creator.transfer(balance);\r\n        balance = 0;\r\n        emit CreatorPaid(msg.sender, balance);\r\n    }\r\n\r\n    function participate() payable external verifyState(State.Fundraising) validAddress(msg.sender) returns(bool success) {\r\n        require(msg.sender != creator, '[FORBIDDEN] The creator cannot fundraise his own campain');\r\n        require(block.timestamp >= startTimestamp, 'The campain has not started yet');\r\n        require(msg.value > 0, 'Amount cannot be less or equal to zero');\r\n        if (block.timestamp > endTimestamp) {\r\n            state = State.Expired;\r\n            revert();\r\n        }\r\n\r\n        //  adding the transaction value to the balance\r\n        balance += msg.value;\r\n        contributions[msg.sender] += msg.value;\r\n        \r\n        // setting up the tiers for the transaction\r\n        setTiers(msg.sender, msg.value);\r\n        \r\n        emit Participation(msg.sender, campain_id, msg.value, balance);\r\n        return true;\r\n    }\r\n\r\n    function getRefund() public verifyState(State.Expired) {\r\n        require(msg.sender != creator, 'No refund for the creator');\r\n        require(contributions[msg.sender] > 0, 'You have not participated in the campain');\r\n        payable(msg.sender).transfer(contributions[msg.sender]);\r\n        emit Refund(msg.sender, contributions[msg.sender]);\r\n    }\r\n\r\n    receive() external payable {\r\n        revert();\r\n    }\r\n\r\n    /**\r\n        Internal function\r\n     */\r\n\r\n    function setTiers(address from, uint amount) internal {\r\n        for (uint i = nbTiers; i > 0; i--) {\r\n            if (amount >= tiers[i]) {\r\n                contributionsTiers[from] = i;\r\n            }\r\n        }\r\n    }\r\n    \r\n\r\n}",
  "sourcePath": "C:/Users/Hugo/Desktop/dev/crowdfunding/contracts/Campain.sol",
  "compiler": {
    "name": "solc",
    "version": "0.8.0+commit.c7dfd78e.Emscripten.clang"
  },
  "schemaVersion": "3.3.4",
  "updatedAt": "2021-04-18T20:20:52.457Z",
  "networkType": "ethereum",
  "devdoc": {
    "kind": "dev",
    "methods": {},
    "version": 1
  },
  "userdoc": {
    "kind": "user",
    "methods": {},
    "version": 1
  }
}