{
  "contractName": "CrowdFundFactory",
  "abi": [
    {
      "inputs": [],
      "stateMutability": "nonpayable",
      "type": "constructor"
    },
    {
      "inputs": [
        {
          "internalType": "uint256",
          "name": "",
          "type": "uint256"
        }
      ],
      "name": "allCrowdFund",
      "outputs": [
        {
          "internalType": "address",
          "name": "",
          "type": "address"
        }
      ],
      "stateMutability": "view",
      "type": "function"
    },
    {
      "inputs": [
        {
          "internalType": "address",
          "name": "",
          "type": "address"
        }
      ],
      "name": "campains",
      "outputs": [
        {
          "internalType": "contract Campain",
          "name": "",
          "type": "address"
        }
      ],
      "stateMutability": "view",
      "type": "function"
    },
    {
      "inputs": [],
      "name": "nbCampain",
      "outputs": [
        {
          "internalType": "uint256",
          "name": "",
          "type": "uint256"
        }
      ],
      "stateMutability": "view",
      "type": "function"
    },
    {
      "inputs": [],
      "name": "allCrowdfund",
      "outputs": [
        {
          "internalType": "uint256",
          "name": "",
          "type": "uint256"
        }
      ],
      "stateMutability": "view",
      "type": "function"
    }
  ],
  "bytecode": "0x608060405234801561001057600080fd5b506000600281905550610328806100286000396000f3fe608060405234801561001057600080fd5b506004361061004c5760003560e01c80631b9d8d05146100515780632ab876201461006f578063c65a754d1461009f578063dcc0b943146100cf575b600080fd5b6100596100ed565b6040516100669190610249565b60405180910390f35b610089600480360381019061008491906101bd565b6100f3565b6040516100969190610213565b60405180910390f35b6100b960048036038101906100b49190610194565b610132565b6040516100c6919061022e565b60405180910390f35b6100d7610165565b6040516100e49190610249565b60405180910390f35b60025481565b6001818154811061010357600080fd5b906000526020600020016000915054906101000a900473ffffffffffffffffffffffffffffffffffffffff1681565b60006020528060005260406000206000915054906101000a900473ffffffffffffffffffffffffffffffffffffffff1681565b600090565b600081359050610179816102c4565b92915050565b60008135905061018e816102db565b92915050565b6000602082840312156101a657600080fd5b60006101b48482850161016a565b91505092915050565b6000602082840312156101cf57600080fd5b60006101dd8482850161017f565b91505092915050565b6101ef81610264565b82525050565b6101fe816102a0565b82525050565b61020d81610296565b82525050565b600060208201905061022860008301846101e6565b92915050565b600060208201905061024360008301846101f5565b92915050565b600060208201905061025e6000830184610204565b92915050565b600061026f82610276565b9050919050565b600073ffffffffffffffffffffffffffffffffffffffff82169050919050565b6000819050919050565b60006102ab826102b2565b9050919050565b60006102bd82610276565b9050919050565b6102cd81610264565b81146102d857600080fd5b50565b6102e481610296565b81146102ef57600080fd5b5056fea2646970667358221220078aa0b7d99034a4d0550478a4fe6f1567de948c02cc94b565982b7ef9b7e7e164736f6c63430008000033",
  "immutableReferences": {},
  "source": "pragma solidity ^0.8.0;\r\n\r\nimport './Campain.sol';\r\nimport '@openzeppelin/contracts/utils/math/SafeMath.sol';\r\n\r\n\r\ncontract CrowdFundFactory {\r\n\r\n\r\n    mapping(address => Campain) public campains;\r\n    address[]  public allCrowdFund;\r\n\r\n    uint256 public nbCampain;\r\n\r\n    constructor() {\r\n        nbCampain = 0;\r\n    }\r\n\r\n    // should return allCrowdFund.length\r\n    function allCrowdfund() external view returns(uint) {\r\n        \r\n    }\r\n\r\n    // Allow a creator to instantiate a CrowFund and start a campain\r\n    // function createCrowdFund(\r\n    //     uint timestamp, uint goal, \r\n    //     uint[] memory tiersStage, \r\n    //     uint8 nbTiers, \r\n    //     uint endDate) \r\n    //     public {\r\n    //     new Campain(timestamp, goal, tiersStage, nbTiers, endDate );\r\n    //     SafeMath.add(nbCampain, 1);\r\n    // }\r\n}",
  "sourcePath": "C:/Users/Hugo/Desktop/dev/crowdfunding/contracts/CampainFactory.sol",
  "compiler": {
    "name": "solc",
    "version": "0.8.0+commit.c7dfd78e.Emscripten.clang"
  },
  "schemaVersion": "3.3.4",
  "updatedAt": "2021-04-18T20:09:57.303Z",
  "devdoc": {
    "kind": "dev",
    "methods": {},
    "version": 1
  },
  "userdoc": {
    "kind": "user",
    "methods": {},
    "version": 1
  }
}